:020000040800F2
:1000000030060020D10000080D110008DD100008A6
:1000100000000000000000000000000000000000E0
:1000200000000000000000000000000011110008A6
:1000300000000000000000000F110008131100086C
:10004000E3000008E3000008E3000008E300000804
:10005000E3000008E3000008E3000008E3000008F4
:10006000E3000008E3000008E3000008E3000008E4
:10007000E3000008E3000008E3000008E3000008D4
:10008000E3000008E300000800000000E3000008AF
:10009000E3000008E3000008E3000008E3000008B4
:1000A000E3000008E3000008E3000008DD16000894
:1000B000ED16000800000000E30000080348854634
:1000C00000F06AF800480047CD1D00083006002007
:1000D0000448804704480047FEE7FEE7FEE7FEE7E6
:1000E000FEE7FEE787110008BD00000803460B434A
:1000F0009B0703D009E008C9121F08C0042AFAD2DE
:1001000003E00B780370401C491C521EF9D2704763
:10011000D2B201E00270401C491EFBD2704700229F
:10012000F6E710B513460A4604461946FFF7F0FFF6
:10013000204610BD421E5378521C002BFBD10B7879
:100140001370491C521C002BF9D17047421C0178D6
:10015000401C0029FBD1801A704770B50446002965
:1001600003D000202022012310E0002801D000202D
:10017000C043C046C0460DE02546D5408D4205D35C
:100180000D469540641B1D46954040191546521E6C
:10019000002DF1DC214670BD064C0125064E05E020
:1001A000E36807CC2B430C3C98471034B442F7D398
:1001B000FFF788FF1030000830300008EFF31080A0
:1001C00072B6FEE710B52121425C01462031022AB9
:1001D00010D1026813680E24A3431360136801242E
:1001E000A3431360C26B006C2346834053604C7082
:1001F000002002E004228263012000220A7010BD68
:10020000B0B52121415C022917D101462031026895
:1002100013680E24A343136013680125AB431360D6
:10022000C26B036C2C469C40546000240C704D70D3
:10023000416B002904D0884702E004218163012436
:100240002046B0BDB0B5044600F0EAF80546601C93
:1002500002D090480078041900F0E2F8401BA04258
:10026000FAD3B0BDF0B588B007465E48874201D0EA
:10027000052000E003200090002206921446059716
:100280000E683046E04000D1AAE001250295A54065
:100290002E4000D19EE0049403924A680323144642
:1002A0001C40601E01281AD803230192069A93402D
:1002B000B8689843CF6897400743059887600198CE
:1002C000C006C00F049A9040059F7F68AF43074364
:1002D00005984760059FD8435500019A08E01846E5
:1002E000069DA840C043032C02D1069D1C461CE07D
:1002F000FB6803408F68AF401F43059BDF60059F8D
:10030000022C12D11C22039B1A400F239340049C01
:10031000E408A4003C19276A9F430B6993403B43C0
:10032000059F23624A6803241440AC403B680340A5
:1003300023433B609003800F039A049C4AD0604B98
:100340001868029D284318601868284007902346C3
:100350000C2414400F20A04003229343079A234DFE
:100360005A5982435B190920C006874208D02048A9
:10037000874207D01F488742009804D1022002E03C
:10038000002000E00298A040104318601648006862
:100390004B68DA0301D5304300E0B043049C124AB5
:1003A000106050689A0301D5304300E0B0430E4A14
:1003B00050609068DA0201D5304300E0B0430A4A49
:1003C0009060D0689A0201D5304300E0B043039AB0
:1003D000054BD860121D0698801C0690641C4FE7E0
:1003E00008B0F0BD000C00480004014008000140C6
:1003F000000400480008004800690840411E884188
:10040000704742690B4693430A401104C918816141
:100410007047002A01D0182200E02822815070473E
:10042000054800687047C0461A48007802490A68C3
:10043000101808607047C0462C02002080B5A948FB
:10044000016810220A430260032000F005F800F062
:1004500023F8002080BDC04670B504467D20C00052
:100460000C4E3178FFF779FE0146A6480068FFF789
:1004700074FE00F06BFB0125032C08D8002806D180
:100480000025E84321462A4600F028F874602846F3
:1004900070BDC0460000002082B0094801680122FA
:1004A00011430160016811400191019911074268EF
:1004B0000A434260406808400090009802B07047CC
:1004C00018100240002805D41F2108400121814056
:1004D000014801607047C04600E100E080B501F0CE
:1004E0000DF980BDF0B585B004468078C0073C4B5F
:1004F0004AD001200390010718680840029006D1F5
:10050000186808431860186808400490049801911E
:10051000344E3068C00511D4039807023068384360
:100520003060FFF77DFF05463068384206D1FFF79F
:1005300077FF401B6428F7D903253FE003252802F5
:10054000274B5968014012D06268024091420ED098
:100550000398000459685A6802435A605A688243F3
:100560005A600846204A10405860C80729D1586888
:100570001D4908406168014359600298002803D171
:1005800018680199884318602068C10705D0596927
:1005900003229143A2680A435A61810605D559692D
:1005A00010229143E2680A435A610025400505D5AF
:1005B000586940218843216901435961284605B0A3
:1005C000F0BDFFF72DFF0646474F054B58688007E3
:1005D000CDD4FFF725FF801BB842F6D9EEE7C04621
:1005E0001C10024000700040FFFCFFFFF8B500281F
:1005F0004CD004463B4A1368012003408B4208D28A
:1006000013680126B3430B431360126832408A42D9
:1006100066D1009121688A070ED54A0705D50722C1
:100620001202484D2B6813432B60464D2A68F02375
:100630009A43A36813432B60C90729D12949086845
:1006400001263040009A904205D90868B0430860FE
:100650000868C00744D12078400707D5072000026A
:10066000384A11688143E0680843106000F04EF892
:10067000344909680906090F1C4A515CC8402149E0
:1006800008600320FFF7E8FE002629E0012627E0A6
:1006900061682C4A121F022904D0012905D1126871
:1006A000920304E01268920101E012689207064684
:1006B00016D5244A10680326B04308431060FFF79C
:1006C000AFFE0746084D1F4800680C2101406068D6
:1006D00080008142B2D0FFF7A3FEC01BA842F2D92E
:1006E0003046F8BD0020024088130000F0290008C1
:1006F00004480068134909684905490F024A515CDA
:10070000C840704708000020002A000810B50D49B5
:100710000A680C2313400C48082B08D193021B0FC6
:100720000AA4E45C896AD20303D4104807E00446B3
:1007300006E00F22114009A2515CFFF70EFD444371
:10074000204610BD0410024000127A000203040586
:10075000060708090A0B0C0D0E0F10100102030406
:1007600005060708090A0B0C0D0E0F1000093D00C5
:10077000F0B587B004460120002C00D1BCE1049004
:100780002078C007EE4E059426D071680C200140F9
:1007900004291AD071680140082902D17068C00389
:1007A00013D4616801204704002900D178E10529AC
:1007B00000D18CE1012900D18DE1010432688A4326
:1007C000326081043068884388E13068800303D553
:1007D0006068002800D1B5E0207880071AD57068DD
:1007E0000007800F07D070680C210140082971D1E3
:1007F0007068C0036ED430688007059C03D5E0683C
:10080000012800D09EE03068F82188432169C900A2
:1008100001433160059C2078000724D420784007EC
:1008200034D42078C00600D4ABE005984069411D5F
:1008300000D19AE0012800D0EAE0706B0421014366
:100840007163706B012101437163FFF7E9FD054698
:10085000706B800700D58CE0FFF7E2FD411B0320A1
:100860000229F5D948E1706AE16900295AD00121CD
:1008700008437062FFF7D4FD0546706A8007CDD447
:10088000FFF7CEFD401B0228F7D934E10120039089
:100890000107F0690840029006D1F0690843F06151
:1008A000F0690840069006980191A64F3868C00587
:1008B00024D403980402386820433860FFF7B0FD61
:1008C00005463868204219D1FFF7AAFD401B64286D
:1008D000F7D910E13068059CE168002934D0012186
:1008E00008433060FFF79CFD0546306880078AD4D6
:1008F000FFF796FD401B0228F7D9FCE005988068B9
:10090000914F002800D198E0052800D1AAE00128E5
:1009100000D1ABE0306A039988433062306A042129
:100920008843A6E0012188437062FFF779FD054600
:10093000706A800700D471E7FFF772FD401B022840
:10094000F6D9D8E00498D7E0012188433060FFF75A
:1009500067FD05463068800700D45BE7FFF760FD60
:10096000411B03200229F5D9C6E0706B042188439E
:100970007063706BF821884305998969C900014348
:1009800071630598046A002C1ED070680C21014028
:1009900008291BD1012C049800D1ADE001200304EB
:1009A00071680B40F26A059D6C6AA34200D0A3E017
:1009B0000F231A40EC6AA24200D09DE09A04114035
:1009C000AA6A914200D097E0002095E0012002063B
:1009D00031680492914331604706FFF721FD0546D7
:1009E000022C0BD1049C3068384200D186E0FFF71E
:1009F00017FD411B03200229F5D97DE030683842FC
:100A0000E2D0FFF70DFD411B03200229F6D973E068
:100A1000706B042101437163706B01218843706323
:100A2000FFF7FEFC0546706B8007AAD5FFF7F8FCC0
:100A3000411B03200229F6D95EE0306A03998843FE
:100A40003062306A042188433062FFF7E9FC0546D2
:100A5000306A80071AD5FFF7E3FC411B0320B94237
:100A6000F6D949E0306A042101433162306A0399C2
:100A700008433062FFF7D4FC0546306A800705D48E
:100A8000FFF7CEFC401BB842F7D934E002980028AB
:100A9000059C00D0C5E6F06901998843F061C0E685
:100AA000010432688A4332608004316881433160D6
:100AB000FFF7B6FC0546059C3068384200D18BE64E
:100AC000FFF7AEFC411B03206429F5D914E0810433
:100AD00032680A4332600104306808433060FFF72F
:100AE0009FFC05463068384200D075E6FFF798FC59
:100AF000401B6428F6D9032007B0F0BDF06A0F212F
:100B00008843059AD16A0143F1623D20000471686F
:100B10008143906A0843516A014371603068204301
:100B20003060FFF77DFC04463068384200D04BE768
:100B3000FFF776FC011B03200229F5D9DCE7C0464C
:100B4000001002400070004088130000401E010E9B
:100B500001D0012070470749074A506007480368E1
:100B60000B4003218907591801600020906007217C
:100B700011607047FFFFFF0010E000E020ED00E093
:100B80007047704770470000FEB505460068C269AF
:100B900007680195583584680126F30219460F311C
:100BA0000A42029762D0A149394027463740791856
:100BB00061D0D10706D00299C90503D50662A96A9A
:100BC0003143A96202241146009421404C424C4119
:100BD00079427941214305D100990162A96A04242F
:100BE0000C43AC627C427C415107314600D5214622
:100BF000002905D104210162A96A009C2143A96250
:100C000011070CD5791E8F410299890600D43E4602
:100C1000012E04D108210162AC6A0C43AC621A4275
:100C200007D00299490104D50362A96A20230B4326
:100C3000AB62A96A0029019E47D0910608D50299A6
:100C4000890605D5716E002902D030468847306884
:100C5000A96A28220A4080684024204080183BD19D
:100C60003046FFF78FFF0020A862FEBD910602D537
:100C70000299890653D4019F396E012904D1D10606
:100C800002D50299C90650D40123D10201D56102CF
:100C90001CD4100602D5029800063BD4500614D589
:100CA0000298400611D5EFF3108083F3108839685D
:100CB0000A6840239A430A6080F310880020B866CF
:100CC0002020B867384600F007FAFEBD190501621A
:100CD0003846FFF756FFFEBD304600F0F0FA3068A8
:100CE0008068400655D5EFF31080012181F310880C
:100CF00031688A68A2438A6080F31088306F0028C8
:100D000047D04B494163FFF77BFA0028DDD0306FB5
:100D1000416B08E0B96E0029D7D0384603E001984E
:100D2000416E0029D1D08847FEBD10210162806844
:100D3000400632D468882A886B88002BC5D0101AE8
:100D40000204C2D0EFF31083012282F31088092439
:100D500064013D682E68A6432E6083F31088EFF38C
:100D6000108382F310883C68A5689543A56083F3DF
:100D700010882023FB6700237B663B66EFF310831C
:100D800082F310883A6814688C43146083F31088E7
:100D900046E03046FFF7F6FEFEBD3A6F1068436846
:100DA0009CB2002C91D0288884428ED26B809269AC
:100DB000202A33D0EFF31082012080F310881D4BDE
:100DC00020333C6826681E40266082F31088EFF3CB
:100DD000108280F310883B689C6884439C6082F397
:100DE0001088EFF3108280F310883B689C684026DF
:100DF000B4439C6082F310882022FA6700223A668E
:100E0000EFF3108280F31088386803688B43036027
:100E100082F31088386FFFF7D5F928886988401A5F
:100E200081B23846FFF7ACFEFEBDC046200100048B
:100E3000A9120008DFFEFFFFB0B500282ED004463F
:100E4000806F002805D1742000212154204600F035
:100E500029F82420A067206801680125A9430160C2
:100E6000204600F0FBFA012819D0606A002802D061
:100E7000204600F089F90920C00221684A688243AF
:100E80004A6088682A2290438860086801220243E9
:100E90000A60204600F0D4F9054600E00125284606
:100EA000B0BD0000B0B586B0044601A81421FFF71C
:100EB00036F920682349884219D0484988423FD1F1
:100EC00001208103204A53680B43536053680B4051
:100ED00000930099400411680143116011680140BA
:100EE000009103204002019000981B2413E0012090
:100EF000400415498A6802438A608A680240009269
:100F0000009A0A6802430A600968014000910C20B7
:100F1000019000981C2401200590032004900025D6
:100F20000395022002900920C00601A9FFF79AF953
:100F3000204629462A46FFF7D1FA2046FFF7C2FA93
:100F400006B0B0BD0044004014100240F8B5C36FB5
:100F50000225202B2AD10124002928D0002A26D0BE
:100F600001231C038668A64204D10469002C01D128
:100F7000CC071ED17424045D012C2C4617D00546E5
:100F80007435002404662B7005686D682D020AD53F
:100F9000EFF3108583F310889B06066837681F43BC
:100FA000376085F3108800F0E7FA00E02C46204611
:100FB000F8BD1C46FBE7000080B500680749884281
:100FC00000D080BD064908784A78531C4B70054B09
:100FD000985405480122FFF7B9FF80BD0038014051
:100FE000200000202C01002024000020F0B587B054
:100FF00006930746836F0220202B2FD1012500295D
:101000002DD0002A2BD001231D03BC68AC4204D193
:101010003C69002C01D1CC0724D103953E4674369F
:101020003478012C05461AD0049101923C46503484
:101030000025F560029633702120B867FFF7F0F9BC
:101040000590019860802080B8680399884202D199
:101050003869002808D0049E049506E00546284615
:1010600007B0F0BD1D46FAE70026029805706088BB
:1010700000281ED0069800908021002538462A4678
:10108000059B00F0C5FA00281ED1002E04D0307850
:1010900039680885761C08E0049A10880D490840D4
:1010A00039680885921C04922E466088401E608034
:1010B000DDE7069800904021002538462A46059B2A
:1010C00000F0A6FA002801D00325C8E72020B86761
:1010D000C5E7C046FF010000704700000126740309
:1010E000094D28462146FFF78CF93603284631463C
:1010F000FFF787F928462146FFF783F9284631464E
:10110000FFF77FF9F6E7C04600040048FEE77047A6
:10111000704780B5FFF788F980BD70B596B00AAD0D
:10112000284608302821FEF7FAFF002412940126F1
:101130000B960A9605940494039402942846FFF7AC
:1011400017FB002803D0EFF3108072B6FEE7099476
:10115000089407960720069006A82146FFF746FA4E
:10116000002803D0EFF3108072B6FEE703940196D7
:1011700001A8FFF7B7F9002803D0EFF3108072B68B
:10118000FEE716B070BD7047B0B5416ACA0707D018
:101190000122520403685C689443826A22435A60C5
:1011A0008A0707D50122120403685C689443C26A67
:1011B00022435A604A0707D50122920403685C68FB
:1011C0009443026B22435A600A0707D50122D203D7
:1011D00003685C689443426B22435A60CA0607D591
:1011E0000122120303689C689443826B22439A6035
:1011F0008A0607D50122520303689C689443C26B98
:1012000022439A604A0610D50122130502685468E9
:101210009C43056C2C4354609D4206D103235B051F
:1012200054689C43436C23435360090607D501214E
:10123000C904026853688B43806C18435060B0BD8A
:101240007CB50546802000242C50FFF7E9F80646BF
:101250002868016809070BD5124800900120410554
:1012600000222846334600F0D3F900280ED1286822
:10127000006840070CD50B48009001208105002232
:101280002846334600F0C4F9002801D0032406E0C4
:10129000284674302021A967E96704702C6620462F
:1012A0007CBDC046FFFFFF0180B5406A0146523158
:1012B00000220A8152214252FFF764FC80BDB0B582
:1012C000EFF31082012181F3108809235B01046888
:1012D00025689D43256082F31088EFF3108281F327
:1012E000108803689C688C439C6082F31088026EAF
:1012F000012A0AD1EFF3108281F3108801680B688C
:101300001024A3430B6082F310882021C1670021C1
:1013100041660166B0BD70B55C21435A0268C16F79
:1013200022290ED101465831928C1A40436D1A8001
:101330004A88521E4A809A1C42654A88002A05D073
:1013400070BD906908210143916170BDEFF3108376
:10135000012282F310880924640105682E68A643DF
:101360002E6083F31088EFF3108382F310880468F3
:10137000A5689543A56083F310882023C3670023E5
:101380004366046E012C14D10366EFF3108382F3DD
:1013900010880468256810229543256083F310881F
:1013A0000368DC69E40600D51A620988FFF7E8FBE8
:1013B00070BDFFF701FE70BD70B55C21435A026835
:1013C000C16F22290FD101465831928C1A40436DCA
:1013D0001A704A88521E4A80426D521C42654A88E1
:1013E000002A05D070BD906908210143916170BD4C
:1013F000EFF31083012282F3108809246401056849
:101400002E68A6432E6083F31088EFF3108382F3D7
:1014100010880468A5689543A56083F3108820238D
:10142000C36700234366046E012C14D10366EFF3F7
:10143000108382F310880468256810229543256084
:1014400083F310880368DC69E40600D51A62098812
:10145000FFF796FB70BDFFF7AFFD70BDB0B504465A
:10146000006801683A4A0A40A16823690B4365692C
:101470001D43E1690D4315430560032212034368D0
:101480009343E2681A434260A269236A13430B2222
:101490001202856895431D4385602E4A904209D00B
:1014A0002D4A904208D12D4800688007000F2CA2D9
:1014B000135802E0002300E010230125EA032C4822
:1014C00091420DD1082B3DD87B441B795B009F4492
:1014D00004391B39153939391A00FFF709F90FE0BA
:1014E000082B2FD87B441B795B009F44042B202BB7
:1014F0001A2B2B2B1F00FFF7FBF814E0FFF706F960
:10150000002801D11DE01046400061684A0810180B
:10151000FEF723FE1749014014D00007400F08438F
:101520000DE0FFF7F3F8002801D10AE010466168EA
:101530004A081018FEF711FE80B2102802D3216865
:10154000C860002500206066A0662846B0BDC04681
:10155000F369FFFF004400400038014030100240B2
:10156000000000000400000008000000020000006D
:1015700000127A00F0FF000070B5034658201A529E
:10158000596500205866194658314A809A68002AE1
:1015900008D001242403A24209D11A69002A08D1E3
:1015A000184A07E01A69002A03D07F2202E08880E7
:1015B00001E0FF228A8088622222DA67EFF310843A
:1015C000012282F310881D68AE681643AE6084F372
:1015D000108814039D68A54202D11C69002C0FD00D
:1015E0000A4C08775C66EFF3108182F310880922B9
:1015F00052011B681C6814431C6081F3108870BD85
:10160000014CEEE7FF01000017130008B9130008B2
:10161000FEB516460F460468014674310191089DD7
:10162000E1693940C91B4A424A41B24233D1691C7F
:10163000F6D004460293FEF7F3FE029BC01AA842BE
:101640002BD8002D29D02046246821684907E7D5EA
:10165000E1690905E4D50121CA022262EFF3108491
:1016600081F310880D22520103681D6895431D60A7
:1016700084F31088EFF3108481F310880268936874
:101680008B43936084F3108820218167C16701999F
:101690000C460C341CE00020FEBDEFF3108101204D
:1016A00080F310880D22520123681D6895431D6048
:1016B00081F31088EFF3108180F31088226893681B
:1016C0008343936081F310882020A0677C340199C4
:1016D00000200870202020600320FEBD80B5024855
:1016E000FFF752FA80BDC0462400002080B50248B2
:1016F000FFF74AFA80BDC046A8000020002805D4A4
:101700000322034693430C4A9A1806E00F22024034
:10171000083A03239A43074BD2188007C00E890169
:10172000C9B28140FF23834010689843084310608A
:101730007047C0461CED00E000E400E0E0B507A003
:1017400000F020FE7D20C00000900E480EA1002277
:10175000134600F0CBFD411E88418CBD436C6F7376
:10176000652054435020636F6E6E656374696F6EBD
:101770003A2073656E642041542B434950434C4FCB
:1017800053450000082A0008434C4F5345204F4B57
:1017900000000000F0B5C7B0DBA000F0F3FD7D2035
:1017A0000290C60000270696022F20D8DF4800F0DE
:1017B000E9FD0096012507ACD848D9A12A46234661
:1017C00000F094FD064629022046FEF7A8FC012EF3
:1017D000069E0CD0F8A000F0D5FDEF480090002246
:1017E000EE48EF49134600F081FD7F1CDCE7FDA0C9
:1017F00000F0C8FD0096EB48E949012707AD3A46DD
:101800002B4600F073FD3C02E7A20C23284621463C
:1018100000F0B8FA002800D18AE007AD284621463A
:10182000FEF77DFCFC4800F0ADFD0096FD48FC494C
:101830003A462B4600F05AFDFBA2052328462146D6
:1018400000F0A0FA002801D100F0F8FE07A80594E6
:101850002146FEF764FC00240497032C33D2039442
:10186000FD4800F08FFD0096012707ADFB48F949C0
:101870003A462B4600F03AFD08232846059C2146AF
:10188000F74A00F07FFA002806D0390207A8FEF7D1
:1018900046FC049F039C10E007AD03232846214625
:1018A000F0A200F06FFA064639022846FEF737FC30
:1018B000002E069E049F039C05D002984001FEF76F
:1018C000C1FC641CC9E70024022C38D8E74800F0AA
:1018D00059FD0096012507AFE548DE492A463B46FB
:1018E00000F004FD02233846059F3946E1A200F0CE
:1018F00049FA00281ED1394607AF02233846DEA236
:1019000000F040FA064629023846FEF708FC002E91
:10191000069E049F13D1FD4800F034FDD24800908C
:101920000022FB48CB49134600F0E0FC641CCBE7E7
:10193000312581E1290207A8FEF7F1FB049F00246D
:10194000C44D022C2BD8CD4800F01CFD009607AEEC
:10195000CB4829463A46334600F0C8FC08233046B7
:10196000059F3946C74A00F00DFA03942C460546F8
:101970003046069E3946049FFEF7D1FB002D2546D2
:10198000039C0CD0C04800F0FDFCB1480090002240
:10199000BE482946134600F0A9FC641CD1E7BC48A8
:1019A00000F0F0FC0096BB48AA490125344607AE7A
:1019B0002A46334600F09AFCB74A09233046059E72
:1019C000314600F0DFF900280CD0B44800F0DAFC12
:1019D0000094B3489F490022134600F087FC00287A
:1019E00000D117E1290207AF38460491FEF797FBB3
:1019F000AC4800F0C7FC0094AB4896492A463B46E9
:101A000000F074FCA94A05233846314600F0BAF9C3
:101A100000281DD0A64F3846FEF798FB3818A5A120
:101A20000322FEF763FB3846FEF790FB3818A24905
:101A30000922FEF75BFBA14800F0A4FC0094854955
:101A400000223846134600F051FC002800D1E5E0A2
:101A500007AF3846049E3146FEF761FB984800F018
:101A600091FC00948B487B492A463B4600F03EFCA3
:101A7000944A08233846059900F084F9054638460B
:101A80003146FEF74CFB012D0CD18F4800F07AFC5B
:101A900000948E488E490022134600F027FC00284F
:101AA00000D1C5E08B4800F06DFC0094794869498D
:101AB000012507AE2A46334600F018FC864A0A2361
:101AC0003046059C214600F05DF9002830D02902FF
:101AD00007AE3046FEF723FB804800F053FC624817
:101AE00000907F485B492A46334600F0FFFB7D4A61
:101AF00005233046214600F045F9002818D07A48E1
:101B000000F040FC382597E0456E61626C65204727
:101B10005052533A20537461727400008B2A0008AB
:101B20002B4346554E3A203100000000732C00082C
:101B3000290207AE3046FEF7F2FA6C4800F022FCAC
:101B400006980090534843492A46334600F0CEFB9E
:101B5000674A09233046214600F014F9002817D1BE
:101B600007A8644A0E23214600F00CF900280FD183
:101B700007A8614A0A23214600F004F9002807D18A
:101B800007A85E4A0F23214600F0FCF8002856D033
:101B90005B4800F0F7FB4FE0B80B00006A2A000832
:101BA000CE2D00081F2A00082B43534D494E533AAF
:101BB00020302C3100000000456E61626C652070A1
:101BC000686F6E652066756E6374696F6E616C69AF
:101BD00074793A2073656E642041542B4346554E08
:101BE0003D31000044657465637420696620534983
:101BF0004D20636172642069732070726573656E35
:101C0000743A2073656E642041542B43534D494E02
:101C1000533F000035250FE0462C000836250BE029
:101C2000CE2D0008152A00085245414459000000F5
:101C3000354800F0A7FB3725284647B0F0BD3148AE
:101C400000F0A0FB07A800F09DFB0025F4E7C046CC
:101C5000B80B0000CE2D0008132E0008622A0008E1
:101C60006D2B000839392C0088130000152C000852
:101C7000582A00082C3100002C350000B82C000830
:101C80004D2A0008762B0008A32B00087F2A0008A5
:101C9000832E00083F2A0008522F0008862F0008D4
:101CA000A02A0008DD2C0008352A0008772F00083C
:101CB0000C000020544D000004300008402B0008A8
:101CC000FD2E00087D2F00083B2E00082B2A00085F
:101CD000F52F00082F2F00085C2F00085B2E00084E
:101CE000752A0008552E0008FE2D0008C72E000892
:101CF000792E0008942D00086F2F0008672F000828
:101D0000DB2F0008E42D0008D12D00087F2B0008F0
:101D1000952A0008F0B589B012A105A8024638C975
:101D200038C20988118013A101AC224668C968C273
:101D300009881180C8260096E94900273A463B46A3
:101D400000F0D4FA05460096401E85412046E4493D
:101D50003A463B4600F0CAFA411E8841284009B085
:101D6000F0BDC04641542B434750535057523D316C
:101D70000D00000041542B434750535253543D3201
:101D80000D000000FCB50092019099421AD3C91AC7
:101D900000200C46884213D8009E019F1D46002D4E
:101DA0000ED0711C7A1C6D1E36783F78B7420E46F5
:101DB0001746F4D00199491C0191401C2146E8E7DF
:101DC000A04201D90020FCBD0120FCBD96B0FEF769
:101DD00035FBFFF7A2F9002412940127B905324818
:101DE00002680A43026002680A400892089979046E
:101DF00002680A43026002680A4008920899B9041E
:101E000002680A43026002680A4008920899F904CD
:101E100002680A430260006808400890089803209E
:101E20000603224D284631462246FEF7F2FA119467
:101E300010940F970E960EA92846FEF713FAB803D2
:101E40000EAEB0838020B0827802B0811848149022
:101E500018481290109518480F9018480E90304668
:101E600000F012FC304600F0D7FAFFF753FFFFF7FF
:101E700091FC08A812A11822FEF738F916A004A9AF
:101E80002CC82CC10088088002A804711648029052
:101E900016A417A508A8009004A802A922462B465C
:101EA00000F064F9F6E7C046141002400004004850
:101EB0000008004800140048004400400038014079
:101EC000506F736974696F6E0000000000000000BD
:101ED000000000000000000031382E3139352E326C
:101EE00032382E3339000000313838334750530030
:101EF000435F313200000000F0B5E5B0039102907D
:101F000045A862498022FEF7F1F861A0674DA84715
:101F100067A0A8477D20C600009670487049012739
:101F200005AC3A46234600F0E1F92046A84704975D
:101F300039026CA20A2320460C46FFF723FF002833
:101F40001FD105A86A4A08232146FFF71BFF002876
:101F500017D105A867A209232146FFF713FF002820
:101F60000FD105A8664A0A232146FFF70BFF002878
:101F700007D105A8634A09232146FFF703FF00287C
:101F80005FD0614800F0FEF9FFF704FC029F354680
:101F900005AE30462146FEF7C2F8029445AC204615
:101FA0003946FEF7C7F8FEF7D1F822212154201850
:101FB0000027C77081702C21417020460399FEF7DD
:101FC000B9F8FEF7C3F8201855A10322FEF78EF8E2
:101FD00054A000F0D7F900954D492046049C2246B4
:101FE000334600F083F9002804D0564800F0CAF9BF
:101FF000274623E054482D4EB0475448B04705AC1F
:102000002046B04752A20C232046029C2146FFF7EF
:10201000B9FE002812D105A8514A05232146FFF731
:10202000B1FE00280AD14F4800F0ACF900953B48BA
:102030004D4900273A463B4600F058F9384665B00E
:10204000F0BD05A8314A0E232146FFF79BFE00286C
:10205000029F0FD105A82E4A0A232146FFF792FEC0
:10206000002807D105A82B4A0F232146FFF78AFE37
:1020700000288CD0284800F085F900962748184998
:102080000022134600F032F981E7C046F02800082C
:102090004F70656E2054435020636F6E6E6563749D
:1020A000696F6E3A20535441525400008523000852
:1020B000436865636B2063757272656E7420544368
:1020C00050207374617475733A2073656E64204197
:1020D000542B43495053544154555300AC2A0008E3
:1020E000CE2D0008495020494E495449414C00002A
:1020F0007D2F0008495020434F4E464947000000BD
:102100005C2F0008522F0008D52B0008942D0008E2
:10211000C62D0008672F0008542D0008BA2A0008B1
:10212000220D0000417474656D707420746F206F0F
:1021300070656E2054435020636F6E6E65637469E2
:102140006F6E0000A32D0008242B0008BF2B000891
:10215000434F4E4E454354204641494C0000000039
:10216000552E0008162D0008BC2D0008F0B5C5B08E
:102170001D461746049103903AA000F003F9284643
:10218000FDF7E4FF064625AC3C4980222046FDF7DA
:10219000ADFF6673300A20730F2000026081304665
:1021A0000C3060700296B0B200214A9CCAB29042D4
:1021B00005D925ABD318AA5C9A73491CF6E73846B3
:1021C000FDF7C4FF00902046FDF7C0FF054605AEB1
:1021D000301D7C21FDF7A3FF0099F170080AB07053
:1021E0004819801C019070703020307088B2002136
:1021F000CAB2904205D905ABD318BA5C1A71491C12
:10220000F6E7001D0021CAB2954205D98318A25CE9
:1022100005AEF254491CF6E719A000F0B3F8029895
:102220000E30C1B225A800F0CFF81DA000F0AAF82A
:102230000198801CC1B205A800F0C6F80398049963
:10224000FFF75AFE00280AD01D481E4CA0471E4822
:10225000A0471EA0A047FFF771FA012000E0002070
:1022600045B0F0BD4D5154542070726F746F636F60
:102270006C3A205354415254000000007029000869
:102280002A2A2A434F4E4E454354207061636B65A2
:102290007420636F6E74656E743A2A2A2A000000F7
:1022A0002A2A2A5055424C495348207061636B6575
:1022B0007420636F6E74656E743A2A2A2A000000D7
:1022C000BF2F000885230008A32F000853656E6404
:1022D000696E67204D51545420444953434F4E4E2C
:1022E000454354205061636B65740000F0B5A5B0A0
:1022F000019303920C460546FDF728FF82B2A548DC
:10230000642302952946FEF771FE00252A98049061
:102310002E46002D12D1049886420FD22046FDF79A
:1023200015FF03460127390215482246FFF72AFD0B
:1023300005463846FDF786FF761CEAE705AC0F49EF
:102340002046324600F002FA20460299FDF7F2FEDE
:1023500000F018F80398012805D10120020208496D
:102360000198FDF7C3FE012001020548FDF7D7FEE5
:102370008A4800214170E8B225B0F0BDCE2A00089D
:102380002C010020FEB5044620486F4639460CC893
:102390000CC1007808703846FDF7D8FE82B27B4E3B
:1023A0006425304639462B46194FB8472046FDF77D
:1023B000CDFE82B2304621462B46B847154902224F
:1023C00030462B46B847FEBDF0B585B00191009070
:1023D0000E4802AC21460CC80CC10078087020469B
:1023E000FDF7B4FE82B2694F6426094D3846214696
:1023F0003346A84738460099019A3346A84705490D
:10240000022238463346A84705B0F0BDF82F000831
:10241000ED0F0008C72A0008F0B589B004465B48F4
:1024200000270C255A49076247624B225602C2C058
:10243000076047608560C76007610C38FEF7FCFCE9
:10244000002801D0FDF7BAFE52485349C2C00760C8
:1024500047608560C7600761476187610C38FEF798
:10246000EBFC002801D0FDF7A9FE4A484B490125A5
:102470002A46FEF76BFD08972069A18A2A46FDF7D8
:10248000C8FF07970697112002900590A08A049034
:10249000206904AE3146424A9047A189A06803955D
:1024A0002A46FDF7B6FF0797069702980590A08980
:1024B0000490A06831463A4DA847079706970597BC
:1024C000A08B0490A0693146A8477D20C600A18B4F
:1024D000A069FDF791FF002814D1022F12D8A1891D
:1024E000A0680022FDF795FF3046C830FDF7AAFE30
:1024F000A189A0680122FDF78CFF6420FDF7A2FEF0
:102500007F1CE4E727A0FFF73DFFA18BA069FDF743
:1025100073FF03990D032B4F002820D00124384668
:1025200029462246FDF775FF1A48274F03226423E8
:102530003946FEF75BFD2548FDF784FE009624A191
:10254000002538462A462B46FFF7D0FE012813D136
:102550002AA0FFF717FF31A0FFF714FF13E01D4873
:10256000FFF710FF3448FFF70DFF002438462946D7
:102570002246FDF74EFF06E01648FFF703FF16A0C0
:10258000FFF700FF2C46204609B0F0BDA800002050
:1025900000440040240000200038014020000020BA
:1025A0006502000853797374656D20696E697469FA
:1025B000616C697A6174696F6E3A205374617274E8
:1025C0006564000000040048CA2A0008B80B000037
:1025D0004F4B0000E22A0008526561736F6E3A208B
:1025E00053494D383038206973206E6F74207265FE
:1025F00073706F6E64696E670000000053797374C6
:10260000656D20696E697469616C697A6174696F5E
:102610006E3A2053554343455353000053494D38B8
:102620003038206D6F64756C652069732072657336
:10263000706F6E7369766500002B0008B0B586B0C8
:102640000CA002AC21462CC82CC100780870204692
:10265000FDF77CFD0D2121542018002242707D20C1
:10266000C0000090074920461346FFF73FFE0120B7
:1026700006B0B0BD41542B4350494E3D0000000010
:1026800000000000CE2D0008B0B504461AA0FFF7E8
:1026900079FE0025A18BA069FDF7AEFE002814D0BD
:1026A000022D12D8A189A0680022FDF7B2FE4B20AE
:1026B0000001FDF7C7FDA189A0680122FDF7A9FE71
:1026C0006420FDF7BFFD6D1CE4E7A18BA069FDF759
:1026D00093FE002804D00FA0FFF754FE002408E06A
:1026E00012A0FFF74FFE0124210317480022FDF737
:1026F00090FE2046B0BDC046506F776572206F6671
:1027000066204D6F64756C6520696E6974696174CB
:1027100065640000506F776572206F6666204D6FAC
:1027200064756C653A204641494C0000506F7765EE
:1027300072206F6666204D6F64756C653A20535544
:102740004343455353000000000400480FB410B544
:1027500004A9074B02AA039800F01CF8044602A93A
:10276000002000F0BFF8204610BC08BC04B0184799
:10277000E528000802E008C8121F08C1002AFAD1A3
:1027800070477047002001E001C1121F002AFBD1F1
:1027900070470000FFB58DB00446002506E02528EF
:1027A0000AD0109A0F999047641C6D1C207800285D
:1027B000F5D1284611B0F0BD00270121484A009705
:1027C00000E00743641C23780846203B98401042F1
:1027D000F7D120782E2817D1042007436078641C95
:1027E0002A280CD10E98641C02C800910E900BE0B0
:1027F00000990A22514330394018641C0090207817
:10280000014630390929F3D920780028D1D064282D
:1028100008D0692806D075281ED0109A0F999047C5
:102820006D1C5BE00A200E99019001C90E910028F1
:1028300002DA40422D2102E0390504D52B216A46F7
:102840001172012103E0F90704D02021F7E70BAE54
:102850000B910DE00021FAE70A200E99019001C9C1
:102860000E91F7E70199FDF778FC3031761E317053
:102870000028F7D103A8801B20300190780701D5EC
:10288000009801E0012000900199884201DD401A82
:1028900000E000200027009006E002A8109AC05D2A
:1028A0000F9990476D1C7F1C0B988742F5DB04E065
:1028B000109A30200F9990476D1C0099481E009087
:1028C0000029F5DC05E03078109A761C0F999047C6
:1028D0006D1C0199481E01900029F4DC641C65E719
:1028E000092801000A68531C0B6010707047000033
:1028F00041542B43495053544152543D2254435068
:10290000222C220000000000000000000000000057
:1029100000000000000000000000000000000000B7
:1029200000000000000000000000000000000000A7
:102930000000000000000000000000000000000097
:102940000000000000000000000000000000000087
:102950000000000000000000000000000000000077
:102960000000000000000000000000000000000067
:10297000101000044D5154540402000000000000E7
:102980000000000000000000000000000000000047
:102990000000000000000000000000000000000037
:1029A0000000000000000000000000000000000027
:1029B0000000000000000000000000000000000017
:1029C0000000000000000000000000000000000007
:1029D00000000000000000000000000000000000F7
:1029E00000000000000000000000000000000000E7
:1029F00000000000000000000102030406070809AF
:102A0000000000000102030441542B434950434C91
:102A10004F53450D0041542B4350494E3F0D00414B
:102A2000542B43534D494E533F0D0041542B4349C2
:102A30004943520D0041542B435354543F0D004120
:102A4000542B4349505354415455530D0041542B7A
:102A500043474154543F0D0041542B435245473F97
:102A60000D0041542B4353510D0041542B43465507
:102A70004E3D310D0041542B43494653520D004108
:102A8000542B43474154543D310D0041542B434690
:102A9000554E3F0D0041542B435245473D310D00EB
:102AA00041542B434950534855540D0041542B4336
:102AB00049505354415455530D0041542B434950F0
:102AC000434C4F53450D000D0A0041540D0046691B
:102AD0006E697368656420696E202564206D733AA1
:102AE000200053797374656D20696E697469616C37
:102AF000697A6174696F6E3A204641494C454400D9
:102B0000526561736F6E3A2053494D3830382063F7
:102B1000616E6E6F7420626520706F776572656498
:102B2000206F6E004F70656E2054435020636F6EAF
:102B30006E656374696F6E203A204641494C2000EF
:102B4000646566696E652050445020636F6E7465DD
:102B500078743A2073656E642041542B4353545467
:102B60003D2241504E222C22222C2222002B435364
:102B7000513A20302C0043474154543A20300052FF
:102B80006567697374657220746F206E6574776F02
:102B9000726B3A2073656E642041542B4352454753
:102BA0003D3100417474616368205044503A207391
:102BB000656E642041542B43474154543D310042DB
:102BC000756666657220636F6E74656E74206265EB
:102BD0006C6F773A005443502063616E6E6F7420BF
:102BE000626567696E206265636175736520475031
:102BF0005253206973206E6F742072656164793A54
:102C00002063616C6C20656E61626C655F677072D9
:102C10007328293B00436865636B204E6574776FAA
:102C2000726B20526567697374726174696F6E208C
:102C30005374617475733A2073656E642041542B2C
:102C4000435245473F00436865636B2069662050E7
:102C5000494E20636F6465206973207265717569E0
:102C60007265643A2073656E642041542B43504969
:102C70004E3F00436865636B2069662070686F6E25
:102C8000652066756E6374696F6E616C6974792016
:102C90006F6620746865206D6F64756C652069735C
:102CA00020656E61626C65643A2073656E642041D4
:102CB000542B4346554E3F00436865636B2069665D
:102CC00020475052532069732061747461636865B2
:102CD000643A2041542B43474154543F00436865B4
:102CE000636B2069662050445020636F6E74657872
:102CF0007420697320636F72726563746C792064E9
:102D00006566696E65643A2073656E642041542B74
:102D1000435354543F004F70656E2054435020631A
:102D20006F6E6E656374696F6E2074696D656F7523
:102D3000742E20646973636F6E6E656374696E6769
:102D40002E2073656E643A2041542B434950434C06
:102D50004F5345004F70656E2054435020636F6E93
:102D60006E656374696F6E20646574656374656411
:102D70002C207465726D696E6174696E6720697468
:102D80002E2073656E643A2041542B434950434CC6
:102D90004F53450054435020434F4E4E45435449F2
:102DA0004E47004F70656E2054435020636F6E6E27
:102DB000656374696F6E203A204F4B00434C4F534C
:102DC0004544204F4B00434F4E4E454354204F4BFC
:102DD000004163746976617465205044503A20461E
:102DE00041494C00496E7465726E657420436F6E84
:102DF0006E656374696F6E3A204641494C004765C1
:102E00007420495020616464726573733A204641AE
:102E1000494C00436865636B2047505253207369E7
:102E2000676E616C20717571616C6974793A207399
:102E3000656E642041542B4353510041637469769D
:102E4000617465205044503A73656E642041542B80
:102E500043494952004552524F5200476574204938
:102E60005020616464726573733A2073656E6420E8
:102E700041542B4349465352004950205354415426
:102E8000555300436865636B2069662050445020A9
:102E9000636F6E7465787420697320646561637410
:102EA000697661746564205B504450204445414319
:102EB000545D3A2073656E64202041542B43495081
:102EC0005354415455530020436865636B20696631
:102ED000204750525320636F6E6E656374696F6E46
:102EE0002069732072656164793A2053656E6420AD
:102EF00041542B4349505354415455530043686542
:102F0000636B2069662050445020636F6E7465784F
:102F100074206973206163746976653A2073656E05
:102F2000642041542B43495053544154555300435A
:102F30006865636B204950207374617475733A201F
:102F400073656E642041542B43495053544154558A
:102F500053005044502044454143540049502047B9
:102F600050525341435400414C524541445920432F
:102F70004F4E4E45435400434D4E4554004950205A
:102F80005354415254005B504450204445414354F3
:102F90005D2073656E64202041542B434950534893
:102FA00055540053656E64696E67204D515454202A
:102FB0005055424C495348205061636B657400532F
:102FC000656E64696E67204D51545420434F4E4ED8
:102FD000454354205061636B657400496E7465729B
:102FE0006E657420436F6E6E656374696F6E3A2010
:102FF00052656164790000004465627567203E2077
:1030000000000000222C22222C22220D00000000B1
:103010003030000800000020200000007427000865
:10302000503000082000002010060000842700080F
:10303000010000000400000000127A0041542B43FC
:103040005354543D22000000000000000000000026
:04000005080000BD32
:00000001FF
