:020000040800F2
:1000000020050020D1000008E50D0008B90D00080A
:1000100000000000000000000000000000000000E0
:10002000000000000000000000000000E90D0008D2
:100030000000000000000000E70D0008EB0D0008C4
:10004000E3000008E3000008E3000008E300000804
:10005000E3000008E3000008E3000008E3000008F4
:10006000E3000008E3000008E3000008E3000008E4
:10007000E3000008E3000008E3000008E3000008D4
:10008000E3000008E300000800000000E3000008AF
:10009000E3000008E3000008E3000008E3000008B4
:1000A000E3000008E3000008E3000008D10E0008A8
:1000B000E10E000800000000E30000080348854648
:1000C00000F058F800480047B5100008200500204F
:1000D0000448804704480047FEE7FEE7FEE7FEE7E6
:1000E000FEE7FEE75F0E0008BD00000803460B4375
:1000F0009B0703D009E008C9121F08C0042AFAD2DE
:1001000003E00B780370401C491C521EF9D2704763
:10011000D2B201E00270401C491EFBD2704700229F
:10012000F6E710B513460A4604461946FFF7F0FFF6
:10013000204610BD70B50446002903D000202022BF
:10014000012310E0002801D00020C043C046C04673
:100150000DE02546D5408D4205D30D469540641BE4
:100160001D46954040191546521E002DF1DC2146D2
:1001700070BD0000064C0125064E05E0E36807CC83
:100180002B430C3C98471034B442F7D3FFF79AFF47
:10019000341500085415000810B52121425C0146B1
:1001A0002031022A10D1026813680E24A343136081
:1001B00013680124A3431360C26B006C2346834081
:1001C00053604C70002002E0042282630120002270
:1001D0000A7010BDB0B52121415C022917D101463A
:1001E0002031026813680E24A343136013680125AD
:1001F000AB431360C26B036C2C469C4054600024DC
:100200000C704D70416B002904D0884702E0042136
:10021000816301242046B0BDF0B588B007465E4832
:10022000874201D0052000E00320009000220692C2
:10023000144605970E683046E04000D1AAE001253B
:100240000295A5402E4000D19EE0049403924A6896
:10025000032314461C40601E01281AD80323019270
:10026000069A9340B8689843CF689740074305982B
:1002700087600198C006C00F049A9040059F7F6870
:10028000AF43074305984760059FD8435500019A3F
:1002900008E01846069DA840C043032C02D1069DE5
:1002A0001C461CE0FB6803408F68AF401F43059B62
:1002B000DF60059F022C12D11C22039B1A400F23E2
:1002C0009340049CE408A4003C19276A9F430B69EF
:1002D00093403B43059F23624A6803241440AC408B
:1002E0003B68034023433B609003800F039A049CC8
:1002F0004AD05E4B1868029D284318601868284051
:10030000079023460C2414400F20A040032293435F
:10031000079A234D5A5982435B190920C006874228
:1003200008D02048874207D01F488742009804D150
:10033000022002E0002000E00298A0401043186074
:10034000164800684B68DA0301D5304300E0B0433B
:10035000049C124A106050689A0301D5304300E0B3
:10036000B0430E4A50609068DA0201D5304300E095
:10037000B0430A4A9060D0689A0201D5304300E049
:10038000B043039A054BD860121D0698801C069056
:10039000641C4FE708B0F0BD000C004800040140A9
:1003A00008000140000400480008004842690B466C
:1003B00093430A401104C91881617047002A01D093
:1003C000182200E02822815070470000054800688C
:1003D0007047C0461A48007802490A681018086039
:1003E0007047C0461801002080B5A348016810225C
:1003F0000A430260032000F005F800F023F8002013
:1004000080BDC04670B504467D20C0000C4E3178DA
:10041000FFF790FE01469B480068FFF78BFE00F057
:1004200053FB0125032C08D8002806D10025E843FA
:1004300021462A4600F01CF87460284670BDC0466C
:100440000000002082B009480168012211430160C8
:100450000168114001910199110742680A43426005
:10046000406808400090009802B0704718100240A1
:1004700080B500F03DFD80BDF0B585B004468078C4
:10048000C0073C4B4AD00120039001071868084080
:10049000029006D118680843186018680840049054
:1004A00004980191344E3068C00511D403980702B6
:1004B000306838433060FFF789FF054630683842BE
:1004C00006D1FFF783FF401B6428F7D903253FE0DF
:1004D00003252802274B5968014012D06268024068
:1004E00091420ED00398000459685A6802435A603A
:1004F0005A6882435A600846204A10405860C8072C
:1005000029D158681D490840616801435960029823
:10051000002803D118680199884318602068C10732
:1005200005D0596903229143A2680A435A618106A2
:1005300005D5596910229143E2680A435A610025A2
:10054000400505D558694021884321690143596117
:10055000284605B0F0BDFFF739FF0646474F054B6B
:1005600058688007CDD4FFF731FF801BB842F6D919
:10057000EEE7C0461C10024000700040FFFCFFFF89
:10058000F8B500284CD004463B4A136801200340CC
:100590008B4208D213680126B3430B4313601268E1
:1005A00032408A4266D1009121688A070ED54A07F7
:1005B00005D507221202424D2B6813432B60404D94
:1005C0002A68F0239A43A36813432B60C90729D1F3
:1005D0002949086801263040009A904205D90868E8
:1005E000B04308600868C00744D12078400707D5A9
:1005F00007200002324A11688143E0680843106016
:1006000000F042F82E4909680906090F1C4A515C9E
:10061000C8401C4908600320FFF7F4FE002629E0CB
:10062000012627E06168264A121F022904D0012909
:1006300005D11268920304E01268920101E0126889
:100640009207064616D51E4A10680326B043084393
:100650001060FFF7BBFE0746084D194800680C21E3
:100660000140606880008142B2D0FFF7AFFEC01B3E
:10067000A842F2D93046F8BD00200240881300009D
:10068000241200080800002010B50D490A680C2348
:1006900013400C48082B08D193021B0F0AA4E45CFA
:1006A000896AD20303D4104807E0044606E00F220B
:1006B000114009A2515CFFF73DFD4443204610BDA7
:1006C0000410024000127A0002030405060708091C
:1006D0000A0B0C0D0E0F101001020304050607088B
:1006E000090A0B0C0D0E0F1000093D00F0B587B084
:1006F00004460120002C00D1BCE104902078C00702
:10070000EE4E059426D071680C20014004291AD0C1
:1007100071680140082902D17068C00313D4616870
:1007200001204704002900D178E1052900D18CE19E
:10073000012900D18DE1010432688A4332608104CD
:100740003068884388E13068800303D560680028FA
:1007500000D1B5E0207880071AD570680007800FB7
:1007600007D070680C210140082971D17068C0035E
:100770006ED430688007059C03D5E068012800D05E
:100780009EE03068F82188432169C9000143316047
:10079000059C2078000724D42078400734D42078A2
:1007A000C00600D4ABE005984069411D00D19AE035
:1007B000012800D0EAE0706B042101437163706B83
:1007C000012101437163FFF701FE0546706B80074D
:1007D00000D58CE0FFF7FAFD411B03200229F5D973
:1007E00048E1706AE16900295AD00121084370622A
:1007F000FFF7ECFD0546706A8007CDD4FFF7E6FDF4
:10080000401B0228F7D934E1012003900107F06969
:100810000840029006D1F0690843F061F069084091
:10082000069006980191A64F3868C00524D4039815
:100830000402386820433860FFF7C8FD0546386871
:10084000204219D1FFF7C2FD401B6428F7D910E1FF
:100850003068059CE168002934D0012108433060EC
:10086000FFF7B4FD0546306880078AD4FFF7AEFD78
:10087000401B0228F7D9FCE005988068914F0028BA
:1008800000D198E0052800D1AAE0012800D1ABE012
:10089000306A039988433062306A04218843A6E0B5
:1008A000012188437062FFF791FD0546706A800759
:1008B00000D471E7FFF78AFD401B0228F6D9D8E083
:1008C0000498D7E0012188433060FFF77FFD05469B
:1008D0003068800700D45BE7FFF778FD411B0320F9
:1008E0000229F5D9C6E0706B042188437063706BF0
:1008F000F821884305998969C90001437163059806
:10090000046A002C1ED070680C21014008291BD1FC
:10091000012C049800D1ADE00120030471680B4064
:10092000F26A059D6C6AA34200D0A3E00F231A402F
:10093000EC6AA24200D09DE09A041140AA6A91425A
:1009400000D097E0002095E0012002063168049273
:10095000914331604706FFF739FD0546022C0BD164
:10096000049C3068384200D186E0FFF72FFD411B20
:1009700003200229F5D97DE030683842E2D0FFF744
:1009800025FD411B03200229F6D973E0706B042179
:1009900001437163706B012188437063FFF716FD9B
:1009A0000546706B8007AAD5FFF710FD411B032099
:1009B0000229F6D95EE0306A039988433062306AD2
:1009C000042188433062FFF701FD0546306A800745
:1009D0001AD5FFF7FBFC411B0320B942F6D949E0C9
:1009E000306A042101433162306A0399084330625E
:1009F000FFF7ECFC0546306A800705D4FFF7E6FCFC
:100A0000401BB842F7D934E002980028059C00D07A
:100A1000C5E6F06901998843F061C0E601043268D7
:100A20008A4332608004316881433160FFF7CEFC35
:100A30000546059C3068384200D18BE6FFF7C6FCBE
:100A4000411B03206429F5D914E0810432680A436C
:100A500032600104306808433060FFF7B7FC054698
:100A60003068384200D075E6FFF7B0FC401B6428C0
:100A7000F6D9032007B0F0BDF06A0F218843059A2C
:100A8000D16A0143F1623D20000471688143906A9C
:100A90000843516A01437160306820433060FFF7BA
:100AA00095FC04463068384200D04BE7FFF78EFCD7
:100AB000011B03200229F5D9DCE7C04600100240E3
:100AC0000070004088130000401E010E01D001207C
:100AD00070470749074A5060074803680B400321E5
:100AE0008907591801600020906007211160704744
:100AF000FFFFFF0010E000E020ED00E070477047CE
:100B000070470000FEB505460068C2690768019598
:100B1000583584680126F30219460F310A420297BC
:100B200062D0A149394027463740791861D0D107B2
:100B300006D00299C90503D50662A96A3143A962A4
:100B400002241146009421404C424C4179427941A3
:100B5000214305D100990162A96A04240C43AC62C7
:100B60007C427C415107314600D52146002905D100
:100B700004210162A96A009C2143A96211070CD5D6
:100B8000791E8F410299890600D43E46012E04D178
:100B900008210162AC6A0C43AC621A4207D0029988
:100BA000490104D50362A96A20230B43AB62A96AF9
:100BB0000029019E47D0910608D50299890605D5DE
:100BC000716E002902D0304688473068A96A282211
:100BD0000A4080684024204080183BD13046FFF70F
:100BE0008FFF0020A862FEBD910602D502998906FA
:100BF00053D4019F396E012904D1D10602D502993F
:100C0000C90650D40123D10201D561021CD41006BB
:100C100002D5029800063BD4500614D5029840062F
:100C200011D5EFF3108083F3108839680A684023E8
:100C30009A430A6080F310880020B8662020B867C5
:100C4000384600F0B7F8FEBD190501623846FFF7D7
:100C500056FFFEBD304600F00EF930688068400651
:100C600055D5EFF31080012181F3108831688A682F
:100C7000A2438A6080F31088306F002847D04B4928
:100C80004163FFF7A7FA0028DDD0306F416B08E021
:100C9000B96E0029D7D0384603E00198416E00298B
:100CA000D1D08847FEBD102101628068400632D451
:100CB00068882A886B88002BC5D0101A0204C2D01D
:100CC000EFF31083012282F31088092464013D6848
:100CD0002E68A6432E6083F31088EFF3108382F30F
:100CE00010883C68A5689543A56083F3108820238D
:100CF000FB6700237B663B66EFF3108382F310886B
:100D00003A6814688C43146083F3108846E03046D8
:100D1000FFF7F6FEFEBD3A6F106843689CB2002CE8
:100D200091D0288884428ED26B809269202A33D059
:100D3000EFF31082012080F310881D4B20333C68B4
:100D400026681E40266082F31088EFF3108280F33D
:100D500010883B689C6884439C6082F31088EFF3A2
:100D6000108280F310883B689C684026B4439C60E6
:100D700082F310882022FA6700223A66EFF310828D
:100D800080F31088386803688B43036082F310880F
:100D9000386FFFF701FA28886988401A81B238460F
:100DA000FFF7ACFEFEBDC04620010004610E000846
:100DB000DFFEFFFF7047000001267403E14D284667
:100DC0002146FFF7F3FA360328463146FFF7EEFADD
:100DD00028462146FFF7EAFA28463146FFF7E6FAA9
:100DE000F6E7C046FEE77047704780B5FFF7F2FAB6
:100DF00080BD70B596B00AAD284608302821FFF7AF
:100E00008EF90024129401260B960A9605940494F8
:100E1000039402942846FFF769FC002803D0EFF3FF
:100E2000108072B6FEE70994089407960720069092
:100E300006A82146FFF7A4FB002803D0EFF310809B
:100E400072B6FEE70394019601A8FFF715FB002890
:100E500003D0EFF3108072B6FEE716B070BD704796
:100E600080B5406A0146523100220A815221425225
:100E7000FFF746FE80BDB0B5EFF31082012181F38C
:100E8000108809235B01046825689D43256082F36F
:100E90001088EFF3108281F3108803689C688C43FC
:100EA0009C6082F31088026E012A0AD1EFF310824F
:100EB00081F3108801680B681024A3430B6082F350
:100EC00010882021C167002141660166B0BD000085
:100ED00080B50248FFF716FE80BDC0461000002016
:100EE00080B50248FFF70EFE80BDC046940000208A
:100EF000002805D40322034693430C4A9A1806E0BF
:100F00000F220240083A03239A43074BD218800766
:100F1000C00E8901C9B28140FF2383401068984305
:100F2000084310607047C0461CED00E000E400E09C
:100F3000012909D0032903D0022904D1044900E082
:100F40000249085C704700207047C046341300080F
:100F500034120008F8B50C4605460020102805D0CC
:100F6000295C225C4A402A54401CF7E700204D4F80
:100F7000C6B2092E20D800900020102804D0295C89
:100F8000795C2954401CF8E7284600F023F9092E23
:100F900002D0284600F0E8F82046314600F00EF86E
:100FA0000020102805D0295C225C4A402A54401CAD
:100FB000F7E70098401CDBE7F8BDC046F0B587B006
:100FC000044600780006627812041018A278120213
:100FD0008018E27880180290207B0006627B120461
:100FE0001018A27B12028018E27B8518E07A069026
:100FF000A07A0590607A0490207A0390E0790190BD
:10100000A079009067792679284600F035F8029992
:101010004840E07031063A045118009A12028918CB
:10102000019A89184140E171020AA270020C6270B3
:10103000000E207003980006049A12041018059AF6
:1010400012028018069A80184840E0720A0AA271BB
:101050000A0C6271090E21714540E573010AA17203
:10106000010C6172000E2072280AA073280C6073B4
:10107000280E207307B0F0BD10B5020E094B9A5C24
:10108000040AE4B21C5D2404A218C4B21C5D24024C
:10109000121905A4615C000CC0B2185C484000063F
:1010A000801810BD3414000801020408102040808C
:1010B0001B3600008AB0FFF797F9FFF79AFE00246D
:1010C00009940127B9051E4802680A4302600268B4
:1010D0000A4001920199790402680A430260026899
:1010E0000A4001920199B90402680A430260026849
:1010F0000A4001920199F90402680A4302600068FB
:10110000084001900198032005030E4E3046294601
:101110002246FFF753F9089407940697059505A909
:101120003046FFF779F808A005A90A4678C878C2C2
:1011300009A201A80346F0CAF0C3FFF70BFFFEE7C0
:1011400014100240000400482B7E151628AED2A6CB
:10115000ABF7158809CF4F3C3243F6A8885A308D3B
:10116000313198A2E0370734F0B589B00190002200
:1011700014A6042A1ED00020019C0292042816D036
:1011800004908000039000252F46042D06D0715D49
:10119000605DFFF7CDFE47406D1CF6E7029A0398AD
:1011A000801805A90F54241D0498401CE6E7361D3D
:1011B000521CDEE705A910220198FEF797FF09B03F
:1011C000F0BDC04602030101010203010101020357
:1011D00003010102417842794270427A437B4372B3
:1011E000427141738178827A82708279837B8371C4
:1011F00081728273C17BC27AC273C279C272C278B1
:10120000C271C170704702E008C8121F08C1002AED
:10121000FAD170477047002001E001C1121F002A77
:10122000FBD1704700000000000000000102030431
:101230000607080900020406080A0C0E101214160C
:10124000181A1C1E20222426282A2C2E303234362E
:10125000383A3C3E40424446484A4C4E505254561E
:10126000585A5C5E60626466686A6C6E707274760E
:10127000787A7C7E80828486888A8C8E90929496FE
:10128000989A9C9EA0A2A4A6A8AAACAEB0B2B4B6EE
:10129000B8BABCBEC0C2C4C6C8CACCCED0D2D4D6DE
:1012A000D8DADCDEE0E2E4E6E8EAECEEF0F2F4F6CE
:1012B000F8FAFCFE1B191F1D131117150B090F0D52
:1012C000030107053B393F3D333137352B292F2D9E
:1012D000232127255B595F5D535157554B494F4D8E
:1012E000434147457B797F7D737177756B696F6D7E
:1012F000636167659B999F9D939197958B898F8D6E
:1013000083818785BBB9BFBDB3B1B7B5ABA9AFAD5D
:10131000A3A1A7A5DBD9DFDDD3D1D7D5CBC9CFCD4D
:10132000C3C1C7C5FBF9FFFDF3F1F7F5EBE9EFED3D
:10133000E3E1E7E5000306050C0F0A09181B1E1D73
:1013400014171211303336353C3F3A39282B2E2DE5
:1013500024272221606366656C6F6A69787B7E7DD5
:1013600074777271505356555C5F5A59484B4E4DC5
:1013700044474241C0C3C6C5CCCFCAC9D8DBDEDDB5
:10138000D4D7D2D1F0F3F6F5FCFFFAF9E8EBEEEDA5
:10139000E4E7E2E1A0A3A6A5ACAFAAA9B8BBBEBD95
:1013A000B4B7B2B1909396959C9F9A99888B8E8D85
:1013B000848782819B989D9E979491928380858655
:1013C0008F8C898AABA8ADAEA7A4A1A2B3B0B5B6E5
:1013D000BFBCB9BAFBF8FDFEF7F4F1F2E3E0E5E6D5
:1013E000EFECE9EACBC8CDCEC7C4C1C2D3D0D5D6C5
:1013F000DFDCD9DA5B585D5E5754515243404546B5
:101400004F4C494A6B686D6E6764616273707576A4
:101410007F7C797A3B383D3E373431322320252694
:101420002F2C292A0B080D0E070401021310151684
:101430001F1C191A637C777BF26B6FC53001672B19
:10144000FED7AB76CA82C97DFA5947F0ADD4A2AFB8
:101450009CA472C0B7FD9326363FF7CC34A5E5F1C6
:1014600071D8311504C723C31896059A071280E274
:10147000EB27B27509832C1A1B6E5AA0523BD6B3C8
:1014800029E32F8453D100ED20FCB15B6ACBBE3938
:101490004A4C58CFD0EFAAFB434D338545F9027F24
:1014A000503C9FA851A3408F929D38F5BCB6DA21DD
:1014B00010FFF3D2CD0C13EC5F974417C4A77E3D09
:1014C000645D197360814FDC222A908846EEB8145F
:1014D000DE5E0BDBE0323A0A4906245CC2D3AC6222
:1014E0009195E479E7C8376D8DD54EA96C56F4EA2D
:1014F000657AAE08BA78252E1CA6B4C6E8DD741F3E
:101500004BBD8B8A703EB5664803F60E613557B900
:1015100086C11D9EE1F8981169D98E949B1E87E9BA
:10152000CE5528DF8CA1890DBFE6426841992D0F69
:10153000B054BB1658150008000000201000000031
:1015400006120008681500081000002010050000B1
:101550001612000800000000010000000400000056
:0815600000127A0000000000F7
:04000005080000BD32
:00000001FF
