:020000040800F2
:1000000050060020D100000809110008F91000086E
:1000100000000000000000000000000000000000E0
:100020000000000000000000000000000D110008AA
:1000300000000000000000000B1100080F11000874
:10004000E3000008E3000008E3000008E300000804
:10005000E3000008E3000008E3000008E3000008F4
:10006000E3000008E3000008E3000008E3000008E4
:10007000E3000008E3000008E3000008E3000008D4
:10008000E3000008E300000800000000E3000008AF
:10009000E3000008E3000008E3000008E3000008B4
:1000A000E3000008E3000008E3000008D916000898
:1000B000E916000800000000E30000080348854638
:1000C00000F07EF800480047AD1A000850060020F6
:1000D0000448804704480047FEE7FEE7FEE7FEE7E6
:1000E000FEE7FEE783110008BD00000803460B434E
:1000F0009B0703D009E008C9121F08C0042AFAD2DE
:1001000003E00B780370401C491C521EF9D2704763
:10011000D2B201E00270401C491EFBD2704700229F
:10012000F6E710B513460A4604461946FFF7F0FFF6
:10013000204610BD421E5378521C002BFBD10B7879
:100140001370491C521C002BF9D1704730B505467D
:100150002A460B4610781C78521C5B1C002801D0E4
:10016000A042F7D0002C03D0002802D06D1CEFE78E
:10017000284630BD421C0178401C0029FBD1801A62
:10018000704770B50446002903D0002020220123C7
:1001900010E0002801D00020C043C046C0460DE05A
:1001A0002546D5408D4205D30D469540641B1D461E
:1001B000954040191546521E002DF1DC214670BDB8
:1001C000064C0125064E05E0E36807CC2B430C3CAA
:1001D00098471034B442F7D3FFF774FFE0230008C8
:1001E00000240008EFF3108072B6FEE710B521215D
:1001F000425C01462031022A10D1026813680E24A5
:10020000A343136013680124A3431360C26B006C03
:100210002346834053604C70002002E00422826336
:10022000012000220A7010BDB0B52121415C0229D5
:1002300017D101462031026813680E24A3431360CE
:1002400013680125AB431360C26B036C2C469C40C2
:10025000546000240C704D70416B002904D0884715
:1002600002E00421816301242046B0BDB0B50446FC
:1002700000F0E2F80546601C02D08C4800780419B2
:1002800000F0DAF8401BA042FAD3B0BDF0B588B058
:1002900007465E48874201D0052000E00320009019
:1002A00000220692144605970E683046E04000D1C1
:1002B000AAE001250295A5402E4000D19EE00494BD
:1002C00003924A68032314461C40601E01281AD872
:1002D00003230192069A9340B8689843CF689740E9
:1002E0000743059887600198C006C00F049A9040A4
:1002F000059F7F68AF43074305984760059FD84334
:100300005500019A08E01846069DA840C043032CFA
:1003100002D1069D1C461CE0FB6803408F68AF407D
:100320001F43059BDF60059F022C12D11C22039BFB
:100330001A400F239340049CE408A4003C19276A48
:100340009F430B6993403B43059F23624A68032404
:100350001440AC403B68034023433B609003800F54
:10036000039A049C4AD05C4B1868029D284318608D
:1003700018682840079023460C2414400F20A04002
:1003800003229343079A234D5A5982435B1909204C
:10039000C006874208D02048874207D01F488742BE
:1003A000009804D1022002E0002000E00298A04062
:1003B00010431860164800684B68DA0301D53043D3
:1003C00000E0B043049C124A106050689A0301D5C3
:1003D000304300E0B0430E4A50609068DA0201D525
:1003E000304300E0B0430A4A9060D0689A0201D5D9
:1003F000304300E0B043039A054BD860121D0698C5
:10040000801C0690641C4FE708B0F0BD000C00484B
:1004100000040140080001400004004800080048B2
:1004200000690840411E88417047002A01D0182207
:1004300000E0282281507047054800687047C04698
:100440001A48007802490A68101808607047C046C8
:100450004C02002080B5A948016810220A430260BE
:10046000032000F005F800F023F8002080BDC0460E
:1004700070B504467D20C0000C4E3178FFF781FE38
:100480000146A6480068FFF77CFE00F06BFB0125E3
:10049000032C08D8002806D10025E84321462A4627
:1004A00000F028F87460284670BDC04600000020A7
:1004B00082B00948016801221143016001681140BE
:1004C00001910199110742680A434260406808405F
:1004D0000090009802B0704718100240002805D420
:1004E0001F21084001218140014801607047C0463A
:1004F00000E100E080B501F0FFF880BDF0B585B007
:1005000004468078C0073C4B4AD001200390010785
:1005100018680840029006D11868084318601868E7
:100520000840049004980191344E3068C00511D4FD
:1005300003980702306838433060FFF77DFF0546B7
:100540003068384206D1FFF777FF401B6428F7D99F
:1005500003253FE003252802274B5968014012D0AC
:100560006268024091420ED00398000459685A68AC
:1005700002435A605A6882435A600846204A104033
:100580005860C80729D158681D490840616801436F
:1005900059600298002803D11868019988431860AF
:1005A0002068C10705D0596903229143A2680A4314
:1005B0005A61810605D5596910229143E2680A43C0
:1005C0005A610025400505D55869402188432169B5
:1005D00001435961284605B0F0BDFFF72DFF0646DF
:1005E000474F054B58688007CDD4FFF725FF801B88
:1005F000B842F6D9EEE7C0461C1002400070004039
:10060000FFFCFFFFF8B500284CD004463B4A1368B6
:10061000012003408B4208D213680126B3430B43E9
:100620001360126832408A4266D1009121688A07BD
:100630000ED54A0705D507221202484D2B681343F1
:100640002B60464D2A68F0239A43A36813432B601E
:10065000C90729D12949086801263040009A9042EB
:1006600005D90868B04308600868C00744D12078FD
:10067000400707D507200002384A11688143E06827
:100680000843106000F04EF8344909680906090F64
:100690001C4A515CC840214908600320FFF7E8FE6E
:1006A000002629E0012627E061682C4A121F022952
:1006B00004D0012905D11268920304E01268920166
:1006C00001E012689207064616D5244A10680326F0
:1006D000B04308431060FFF7AFFE0746084D1F48C0
:1006E00000680C210140606880008142B2D0FFF7B1
:1006F000A3FEC01BA842F2D93046F8BD002002403C
:1007000088130000CC2200080448006813490968D7
:100710004905490F024A515CC84070470800002053
:10072000DC22000810B50D490A680C2313400C4860
:10073000082B08D193021B0F0AA4E45C896AD20338
:1007400003D4104807E0044606E00F22114009A236
:10075000515CFFF716FD4443204610BD04100240D3
:1007600000127A0002030405060708090A0B0C0DA3
:100770000E0F10100102030405060708090A0B0CEE
:100780000D0E0F1000093D00F0B587B004460120A2
:10079000002C00D1BCE104902078C007EE4E0594F7
:1007A00026D071680C20014004291AD071680140DC
:1007B000082902D17068C00313D46168012047047E
:1007C000002900D178E1052900D18CE1012900D16F
:1007D0008DE1010432688A433260810430688843C5
:1007E00088E13068800303D56068002800D1B5E057
:1007F000207880071AD570680007800F07D07068CE
:100800000C210140082971D17068C0036ED4306892
:100810008007059C03D5E068012800D09EE0306881
:10082000F82188432169C90001433160059C207883
:10083000000724D42078400734D42078C00600D4A0
:10084000ABE005984069411D00D19AE0012800D035
:10085000EAE0706B042101437163706B0121014375
:100860007163FFF7E9FD0546706B800700D58CE0EA
:10087000FFF7E2FD411B03200229F5D948E1706A28
:10088000E16900295AD0012108437062FFF7D4FDC5
:100890000546706A8007CDD4FFF7CEFD401B0228C5
:1008A000F7D934E1012003900107F0690840029074
:1008B00006D1F0690843F061F06908400690069897
:1008C0000191A64F3868C00524D403980402386803
:1008D00020433860FFF7B0FD05463868204219D143
:1008E000FFF7AAFD401B6428F7D910E13068059C8A
:1008F000E168002934D0012108433060FFF79CFDF6
:100900000546306880078AD4FFF796FD401B022811
:10091000F7D9FCE005988068914F002800D198E055
:10092000052800D1AAE0012800D1ABE0306A039984
:1009300088433062306A04218843A6E0012188435D
:100940007062FFF779FD0546706A800700D471E791
:10095000FFF772FD401B0228F6D9D8E00498D7E0D3
:10096000012188433060FFF767FD05463068800746
:1009700000D45BE7FFF760FD411B03200229F5D996
:10098000C6E0706B042188437063706BF821884364
:1009900005998969C900014371630598046A002CAF
:1009A0001ED070680C21014008291BD1012C04982D
:1009B00000D1ADE00120030471680B40F26A059D8F
:1009C0006C6AA34200D0A3E00F231A40EC6AA24253
:1009D00000D09DE09A041140AA6A914200D097E0AD
:1009E000002095E0012002063168049291433160B5
:1009F0004706FFF721FD0546022C0BD1049C306809
:100A0000384200D186E0FFF717FD411B0320022981
:100A1000F5D97DE030683842E2D0FFF70DFD411B8B
:100A200003200229F6D973E0706B0421014371633E
:100A3000706B012188437063FFF7FEFC0546706B05
:100A40008007AAD5FFF7F8FC411B03200229F6D93D
:100A50005EE0306A039988433062306A042188433B
:100A60003062FFF7E9FC0546306A80071AD5FFF7C8
:100A7000E3FC411B0320B942F6D949E0306A042166
:100A800001433162306A039908433062FFF7D4FCB6
:100A90000546306A800705D4FFF7CEFC401BB842FC
:100AA000F7D934E002980028059C00D0C5E6F0692B
:100AB00001998843F061C0E6010432688A433260DC
:100AC0008004316881433160FFF7B6FC0546059C20
:100AD0003068384200D18BE6FFF7AEFC411B0320A3
:100AE0006429F5D914E0810432680A4332600104B4
:100AF000306808433060FFF79FFC05463068384295
:100B000000D075E6FFF798FC401B6428F6D9032057
:100B100007B0F0BDF06A0F218843059AD16A0143FE
:100B2000F1623D20000471688143906A0843516A74
:100B300001437160306820433060FFF77DFC04465C
:100B40003068384200D04BE7FFF776FC011B0320EA
:100B50000229F5D9DCE7C0460010024000700040D1
:100B600088130000401E010E01D001207047074984
:100B7000074A5060074803680B400321890759184A
:100B8000016000209060072111607047FFFFFF00A7
:100B900010E000E020ED00E0704770477047000073
:100BA000FEB505460068C269076801955835846836
:100BB0000126F30219460F310A42029762D0A14979
:100BC000394027463740791861D0D10706D00299BD
:100BD000C90503D50662A96A3143A96202241146F8
:100BE000009421404C424C4179427941214305D146
:100BF00000990162A96A04240C43AC627C427C41E6
:100C00005107314600D52146002905D10421016252
:100C1000A96A009C2143A96211070CD5791E8F4156
:100C20000299890600D43E46012E04D108210162B2
:100C3000AC6A0C43AC621A4207D00299490104D550
:100C40000362A96A20230B43AB62A96A0029019EB3
:100C500047D0910608D50299890605D5716E0029FD
:100C600002D0304688473068A96A28220A40806846
:100C70004024204080183BD13046FFF78FFF0020F2
:100C8000A862FEBD910602D50299890653D4019F40
:100C9000396E012904D1D10602D50299C90650D472
:100CA0000123D10201D561021CD4100602D502989D
:100CB00000063BD4500614D50298400611D5EFF338
:100CC000108083F3108839680A6840239A430A60C9
:100CD00080F310880020B8662020B867384600F0FE
:100CE00009FAFEBD190501623846FFF756FFFEBD41
:100CF000304600F0E2FA30688068400655D5EFF3E0
:100D00001080012181F3108831688A68A2438A60CB
:100D100080F31088306F002847D04B494163FFF7BC
:100D200083FA0028DDD0306F416B08E0B96E0029EE
:100D3000D7D0384603E00198416E0029D1D08847CA
:100D4000FEBD102101628068400632D468882A887E
:100D50006B88002BC5D0101A0204C2D0EFF31083A9
:100D6000012282F31088092464013D682E68A6439D
:100D70002E6083F31088EFF3108382F310883C68B1
:100D8000A5689543A56083F310882023FB670023A3
:100D90007B663B66EFF3108382F310883A68146831
:100DA0008C43146083F3108846E03046FFF7F6FE6C
:100DB000FEBD3A6F106843689CB2002C91D0288821
:100DC00084428ED26B809269202A33D0EFF3108256
:100DD000012080F310881D4B20333C6826681E409C
:100DE000266082F31088EFF3108280F310883B684E
:100DF0009C6884439C6082F31088EFF3108280F338
:100E000010883B689C684026B4439C6082F310883D
:100E10002022FA6700223A66EFF3108280F31088EE
:100E2000386803688B43036082F31088386FFFF7DC
:100E3000DDF928886988401A81B23846FFF7ACFE90
:100E4000FEBDC04620010004A5120008DFFEFFFF22
:100E5000B0B500282ED00446806F002805D174203C
:100E600000212154204600F029F82420A0672068A2
:100E700001680125A9430160204600F0EDFA012830
:100E800019D0606A002802D0204600F07BF90920C2
:100E9000C00221684A6882434A6088682A229043D7
:100EA00088600868012202430A60204600F0C6F903
:100EB000054600E001252846B0BD0000B0B586B06B
:100EC000044601A81421FFF72AF920682349884223
:100ED00019D0494988423FD101208103204A5368F3
:100EE0000B43536053680B40009300994004116812
:100EF00001431160116801400091032040020190FC
:100F000000981B2413E00120400415498A6802431D
:100F10008A608A6802400092009A0A6802430A6066
:100F20000968014000910C20019000981C240120C8
:100F300005900320049000250395022002900920CB
:100F4000C00601A9FFF7A2F9204629462A46FFF765
:100F5000D1FA2046FFF7C2FA06B0B0BD0044004007
:100F600014100240F8B5C36F0225202B2AD10124AA
:100F7000002928D0002A26D001231C038668A64217
:100F800004D10469002C01D1CC071ED17424045D66
:100F9000012C2C4617D005467435002404662B70AE
:100FA00005686D682D020AD5EFF3108583F310886C
:100FB0009B06066837681F43376085F3108800F08A
:100FC000D9FA00E02C462046F8BD1C46FBE700009D
:100FD00080B500680849884200D080BD0748417844
:100FE0000278531C0370064B9954411C054801229A
:100FF000FFF7B8FF80BDC046003801402000002048
:101000004C01002024000020F0B587B0069307466D
:10101000836F0220202B2FD1012500292DD0002AFB
:101020002BD001231D03BC68AC4204D13C69002CC9
:1010300001D1CC0724D103953E4674363478012C77
:1010400005461AD0049101923C4650340025F560C3
:10105000029633702120B867FFF7EEF905900198EA
:1010600060802080B8680399884202D138690028DE
:1010700008D0049E049506E00546284607B0F0BD5A
:101080001D46FAE7002602980570608800281ED0E9
:10109000069800908021002538462A46059B00F0DE
:1010A000B5FA00281ED1002E04D0307839680885A2
:1010B000761C08E0049A10880D49084039680885B4
:1010C000921C04922E466088401E6080DDE70698E0
:1010D00000904021002538462A46059B00F096FAEC
:1010E000002801D00325C8E72020B867C5E7C0461F
:1010F000FF01000070470000012211030148FFF7C3
:1011000094F9FEE700040048FEE77047704780B599
:10111000FFF796F980BD70B596B00AAD2846083045
:101120002821FEF7FCFF0024129401260B960A9654
:1011300005940494039402942846FFF725FB0028A5
:1011400003D0EFF3108072B6FEE709940894079677
:101150000720069006A82146FFF754FA002803D07E
:10116000EFF3108072B6FEE70394019601A8FFF733
:10117000C5F9002803D0EFF3108072B6FEE716B071
:1011800070BD7047B0B5416ACA0707D0012252044A
:1011900003685C689443826A22435A608A0707D5D1
:1011A0000122120403685C689443C26A22435A60B5
:1011B0004A0707D50122920403685C689443026BD6
:1011C00022435A600A0707D50122D20303685C68EC
:1011D0009443426B22435A60CA0607D50122120388
:1011E00003689C689443826B22439A608A0607D501
:1011F0000122520303689C689443C26B22439A60A5
:101200004A0610D501221305026854689C43056CF8
:101210002C4354609D4206D103235B0554689C43D4
:10122000436C23435360090607D50121C9040268B2
:1012300053688B43806C18435060B0BD7CB5054645
:10124000802000242C50FFF7F7F806462868016834
:1012500009070BD5124800900120410500222846BD
:10126000334600F0D3F900280ED128680068400703
:101270000CD50B48009001208105002228463346FA
:1012800000F0C4F9002801D0032406E02846743099
:101290002021A967E96704702C6620467CBDC04602
:1012A000FFFFFF0180B5406A0146523100220A81EA
:1012B00052214252FFF772FC80BDB0B5EFF31082AD
:1012C000012181F3108809235B01046825689D438F
:1012D000256082F31088EFF3108281F31088036891
:1012E0009C688C439C6082F31088026E012A0AD1AC
:1012F000EFF3108281F3108801680B681024A34378
:101300000B6082F310882021C167002141660166CD
:10131000B0BD70B55C21435A0268C16F22290ED15D
:1013200001465831928C1A40436D1A804A88521EE9
:101330004A809A1C42654A88002A05D070BD90698F
:1013400008210143916170BDEFF31083012282F304
:1013500010880924640105682E68A6432E6083F373
:101360001088EFF3108382F310880468A568954312
:10137000A56083F310882023C36700234366046EAF
:10138000012C14D10366EFF3108382F310880468F4
:10139000256810229543256083F310880368DC6973
:1013A000E40600D51A620988FFF7F6FB70BDFFF767
:1013B0000FFE70BD70B55C21435A0268C16F2229CF
:1013C0000FD101465831928C1A40436D1A704A88E9
:1013D000521E4A80426D521C42654A88002A05D03E
:1013E00070BD906908210143916170BDEFF31083D6
:1013F000012282F310880924640105682E68A6433F
:101400002E6083F31088EFF3108382F31088046852
:10141000A5689543A56083F310882023C367002344
:101420004366046E012C14D10366EFF3108382F33C
:1014300010880468256810229543256083F310887E
:101440000368DC69E40600D51A620988FFF7A4FB8B
:1014500070BDFFF7BDFD70BDB0B504460068016802
:101460003A4A0A40A16823690B4365691D43E16953
:101470000D43154305600322120343689343E2685A
:101480001A434260A269236A13430B221202856841
:1014900095431D4385602E4A904209D02D4A9042C3
:1014A00008D12D4800688007000F2CA2135802E0D5
:1014B000002300E010230125EA032C4891420DD1BE
:1014C000082B3DD87B441B795B009F4404391B39B2
:1014D000153939391A00FFF717F90FE0082B2FD803
:1014E0007B441B795B009F44042B202B1A2B2B2B56
:1014F0001F00FFF709F914E0FFF714F9002801D1E4
:101500001DE01046400061684A081018FEF739FED9
:101510001749014014D00007400F08430DE0FFF7C2
:1015200001F9002801D10AE0104661684A08101844
:10153000FEF727FE80B2102802D32168C86000257C
:1015400000206066A0662846B0BDC046F369FFFF74
:10155000004400400038014030100240000000000C
:1015600004000000080000000200000000127A00E1
:10157000F0FF000070B5034658201A52596500204C
:101580005866194658314A809A68002A08D00124C2
:101590002403A24209D11A69002A08D1184A07E097
:1015A0001A69002A03D07F2202E0888001E0FF222E
:1015B0008A8088622222DA67EFF31084012282F3A4
:1015C00010881D68AE681643AE6084F3108814035B
:1015D0009D68A54202D11C69002C0FD00A4C0877E7
:1015E0005C66EFF3108182F31088092252011B68B8
:1015F0001C6814431C6081F3108870BD014CEEE739
:10160000FF01000013130008B5130008FEB51646CD
:101610000F460468014674310191089DE169394023
:10162000C91B4A424A41B24233D1691CF6D0044632
:101630000293FEF701FF029BC01AA8422BD8002D8F
:1016400029D02046246821684907E7D5E1690905C2
:10165000E4D50121CA022262EFF3108481F31088DD
:101660000D22520103681D6895431D6084F31088A4
:10167000EFF3108481F31088026893688B439360C2
:1016800084F3108820218167C16701990C460C34CE
:101690001CE00020FEBDEFF31081012080F31088D4
:1016A0000D22520123681D6895431D6081F3108847
:1016B000EFF3108180F3108822689368834393606E
:1016C00081F310882020A0677C34019900200870E5
:1016D000202020600320FEBD80B50248FFF760FA9D
:1016E00080BDC0462400002080B50248FFF758FAAC
:1016F00080BDC046A8000020002805D40322034670
:1017000093430C4A9A1806E00F220240083A03233A
:101710009A43074BD2188007C00E8901C9B2814095
:10172000FF23834010689843084310607047C04609
:101730001CED00E000E400E010B5C0B006486C46C7
:10174000C822214600F07CFB04A12046FEF7FEFCE7
:10175000411E884140B010BDE4220008434C4F5365
:1017600045204F4B00000000F0B5C3B04B20C00037
:1017700001900024A0A6022C17D803ADC8229D48D2
:10178000294600F05DFB28463146FEF7DFFC0746A0
:10179000012001022846FEF7C2FC002F05D1C248F5
:1017A000019900F0C3FA641CE5E7964803ACC8222F
:1017B000214600F045FB94A12046FEF7C7FC002817
:1017C00068D00120040203AD28462146FEF7A7FC9D
:1017D0009148C822294600F033FB90A12846FEF725
:1017E000B5FC002804D100F035FC002800D1FBE056
:1017F00003A82146FEF793FC00268BA70294032E34
:1018000023D203ADC8228748294600F019FB284699
:101810003946FEF79BFC002804D003A82146FEF7BA
:101820007EFC0CE003AD284682A1FEF78FFC044647
:1018300028460299FEF773FC002C029C05D07D20FF
:101840004001FEF713FD761CD9E77D20C000009013
:1018500000277AA6022F23D803ACC8227648214657
:1018600000F0EEFA20463146FEF770FC002813D156
:1018700003AC204672A1FEF769FC0546204602999A
:10188000FEF74DFC002D0BD18648009900F04EFA72
:101890007F1CDFE73120AAE003A80299FEF73FFC96
:1018A000002669A7022E17D803ACC8226548214636
:1018B00000F0C6FA20463946FEF748FC05462046A9
:1018C0000299FEF72CFC002D06D00199C831614821
:1018D00000F02CFA761CE5E75F4803ACC8222146ED
:1018E00000F0AEFA5D492046FEF730FC002805D036
:1018F0005B48C82100F01AFA002871D003AC2046DA
:101900000299FEF70CFC5748C822214600F098FACD
:1019100055A12046FEF71AFC002816D0544D284643
:10192000FEF728FC281853A10322FEF7DFFB284608
:10193000FEF720FC281850A10922FEF7D7FBC8218A
:10194000284600F0F3F900284CD003AD2846029E4B
:101950003146FEF7E4FB4048C822294600F070FA01
:1019600048492846FEF7F2FB044628463146FEF772
:10197000D6FB002C05D04448009900F0D7F9002888
:1019800034D0354803ACC822214600F059FA3F490B
:101990002046FEF7DBFB002811D003AC204602995D
:1019A000FEF7BDFB3A482146009A00F049FA394952
:1019B0002046FEF7CBFB002801D0382017E003AC0F
:1019C00020460299FEF7ABFB2348C822214600F0CF
:1019D00037FA31A12046FEF7B9FB411E884106E0E7
:1019E000352004E0362002E0322000E0372043B00A
:1019F000F0BDC046672300082B4346554E3A2031C0
:101A000000000000FB2200082B43534D494E533A7F
:101A100020302C3100000000F122000852454144E2
:101A2000590000003E2300082B4353513A20302C2C
:101A30000000000039392C00342300082C3100004C
:101A40002C3500002923000843474154543A2030E4
:101A5000000000005B2300081B230008BF230008D0
:101A60007C23000811230008434D4E45540000001C
:101A70000C000020544D0000222C22222C22220D8A
:101A800000000000D423000807230008C923000831
:101A900051230008B923000849502053544154559C
:101AA00053000000712300084623000886B0FEF7AB
:101AB000D1FCFFF730FB002405940127B9052E481F
:101AC00002680A43026002680A40009200997904A1
:101AD00002680A43026002680A4000920099B90451
:101AE00002680A43026002680A4000920099F90401
:101AF00002680A43026000680840009000980320D2
:101B000006031E4D284631462246FEF78EFC0494FD
:101B100003940297019601A92846FEF7B7FBB90383
:101B200017488183174981618021818216490161AB
:101B3000790281811549164A02604160856000F092
:101B4000DBF900F0A9F901A812A10722FEF7CEFAED
:101B500012A416A52046294600F02CF80028F9D03A
:101B600001AE3046FEF706FBC1B2304600F026F962
:101B7000FFF7E2FDEEE7C046141002400004004803
:101B80002C010020000800480014004800440040D8
:101B90000038014068656C6C6F0A0000332E3132EA
:101BA000352E3131362E33370000000031383833CE
:101BB00000000000F0B5E1B00E46054641A84149DD
:101BC0008022FEF793FA404801ACC822214600F07B
:101BD00037F93EA12046FEF7B9FA0028009617D142
:101BE00001A83D49FEF7B2FA002811D101A83BA196
:101BF000FEF7ACFA00280BD101A83B49FEF7A6FA84
:101C0000002805D101A83949FEF7A0FA002841D0E3
:101C1000FFF7AAFD0126310201AF3846FEF77FFA31
:101C200041AC20462946FEF785FAFEF7A3FA2221A9
:101C3000215420180025C57081702C214170204648
:101C40000099FEF777FAFEF795FA201831A10322E2
:101C5000FEF74CFA7D20C2002046394600F0F0F82D
:101C60002DA13846FEF772FA00280FD101A82E499F
:101C7000FEF76CFA002809D101A81D49FEF766FAA3
:101C8000002804D02248C82100F050F82E463046E3
:101C900061B0F0BD01A81649FEF758FA00280BD133
:101CA00001A814A1FEF752FA002805D101A814A139
:101CB000FEF74CFA0028ADD01548C82100F036F8E0
:101CC000A8E7C0464C220008882300084950204954
:101CD0004E495449414C0000D42300084950204348
:101CE0004F4E464947000000C9230008BF230008A3
:101CF000AA230008434F4E4E454354204F4B00004B
:101D0000414C524541445920434F4E4E45435400A7
:101D100096230008220D0000434F4E4E45435420A9
:101D20004641494C00000000B9230008FEB50C46AE
:101D3000009004260191564D761E20D0019820185F
:101D40000290009F3846FEF715FA82B26423B94824
:101D50003946FFF759F92046FEF788FA28464D49DB
:101D6000FEF7F4F90446012739022846FEF7D7F9B1
:101D70000020B2490870002C029CDDD000E0002752
:101D80003846FEBD70B51D4614460A460146A948B0
:101D90006423FFF739F92846FEF768FA01200502A7
:101DA0003B4E204631462A46FEF7A0F930462946EA
:101DB000FEF7B5F9A1480021017070BDF0B5C7B0BC
:101DC0000C46054641AF12A118223846FEF78EF99F
:101DD00015A13846224600F067F901AEC822384600
:101DE000314600F02DF8012001023046FEF797F948
:101DF0007D20C300284621463246FFF7C3FF0EA1CF
:101E00003046FEF7A3F9411E884147B0F0BDC046F9
:101E100041542B43495053454E443D0000000000BF
:101E2000000000000000000041542B43495053457E
:101E30004E443D25640D000053454E44204F4B0059
:101E400070B515460C460646FEF794F982B27948FD
:101E500064233146FFF7D8F82846FEF707FA012039
:101E600005020B4E204631462A46FEF73FF9094946
:101E70003046FEF76BF9044630462946FEF74FF927
:101E80006E4800210170601E8441204670BDC0462E
:101E90004C010020A723000870B588B00EA104A84B
:101EA000024638C938C2098811800FA16C46224603
:101EB00068C968C209881180C8252946FFF736FF1E
:101EC0000646401E864120462946FFF72FFF411E49
:101ED0008841304008B070BD41542B4347505350A7
:101EE00057523D310D00000041542B43475053528F
:101EF00053543D300D000000F0B587B004464B4808
:101F000000270C254A49076247624B225602C2C08D
:101F1000076047608560C76007610C38FEF798FF6F
:101F2000002801D0FEF75EF942484349C2C007606D
:101F300047608560C7600761476187610C38FEF7BD
:101F400087FF002801D0FEF74DF93C48411C394875
:101F500001252A46FFF706F806972069A18A2A4636
:101F6000FEF763FA05970497112000900390A08A6A
:101F70000290206902AE3146314A9047A189A0689B
:101F800001952A46FEF751FA0597049700980390A9
:101F9000A0890290A0683146294DA847059704976B
:101FA0000397A08B0290A0693146A847284EA18BC9
:101FB000A069FEF735FA002814D1022F12D8A189A2
:101FC000A0680022FEF731FA3046FEF74FF9A189EA
:101FD000A0680122FEF729FA7D208000FEF746F96D
:101FE0007F1CE4E7A18BA069FEF71AFA024601986C
:101FF00001031448002A12D00122FEF716FA0D48F8
:10200000114C032264232146FEF7FEFF0F48FEF722
:102010002DF9C8212046FFF789FE044603E000247D
:102020002246FEF702FA204607B0F0BDA8000020C5
:10203000004400402400002000380140200000201F
:102040008D02000800040048A3230008B80B00001C
:10205000DC050000B0B5C4B00EA040AC21462CC8D1
:102060002CC1007808702046FEF784F80D21215419
:102070002018002141706D46C82220462946FFF7EE
:10208000DFFE08A12846FEF761F8411E884144B0F2
:10209000B0BDC04641542B4350494E3D00000000A6
:1020A000000000004F4B00000FB410B504A9074B0F
:1020B00002AA039800F01CF8044602A9002000F0D0
:1020C000BFF8204610BC08BC04B0184741220008E5
:1020D00002E008C8121F08C1002AFAD170477047F1
:1020E000002001E001C1121F002AFBD1704700004F
:1020F000FFB58DB00446002506E025280AD0109AC9
:102100000F999047641C6D1C20780028F5D1284653
:1021100011B0F0BD00270121484A009700E00743B5
:10212000641C23780846203B98401042F7D1207861
:102130002E2817D1042007436078641C2A280CD16C
:102140000E98641C02C800910E900BE000990A22C0
:10215000514330394018641C0090207801463039D2
:102160000929F3D920780028D1D0642808D069281B
:1021700006D075281ED0109A0F9990476D1C5BE011
:102180000A200E99019001C90E91002802DA4042FE
:102190002D2102E0390504D52B216A461172012157
:1021A00003E0F90704D02021F7E70BAE0B910DE017
:1021B0000021FAE70A200E99019001C90E91F7E774
:1021C0000199FDF7DEFF3031761E31700028F7D11E
:1021D00003A8801B20300190780701D5009801E00A
:1021E000012000900199884201DD401A00E00020A2
:1021F0000027009006E002A8109AC05D0F99904752
:102200006D1C7F1C0B988742F5DB04E0109A302090
:102210000F9990476D1C0099481E00900029F5DC2D
:1022200005E03078109A761C0F9990476D1C019943
:10223000481E01900029F4DC641C65E709280100B0
:102240000A68531C0B6010707047000041542B4308
:10225000495053544152543D22544350222C2200A1
:10226000000000000000000000000000000000006E
:10227000000000000000000000000000000000005E
:10228000000000000000000000000000000000004E
:10229000000000000000000000000000000000003E
:1022A000000000000000000000000000000000002E
:1022B000000000000000000000000000000000001E
:1022C000000000000000000000000000000000000E
:1022D00000000000010203040607080900000000D6
:1022E0000102030441542B434950434C4F53450DC5
:1022F0000041542B4350494E3F0D0041542B435352
:102300004D494E533F0D0041542B43494943520D13
:102310000041542B435354543F0D0041542B434927
:10232000505354415455530D0041542B434741548D
:10233000543F0D0041542B435245473F0D0041543B
:102340002B4353510D0041542B4346554E3D310D07
:102350000041542B43494653520D0041542B4347EF
:102360004154543D310D0041542B4346554E3F0DD1
:102370000041542B435245473D310D0041542B43FE
:102380004950534855540D0041542B434950535420
:10239000415455530D0041542B434950434C4F5326
:1023A000450D0041540D004F4B0054435020434F06
:1023B0004E4E454354494E47004552524F520050ED
:1023C0004450204445414354004950204750525303
:1023D00041435400495020535441525400000000DE
:1023E000002400080000002020000000D020000889
:1023F000202400082000002030060000E020000813
:10240000010000000400000000127A0041542B4338
:102410005354543D22000000000000000000000062
:04000005080000BD32
:00000001FF
