:020000040800F2
:1000000020060020D100000819110008F110000896
:1000100000000000000000000000000000000000E0
:100020000000000000000000000000001D1100089A
:1000300000000000000000001B1100081F11000854
:10004000E3000008E3000008E3000008E300000804
:10005000E3000008E3000008E3000008E3000008F4
:10006000E3000008E3000008E3000008E3000008E4
:10007000E3000008E3000008E3000008E3000008D4
:10008000E3000008E300000800000000E3000008AF
:10009000E3000008E3000008E3000008E3000008B4
:1000A000E3000008E3000008E3000008E916000888
:1000B000F516000800000000E3000008034885462C
:1000C00000F072F8004800474117000820060020A1
:1000D0000448804704480047FEE7FEE7FEE7FEE7E6
:1000E000FEE7FEE793110008BD00000803460B433E
:1000F0009B0703D009E008C9121F08C0042AFAD2DE
:1001000003E00B780370401C491C521EF9D2704763
:10011000D2B201E00270401C491EFBD2704700229F
:10012000F6E710B513460A4604461946FFF7F0FFF6
:10013000204610BD30B505462A460B4610781C787F
:10014000521C5B1C002801D0A042F7D0002C03D029
:10015000002802D06D1CEFE7284630BD421C017814
:10016000401C0029FBD1801A704770B50446002955
:1001700003D000202022012310E0002801D000201D
:10018000C043C046C0460DE02546D5408D4205D34C
:100190000D469540641B1D46954040191546521E5C
:1001A000002DF1DC214670BD064C0125064E05E010
:1001B000E36807CC2B430C3C98471034B442F7D388
:1001C000FFF780FFF41B0008141C0008EFF31080F9
:1001D00072B6FEE710B52121425C01462031022AA9
:1001E00010D1026813680E24A3431360136801241E
:1001F000A3431360C26B006C2346834053604C7072
:10020000002002E004228263012000220A7010BD57
:10021000B0B52121415C022917D101462031026885
:1002200013680E24A343136013680125AB431360C6
:10023000C26B036C2C469C40546000240C704D70C3
:10024000416B002904D0884702E004218163012426
:100250002046B0BDB0B5044600F0EAF80546601C83
:1002600002D090480078041900F0E2F8401BA04248
:10027000FAD3B0BDF0B588B007465E48874201D0DA
:10028000052000E003200090002206921446059706
:100290000E683046E04000D1AAE001250295A54055
:1002A0002E4000D19EE0049403924A680323144632
:1002B0001C40601E01281AD803230192069A93401D
:1002C000B8689843CF6897400743059887600198BE
:1002D000C006C00F049A9040059F7F68AF43074354
:1002E00005984760059FD8435500019A08E01846D5
:1002F000069DA840C043032C02D1069D1C461CE06D
:10030000FB6803408F68AF401F43059BDF60059F7C
:10031000022C12D11C22039B1A400F239340049CF1
:10032000E408A4003C19276A9F430B6993403B43B0
:10033000059F23624A6803241440AC403B68034095
:1003400023433B609003800F039A049C4AD0604B88
:100350001868029D284318601868284007902346B3
:100360000C2414400F20A04003229343079A234DEE
:100370005A5982435B190920C006874208D0204899
:10038000874207D01F488742009804D1022002E02C
:10039000002000E00298A040104318601648006852
:1003A0004B68DA0301D5304300E0B043049C124AA5
:1003B000106050689A0301D5304300E0B0430E4A04
:1003C00050609068DA0201D5304300E0B0430A4A39
:1003D0009060D0689A0201D5304300E0B043039AA0
:1003E000054BD860121D0698801C0690641C4FE7D0
:1003F00008B0F0BD000C00480004014008000140B6
:10040000000400480008004800690840411E884177
:10041000704742690B4693430A401104C918816131
:100420007047002A01D0182200E02822815070472E
:10043000054800687047C0461A48007802490A68B3
:10044000101808607047C0461C02002080B5A948FB
:10045000016810220A430260032000F005F800F052
:1004600023F8002080BDC04670B504467D20C00042
:100470000C4E3178FFF779FE0146A6480068FFF779
:1004800074FE00F06BFB0125032C08D8002806D170
:100490000025E84321462A4600F028F874602846E3
:1004A00070BDC0460000002082B0094801680122EA
:1004B00011430160016811400191019911074268DF
:1004C0000A434260406808400090009802B07047BC
:1004D00018100240002805D41F2108400121814046
:1004E000014801607047C04600E100E080B501F0BE
:1004F00007F980BDF0B585B004468078C0073C4B55
:100500004AD001200390010718680840029006D1E4
:10051000186808431860186808400490049801910E
:10052000344E3068C00511D4039807023068384350
:100530003060FFF77DFF05463068384206D1FFF78F
:1005400077FF401B6428F7D903253FE003252802E5
:10055000274B5968014012D06268024091420ED088
:100560000398000459685A6802435A605A688243E3
:100570005A600846204A10405860C80729D1586878
:100580001D4908406168014359600298002803D161
:1005900018680199884318602068C10705D0596917
:1005A00003229143A2680A435A61810605D559691D
:1005B00010229143E2680A435A610025400505D59F
:1005C000586940218843216901435961284605B093
:1005D000F0BDFFF72DFF0646474F054B58688007D3
:1005E000CDD4FFF725FF801BB842F6D9EEE7C04611
:1005F0001C10024000700040FFFCFFFFF8B500280F
:100600004CD004463B4A1368012003408B4208D279
:1006100013680126B3430B431360126832408A42C9
:1006200066D1009121688A070ED54A0705D50722B1
:100630001202484D2B6813432B60464D2A68F02365
:100640009A43A36813432B60C90729D12949086835
:1006500001263040009A904205D90868B0430860EE
:100660000868C00744D12078400707D5072000025A
:10067000384A11688143E0680843106000F04EF882
:10068000344909680906090F1C4A515CC8402149D0
:1006900008600320FFF7E8FE002629E0012627E096
:1006A00061682C4A121F022904D0012905D1126861
:1006B000920304E01268920101E012689207064674
:1006C00016D5244A10680326B04308431060FFF78C
:1006D000AFFE0746084D1F4800680C2101406068C6
:1006E00080008142B2D0FFF7A3FEC01BA842F2D91E
:1006F0003046F8BD0020024088130000D21B0008DD
:1007000004480068134909684905490F024A515CC9
:10071000C840704708000020E21B000810B50D49D2
:100720000A680C2313400C48082B08D193021B0FB6
:100730000AA4E45C896AD20303D4104807E00446A3
:1007400006E00F22114009A2515CFFF70EFD444361
:10075000204610BD0410024000127A000203040576
:10076000060708090A0B0C0D0E0F101001020304F6
:1007700005060708090A0B0C0D0E0F1000093D00B5
:10078000F0B587B004460120002C00D1BCE10490F4
:100790002078C007EE4E059426D071680C200140E9
:1007A00004291AD071680140082902D17068C00379
:1007B00013D4616801204704002900D178E105299C
:1007C00000D18CE1012900D18DE1010432688A4316
:1007D000326081043068884388E13068800303D543
:1007E0006068002800D1B5E0207880071AD57068CD
:1007F0000007800F07D070680C210140082971D1D3
:100800007068C0036ED430688007059C03D5E0682B
:10081000012800D09EE03068F82188432169C90092
:1008200001433160059C2078000724D420784007DC
:1008300034D42078C00600D4ABE005984069411D4F
:1008400000D19AE0012800D0EAE0706B0421014356
:100850007163706B012101437163FFF7E9FD054688
:10086000706B800700D58CE0FFF7E2FD411B032091
:100870000229F5D948E1706AE16900295AD00121BD
:1008800008437062FFF7D4FD0546706A8007CDD437
:10089000FFF7CEFD401B0228F7D934E10120039079
:1008A0000107F0690840029006D1F0690843F06141
:1008B000F0690840069006980191A64F3868C00577
:1008C00024D403980402386820433860FFF7B0FD51
:1008D00005463868204219D1FFF7AAFD401B64285D
:1008E000F7D910E13068059CE168002934D0012176
:1008F00008433060FFF79CFD0546306880078AD4C6
:10090000FFF796FD401B0228F7D9FCE005988068A8
:10091000914F002800D198E0052800D1AAE00128D5
:1009200000D1ABE0306A039988433062306A042119
:100930008843A6E0012188437062FFF779FD0546F0
:10094000706A800700D471E7FFF772FD401B022830
:10095000F6D9D8E00498D7E0012188433060FFF74A
:1009600067FD05463068800700D45BE7FFF760FD50
:10097000411B03200229F5D9C6E0706B042188438E
:100980007063706BF821884305998969C900014338
:1009900071630598046A002C1ED070680C21014018
:1009A00008291BD1012C049800D1ADE001200304DB
:1009B00071680B40F26A059D6C6AA34200D0A3E007
:1009C0000F231A40EC6AA24200D09DE09A04114025
:1009D000AA6A914200D097E0002095E0012002062B
:1009E00031680492914331604706FFF721FD0546C7
:1009F000022C0BD1049C3068384200D186E0FFF70E
:100A000017FD411B03200229F5D97DE030683842EB
:100A1000E2D0FFF70DFD411B03200229F6D973E058
:100A2000706B042101437163706B01218843706313
:100A3000FFF7FEFC0546706B8007AAD5FFF7F8FCB0
:100A4000411B03200229F6D95EE0306A03998843EE
:100A50003062306A042188433062FFF7E9FC0546C2
:100A6000306A80071AD5FFF7E3FC411B0320B94227
:100A7000F6D949E0306A042101433162306A0399B2
:100A800008433062FFF7D4FC0546306A800705D47E
:100A9000FFF7CEFC401BB842F7D934E0029800289B
:100AA000059C00D0C5E6F06901998843F061C0E675
:100AB000010432688A4332608004316881433160C6
:100AC000FFF7B6FC0546059C3068384200D18BE63E
:100AD000FFF7AEFC411B03206429F5D914E0810423
:100AE00032680A4332600104306808433060FFF71F
:100AF0009FFC05463068384200D075E6FFF798FC49
:100B0000401B6428F6D9032007B0F0BDF06A0F211E
:100B10008843059AD16A0143F1623D20000471685F
:100B20008143906A0843516A0143716030682043F1
:100B30003060FFF77DFC04463068384200D04BE758
:100B4000FFF776FC011B03200229F5D9DCE7C0463C
:100B5000001002400070004088130000401E010E8B
:100B600001D0012070470749074A506007480368D1
:100B70000B4003218907591801600020906007216C
:100B800011607047FFFFFF0010E000E020ED00E083
:100B90007047704770470000FEB505460068C2699F
:100BA00007680195583584680126F30219460F310C
:100BB0000A42029762D0A149394027463740791846
:100BC00061D0D10706D00299C90503D50662A96A8A
:100BD0003143A96202241146009421404C424C4109
:100BE00079427941214305D100990162A96A04241F
:100BF0000C43AC627C427C415107314600D5214612
:100C0000002905D104210162A96A009C2143A9623F
:100C100011070CD5791E8F410299890600D43E46F2
:100C2000012E04D108210162AC6A0C43AC621A4265
:100C300007D00299490104D50362A96A20230B4316
:100C4000AB62A96A0029019E47D0910608D5029996
:100C5000890605D5716E002902D030468847306874
:100C6000A96A28220A4080684024204080183BD18D
:100C70003046FFF78FFF0020A862FEBD910602D527
:100C80000299890653D4019F396E012904D1D106F6
:100C900002D50299C90650D40123D10201D56102BF
:100CA0001CD4100602D5029800063BD4500614D579
:100CB0000298400611D5EFF3108083F3108839684D
:100CC0000A6840239A430A6080F310880020B866BF
:100CD0002020B867384600F009FAFEBD1905016208
:100CE0003846FFF756FFFEBD304600F0EEFA30689A
:100CF0008068400655D5EFF31080012181F31088FC
:100D000031688A68A2438A6080F31088306F0028B7
:100D100047D04B494163FFF77BFA0028DDD0306FA5
:100D2000416B08E0B96E0029D7D0384603E001983E
:100D3000416E0029D1D08847FEBD10210162806834
:100D4000400632D468882A886B88002BC5D0101AD8
:100D50000204C2D0EFF31083012282F31088092429
:100D600064013D682E68A6432E6083F31088EFF37C
:100D7000108382F310883C68A5689543A56083F3CF
:100D800010882023FB6700237B663B66EFF310830C
:100D900082F310883A6814688C43146083F31088D7
:100DA00046E03046FFF7F6FEFEBD3A6F1068436836
:100DB0009CB2002C91D0288884428ED26B8092699C
:100DC000202A33D0EFF31082012080F310881D4BCE
:100DD00020333C6826681E40266082F31088EFF3BB
:100DE000108280F310883B689C6884439C6082F387
:100DF0001088EFF3108280F310883B689C684026CF
:100E0000B4439C6082F310882022FA6700223A667D
:100E1000EFF3108280F31088386803688B43036017
:100E200082F31088386FFFF7D5F928886988401A4F
:100E300081B23846FFF7ACFEFEBDC046200100047B
:100E4000B5120008DFFEFFFFB0B500282ED0044623
:100E5000806F002805D1742000212154204600F025
:100E600029F82420A067206801680125A9430160B2
:100E7000204600F0F9FA012819D0606A002802D053
:100E8000204600F087F90920C00221684A688243A1
:100E90004A6088682A2290438860086801220243D9
:100EA0000A60204600F0D2F9054600E001252846F8
:100EB000B0BD0000B0B586B0044601A81421FFF70C
:100EC0002EF920682349884219D0494988423FD1E8
:100ED00001208103204A53680B43536053680B4041
:100EE00000930099400411680143116011680140AA
:100EF000009103204002019000981B2413E0012080
:100F0000400415498A6802438A608A680240009258
:100F1000009A0A6802430A600968014000910C20A7
:100F2000019000981C2401200590032004900025C6
:100F30000395022002900920C00601A9FFF79AF943
:100F4000204629462A46FFF7D1FA2046FFF7C2FA83
:100F500006B0B0BD0044004014100240F8B5C36FA5
:100F60000225202B2AD10124002928D0002A26D0AE
:100F700001231C038668A64204D10469002C01D118
:100F8000CC071ED17424045D012C2C4617D00546D5
:100F90007435002404662B7005686D682D020AD52F
:100FA000EFF3108583F310889B06066837681F43AC
:100FB000376085F3108800F0E5FA00E02C46204603
:100FC000F8BD1C46FBE7000080B500680849884270
:100FD00000D080BD074841780278531C0370064B4F
:100FE0009954411C05480122FFF7B8FF80BDC04657
:100FF00000380140100000201C01002014000020D7
:10100000F0B587B006930746836F0220202B2FD1BF
:10101000012500292DD0002A2BD001231D03BC68F7
:10102000AC4204D13C69002C01D1CC0724D10395FA
:101030003E4674363478012C05461AD0049101924C
:101040003C4650340025F560029633702120B86785
:10105000FFF7EEF90590019860802080B868039949
:10106000884202D13869002808D0049E049506E021
:101070000546284607B0F0BD1D46FAE7002602984F
:101080000570608800281ED00698009080210025F9
:1010900038462A46059B00F0C1FA00281ED1002ED2
:1010A00004D0307839680885761C08E0049A1088E6
:1010B0000D49084039680885921C04922E466088C4
:1010C000401E6080DDE706980090402100253846EC
:1010D0002A46059B00F0A2FA002801D00325C8E7A4
:1010E0002020B867C5E7C046FF0100007047000038
:1010F000084C012671032046FFF78BF9642528462A
:10110000FFF7A8F831032046FFF783F92846FFF7D9
:10111000A1F8EEE700040048FEE77047704780B58D
:10112000FFF78AF980BD70B596B00AAD2846083041
:101130002821FEF7F4FF0024129401260B960A964C
:1011400005940494039402942846FFF719FB0028A1
:1011500003D0EFF3108072B6FEE709940894079667
:101160000720069006A82146FFF748FA002803D07A
:10117000EFF3108072B6FEE70394019601A8FFF723
:10118000B9F9002803D0EFF3108072B6FEE716B06D
:1011900070BD7047B0B5416ACA0707D0012252043A
:1011A00003685C689443826A22435A608A0707D5C1
:1011B0000122120403685C689443C26A22435A60A5
:1011C0004A0707D50122920403685C689443026BC6
:1011D00022435A600A0707D50122D20303685C68DC
:1011E0009443426B22435A60CA0607D50122120378
:1011F00003689C689443826B22439A608A0607D5F1
:101200000122520303689C689443C26B22439A6094
:101210004A0610D501221305026854689C43056CE8
:101220002C4354609D4206D103235B0554689C43C4
:10123000436C23435360090607D50121C9040268A2
:1012400053688B43806C18435060B0BD7CB5054635
:10125000802000242C50FFF7EBF806462868016830
:1012600009070BD5124800900120410500222846AD
:10127000334600F0D3F900280ED1286800684007F3
:101280000CD50B48009001208105002228463346EA
:1012900000F0C4F9002801D0032406E02846743089
:1012A0002021A967E96704702C6620467CBDC046F2
:1012B000FFFFFF0180B5406A0146523100220A81DA
:1012C00052214252FFF766FC80BDB0B5EFF31082A9
:1012D000012181F3108809235B01046825689D437F
:1012E000256082F31088EFF3108281F31088036881
:1012F0009C688C439C6082F31088026E012A0AD19C
:10130000EFF3108281F3108801680B681024A34367
:101310000B6082F310882021C167002141660166BD
:10132000B0BD70B55C21435A0268C16F22290ED14D
:1013300001465831928C1A40436D1A804A88521ED9
:101340004A809A1C42654A88002A05D070BD90697F
:1013500008210143916170BDEFF31083012282F3F4
:1013600010880924640105682E68A6432E6083F363
:101370001088EFF3108382F310880468A568954302
:10138000A56083F310882023C36700234366046E9F
:10139000012C14D10366EFF3108382F310880468E4
:1013A000256810229543256083F310880368DC6963
:1013B000E40600D51A620988FFF7EAFB70BDFFF763
:1013C00003FE70BD70B55C21435A0268C16F2229CB
:1013D0000FD101465831928C1A40436D1A704A88D9
:1013E000521E4A80426D521C42654A88002A05D02E
:1013F00070BD906908210143916170BDEFF31083C6
:10140000012282F310880924640105682E68A6432E
:101410002E6083F31088EFF3108382F31088046842
:10142000A5689543A56083F310882023C367002334
:101430004366046E012C14D10366EFF3108382F32C
:1014400010880468256810229543256083F310886E
:101450000368DC69E40600D51A620988FFF798FB87
:1014600070BDFFF7B1FD70BDB0B5044600680168FE
:101470003A4A0A40A16823690B4365691D43E16943
:101480000D43154305600322120343689343E2684A
:101490001A434260A269236A13430B221202856831
:1014A00095431D4385602E4A904209D02D4A9042B3
:1014B00008D12D4800688007000F2CA2135802E0C5
:1014C000002300E010230125EA032C4891420DD1AE
:1014D000082B3DD87B441B795B009F4404391B39A2
:1014E000153939391A00FFF70BF90FE0082B2FD8FF
:1014F0007B441B795B009F44042B202B1A2B2B2B46
:101500001F00FFF7FDF814E0FFF708F9002801D1EC
:101510001DE01046400061684A081018FEF725FEDD
:101520001749014014D00007400F08430DE0FFF7B2
:10153000F5F8002801D10AE0104661684A08101841
:10154000FEF713FE80B2102802D32168C860002580
:1015500000206066A0662846B0BDC046F369FFFF64
:1015600000440040003801403010024000000000FC
:1015700004000000080000000200000000127A00D1
:10158000F0FF000070B5034658201A52596500203C
:101590005866194658314A809A68002A08D00124B2
:1015A0002403A24209D11A69002A08D1184A07E087
:1015B0001A69002A03D07F2202E0888001E0FF221E
:1015C0008A8088622222DA67EFF31084012282F394
:1015D00010881D68AE681643AE6084F3108814034B
:1015E0009D68A54202D11C69002C0FD00A4C0877D7
:1015F0005C66EFF3108182F31088092252011B68A8
:101600001C6814431C6081F3108870BD014CEEE728
:10161000FF01000023130008C5130008FEB516469D
:101620000F460468014674310191089DE169394013
:10163000C91B4A424A41B24233D1691CF6D0044622
:101640000293FEF7F5FE029BC01AA8422BD8002D8C
:1016500029D02046246821684907E7D5E1690905B2
:10166000E4D50121CA022262EFF3108481F31088CD
:101670000D22520103681D6895431D6084F3108894
:10168000EFF3108481F31088026893688B439360B2
:1016900084F3108820218167C16701990C460C34BE
:1016A0001CE00020FEBDEFF31081012080F31088C4
:1016B0000D22520123681D6895431D6081F3108837
:1016C000EFF3108180F3108822689368834393605E
:1016D00081F310882020A0677C34019900200870D5
:1016E000202020600320FEBD80B5C948FFF754FAD2
:1016F00080BDC04680B5C448FFF74EFA80BDC046E5
:10170000002805D40322034693430C4A9A1806E0A6
:101710000F220240083A03239A43074BD21880074E
:10172000C00E8901C9B28140FF23834010689843ED
:10173000084310607047C0461CED00E000E400E084
:101740008AB0FEF783FEFFF7EEFC00240594012724
:10175000B905214802680A43026002680A400992FA
:101760000999790402680A43026002680A400992F2
:101770000999B90402680A43026002680A400992A2
:101780000999F90402680A43026000680840099058
:10179000099803200603A24D284631462246FEF74B
:1017A00040FE049403940297019601A92846FEF78F
:1017B00061FDB90301A88183802181827902818141
:1017C000064907910649059103959049029191496F
:1017D000019100F079F8FEE714100240000800487B
:1017E00000140048F0B5A3B0019302920F460446DE
:1017F000FEF7B4FC82B21A4864232146FFF700FCCE
:101800000025289E2C4628060DD1B4420BD216483E
:101810003946FEF78FFC05460120FEF71BFD681ECA
:101820008541641CEFE703AE0EA13046224600F06E
:10183000FFF8304600F01AF80298012805D101207F
:10184000020209490198FEF751FC012001020648F5
:10185000FEF765FC704800210170E8B223B0F0BDCE
:1018600014000020256400001C010020FEB5044681
:101870000FA06F4639460CC80CC100780870384676
:10188000FEF76CFC82B20D4E6425304639462B467D
:101890000B4FB8472046FEF761FC82B23046214626
:1018A0002B46B84707A1022230462B46B847FEBD5B
:1018B0004465627567203E2000000000980000200B
:1018C000011000080D0A0000F0B589B004464E482A
:1018D00000270C224D49076247624B256E02C2C0A9
:1018E0000760476003928260C76007610C38FFF7AA
:1018F000ABFA002801D0FEF769FC45484549C2C053
:101900000760476003998160C7600761476187612D
:101910000C38FFF799FA002801D0FEF757FC3E4833
:10192000411C3B4801263246FFF718FB0897206907
:10193000A18A3246FEF775FD07970697112002909F
:101940000590A08A0490206904A90191334A904728
:10195000A189A06803963246FEF763FD07970697B4
:1019600002980590A0890490A068019E31462B4AF8
:101970009047079706970597A08B0490A06931467A
:10198000264A9047A18BA069FEF73EFD002813D19F
:10199000022F11D8A189A0680022FEF742FD28017C
:1019A000FEF758FCA189A0680122FEF73AFD6420E9
:1019B000FEF750FC7F1CE5E7A18BA069FEF724FD34
:1019C0000246039801031648002A16D00122FEF7AA
:1019D00028FD0F48134C032264232146FFF710FB18
:1019E0001148FEF737FCC82000901049002220461D
:1019F0001346FFF7F7FE044603E000242246FEF7F5
:101A000010FD204609B0F0BD9800002000440040C1
:101A1000140000200038014010000020750200086A
:101A200000040048EA1B0008B80B0000EE1B000889
:101A30000FB410B504A9074B02AA039800F01CF8D4
:101A4000044602A9002000F0BFF8204610BC08BCE4
:101A500004B01847C91B000802E008C8121F08C1DB
:101A6000002AFAD170477047002001E001C1121F1F
:101A7000002AFBD170470000FFB58DB00446002559
:101A800006E025280AD0109A0F999047641C6D1C17
:101A900020780028F5D1284611B0F0BD002701219B
:101AA000484A009700E00743641C23780846203B1F
:101AB00098401042F7D120782E2817D104200743F0
:101AC0006078641C2A280CD10E98641C02C800910E
:101AD0000E900BE000990A22514330394018641CE3
:101AE00000902078014630390929F3D92078002860
:101AF000D1D0642808D0692806D075281ED0109A45
:101B00000F9990476D1C5BE00A200E99019001C966
:101B10000E91002802DA40422D2102E0390504D559
:101B20002B216A461172012103E0F90704D020211C
:101B3000F7E70BAE0B910DE00021FAE70A200E99B2
:101B4000019001C90E91F7E70199FEF70EFB3031C4
:101B5000761E31700028F7D103A8801B2030019039
:101B6000780701D5009801E0012000900199884292
:101B700001DD401A00E000200027009006E002A8E6
:101B8000109AC05D0F9990476D1C7F1C0B9887427F
:101B9000F5DB04E0109A30200F9990476D1C0099F6
:101BA000481E00900029F5DC05E03078109A761C7C
:101BB0000F9990476D1C0199481E01900029F4DC93
:101BC000641C65E7092801000A68531C0B6010704B
:101BD0007047000000000000000001020304060737
:101BE0000809000000000102030441540D004F4B9E
:101BF00000000000181C0008000000201000000079
:101C0000581A0008281C00081000002010060000C8
:101C1000681A000800000000010000000400000035
:081C200000127A000000000030
:04000005080000BD32
:00000001FF
