:020000040800F2
:1000000030060020D10000082D110008051100085D
:1000100000000000000000000000000000000000E0
:100020000000000000000000000000003111000886
:1000300000000000000000002F110008331100082C
:10004000E3000008E3000008E3000008E300000804
:10005000E3000008E3000008E3000008E3000008F4
:10006000E3000008E3000008E3000008E3000008E4
:10007000E3000008E3000008E3000008E3000008D4
:10008000E3000008E300000800000000E3000008AF
:10009000E3000008E3000008E3000008E3000008B4
:1000A000E3000008E3000008E3000008FD16000874
:1000B0000D17000800000000E30000080348854613
:1000C00000F07EF800480047251D0008300600209B
:1000D0000448804704480047FEE7FEE7FEE7FEE7E6
:1000E000FEE7FEE7A7110008BD00000803460B432A
:1000F0009B0703D009E008C9121F08C0042AFAD2DE
:1001000003E00B780370401C491C521EF9D2704763
:10011000D2B201E00270401C491EFBD2704700229F
:10012000F6E710B513460A4604461946FFF7F0FFF6
:10013000204610BD421E5378521C002BFBD10B7879
:100140001370491C521C002BF9D1704730B505467D
:100150002A460B4610781C78521C5B1C002801D0E4
:10016000A042F7D0002C03D0002802D06D1CEFE78E
:10017000284630BD421C0178401C0029FBD1801A62
:10018000704770B50446002903D0002020220123C7
:1001900010E0002801D00020C043C046C0460DE05A
:1001A0002546D5408D4205D30D469540641B1D461E
:1001B000954040191546521E002DF1DC214670BDB8
:1001C000064C0125064E05E0E36807CC2B430C3CAA
:1001D00098471034B442F7D3FFF774FF1430000887
:1001E00034300008EFF3108072B6FEE710B521211D
:1001F000425C01462031022A10D1026813680E24A5
:10020000A343136013680124A3431360C26B006C03
:100210002346834053604C70002002E00422826336
:10022000012000220A7010BDB0B52121415C0229D5
:1002300017D101462031026813680E24A3431360CE
:1002400013680125AB431360C26B036C2C469C40C2
:10025000546000240C704D70416B002904D0884715
:1002600002E00421816301242046B0BDB0B50446FC
:1002700000F0EAF80546601C02D0904800780419A6
:1002800000F0E2F8401BA042FAD3B0BDF0B588B050
:1002900007465E48874201D0052000E00320009019
:1002A00000220692144605970E683046E04000D1C1
:1002B000AAE001250295A5402E4000D19EE00494BD
:1002C00003924A68032314461C40601E01281AD872
:1002D00003230192069A9340B8689843CF689740E9
:1002E0000743059887600198C006C00F049A9040A4
:1002F000059F7F68AF43074305984760059FD84334
:100300005500019A08E01846069DA840C043032CFA
:1003100002D1069D1C461CE0FB6803408F68AF407D
:100320001F43059BDF60059F022C12D11C22039BFB
:100330001A400F239340049CE408A4003C19276A48
:100340009F430B6993403B43059F23624A68032404
:100350001440AC403B68034023433B609003800F54
:10036000039A049C4AD0604B1868029D2843186089
:1003700018682840079023460C2414400F20A04002
:1003800003229343079A234D5A5982435B1909204C
:10039000C006874208D02048874207D01F488742BE
:1003A000009804D1022002E0002000E00298A04062
:1003B00010431860164800684B68DA0301D53043D3
:1003C00000E0B043049C124A106050689A0301D5C3
:1003D000304300E0B0430E4A50609068DA0201D525
:1003E000304300E0B0430A4A9060D0689A0201D5D9
:1003F000304300E0B043039A054BD860121D0698C5
:10040000801C0690641C4FE708B0F0BD000C00484B
:1004100000040140080001400004004800080048B2
:1004200000690840411E8841704742690B4693436A
:100430000A401104C91881617047002A01D01822AE
:1004400000E0282281507047054800687047C04688
:100450001A48007802490A68101808607047C046B8
:100460002C02002080B5A948016810220A430260CE
:10047000032000F005F800F023F8002080BDC046FE
:1004800070B504467D20C0000C4E3178FFF779FE30
:100490000146A6480068FFF774FE00F06BFB0125DB
:1004A000032C08D8002806D10025E84321462A4617
:1004B00000F028F87460284670BDC0460000002097
:1004C00082B00948016801221143016001681140AE
:1004D00001910199110742680A434260406808404F
:1004E0000090009802B0704718100240002805D410
:1004F0001F21084001218140014801607047C0462A
:1005000000E100E080B501F009F980BDF0B585B0EB
:1005100004468078C0073C4B4AD001200390010775
:1005200018680840029006D11868084318601868D7
:100530000840049004980191344E3068C00511D4ED
:1005400003980702306838433060FFF77DFF0546A7
:100550003068384206D1FFF777FF401B6428F7D98F
:1005600003253FE003252802274B5968014012D09C
:100570006268024091420ED00398000459685A689C
:1005800002435A605A6882435A600846204A104023
:100590005860C80729D158681D490840616801435F
:1005A00059600298002803D118680199884318609F
:1005B0002068C10705D0596903229143A2680A4304
:1005C0005A61810605D5596910229143E2680A43B0
:1005D0005A610025400505D55869402188432169A5
:1005E00001435961284605B0F0BDFFF72DFF0646CF
:1005F000474F054B58688007CDD4FFF725FF801B78
:10060000B842F6D9EEE7C0461C1002400070004028
:10061000FFFCFFFFF8B500284CD004463B4A1368A6
:10062000012003408B4208D213680126B3430B43D9
:100630001360126832408A4266D1009121688A07AD
:100640000ED54A0705D507221202484D2B681343E1
:100650002B60464D2A68F0239A43A36813432B600E
:10066000C90729D12949086801263040009A9042DB
:1006700005D90868B04308600868C00744D12078ED
:10068000400707D507200002384A11688143E06817
:100690000843106000F04EF8344909680906090F54
:1006A0001C4A515CC840214908600320FFF7E8FE5E
:1006B000002629E0012627E061682C4A121F022942
:1006C00004D0012905D11268920304E01268920156
:1006D00001E012689207064616D5244A10680326E0
:1006E000B04308431060FFF7AFFE0746084D1F48B0
:1006F00000680C210140606880008142B2D0FFF7A1
:10070000A3FEC01BA842F2D93046F8BD002002402B
:1007100088130000242A0008044800681349096867
:100720004905490F024A515CC84070470800002043
:10073000342A000810B50D490A680C2313400C48F0
:10074000082B08D193021B0F0AA4E45C896AD20328
:1007500003D4104807E0044606E00F22114009A226
:10076000515CFFF70EFD4443204610BD04100240CB
:1007700000127A0002030405060708090A0B0C0D93
:100780000E0F10100102030405060708090A0B0CDE
:100790000D0E0F1000093D00F0B587B00446012092
:1007A000002C00D1BCE104902078C007EE4E0594E7
:1007B00026D071680C20014004291AD071680140CC
:1007C000082902D17068C00313D46168012047046E
:1007D000002900D178E1052900D18CE1012900D15F
:1007E0008DE1010432688A433260810430688843B5
:1007F00088E13068800303D56068002800D1B5E047
:10080000207880071AD570680007800F07D07068BD
:100810000C210140082971D17068C0036ED4306882
:100820008007059C03D5E068012800D09EE0306871
:10083000F82188432169C90001433160059C207873
:10084000000724D42078400734D42078C00600D490
:10085000ABE005984069411D00D19AE0012800D025
:10086000EAE0706B042101437163706B0121014365
:100870007163FFF7E9FD0546706B800700D58CE0DA
:10088000FFF7E2FD411B03200229F5D948E1706A18
:10089000E16900295AD0012108437062FFF7D4FDB5
:1008A0000546706A8007CDD4FFF7CEFD401B0228B5
:1008B000F7D934E1012003900107F0690840029064
:1008C00006D1F0690843F061F06908400690069887
:1008D0000191A64F3868C00524D4039804023868F3
:1008E00020433860FFF7B0FD05463868204219D133
:1008F000FFF7AAFD401B6428F7D910E13068059C7A
:10090000E168002934D0012108433060FFF79CFDE5
:100910000546306880078AD4FFF796FD401B022801
:10092000F7D9FCE005988068914F002800D198E045
:10093000052800D1AAE0012800D1ABE0306A039974
:1009400088433062306A04218843A6E0012188434D
:100950007062FFF779FD0546706A800700D471E781
:10096000FFF772FD401B0228F6D9D8E00498D7E0C3
:10097000012188433060FFF767FD05463068800736
:1009800000D45BE7FFF760FD411B03200229F5D986
:10099000C6E0706B042188437063706BF821884354
:1009A00005998969C900014371630598046A002C9F
:1009B0001ED070680C21014008291BD1012C04981D
:1009C00000D1ADE00120030471680B40F26A059D7F
:1009D0006C6AA34200D0A3E00F231A40EC6AA24243
:1009E00000D09DE09A041140AA6A914200D097E09D
:1009F000002095E0012002063168049291433160A5
:100A00004706FFF721FD0546022C0BD1049C3068F8
:100A1000384200D186E0FFF717FD411B0320022971
:100A2000F5D97DE030683842E2D0FFF70DFD411B7B
:100A300003200229F6D973E0706B0421014371632E
:100A4000706B012188437063FFF7FEFC0546706BF5
:100A50008007AAD5FFF7F8FC411B03200229F6D92D
:100A60005EE0306A039988433062306A042188432B
:100A70003062FFF7E9FC0546306A80071AD5FFF7B8
:100A8000E3FC411B0320B942F6D949E0306A042156
:100A900001433162306A039908433062FFF7D4FCA6
:100AA0000546306A800705D4FFF7CEFC401BB842EC
:100AB000F7D934E002980028059C00D0C5E6F0691B
:100AC00001998843F061C0E6010432688A433260CC
:100AD0008004316881433160FFF7B6FC0546059C10
:100AE0003068384200D18BE6FFF7AEFC411B032093
:100AF0006429F5D914E0810432680A4332600104A4
:100B0000306808433060FFF79FFC05463068384284
:100B100000D075E6FFF798FC401B6428F6D9032047
:100B200007B0F0BDF06A0F218843059AD16A0143EE
:100B3000F1623D20000471688143906A0843516A64
:100B400001437160306820433060FFF77DFC04464C
:100B50003068384200D04BE7FFF776FC011B0320DA
:100B60000229F5D9DCE7C0460010024000700040C1
:100B700088130000401E010E01D001207047074974
:100B8000074A5060074803680B400321890759183A
:100B9000016000209060072111607047FFFFFF0097
:100BA00010E000E020ED00E0704770477047000063
:100BB000FEB505460068C269076801955835846826
:100BC0000126F30219460F310A42029762D0A14969
:100BD000394027463740791861D0D10706D00299AD
:100BE000C90503D50662A96A3143A96202241146E8
:100BF000009421404C424C4179427941214305D136
:100C000000990162A96A04240C43AC627C427C41D5
:100C10005107314600D52146002905D10421016242
:100C2000A96A009C2143A96211070CD5791E8F4146
:100C30000299890600D43E46012E04D108210162A2
:100C4000AC6A0C43AC621A4207D00299490104D540
:100C50000362A96A20230B43AB62A96A0029019EA3
:100C600047D0910608D50299890605D5716E0029ED
:100C700002D0304688473068A96A28220A40806836
:100C80004024204080183BD13046FFF78FFF0020E2
:100C9000A862FEBD910602D50299890653D4019F30
:100CA000396E012904D1D10602D50299C90650D462
:100CB0000123D10201D561021CD4100602D502988D
:100CC00000063BD4500614D50298400611D5EFF328
:100CD000108083F3108839680A6840239A430A60B9
:100CE00080F310880020B8662020B867384600F0EE
:100CF00007FAFEBD190501623846FFF756FFFEBD33
:100D0000304600F0ECFA30688068400655D5EFF3C5
:100D10001080012181F3108831688A68A2438A60BB
:100D200080F31088306F002847D04B494163FFF7AC
:100D30007BFA0028DDD0306F416B08E0B96E0029E6
:100D4000D7D0384603E00198416E0029D1D08847BA
:100D5000FEBD102101628068400632D468882A886E
:100D60006B88002BC5D0101A0204C2D0EFF3108399
:100D7000012282F31088092464013D682E68A6438D
:100D80002E6083F31088EFF3108382F310883C68A1
:100D9000A5689543A56083F310882023FB67002393
:100DA0007B663B66EFF3108382F310883A68146821
:100DB0008C43146083F3108846E03046FFF7F6FE5C
:100DC000FEBD3A6F106843689CB2002C91D0288811
:100DD00084428ED26B809269202A33D0EFF3108246
:100DE000012080F310881D4B20333C6826681E408C
:100DF000266082F31088EFF3108280F310883B683E
:100E00009C6884439C6082F31088EFF3108280F327
:100E100010883B689C684026B4439C6082F310882D
:100E20002022FA6700223A66EFF3108280F31088DE
:100E3000386803688B43036082F31088386FFFF7CC
:100E4000D5F928886988401A81B23846FFF7ACFE88
:100E5000FEBDC04620010004C9120008DFFEFFFFEE
:100E6000B0B500282ED00446806F002805D174202C
:100E700000212154204600F029F82420A067206892
:100E800001680125A9430160204600F0F7FA012816
:100E900019D0606A002802D0204600F085F90920A8
:100EA000C00221684A6882434A6088682A229043C7
:100EB00088600868012202430A60204600F0D0F9E9
:100EC000054600E001252846B0BD0000B0B586B05B
:100ED000044601A81421FFF722F92068234988421B
:100EE00019D0484988423FD101208103204A5368E4
:100EF0000B43536053680B40009300994004116802
:100F000001431160116801400091032040020190EB
:100F100000981B2413E00120400415498A6802430D
:100F20008A608A6802400092009A0A6802430A6056
:100F30000968014000910C20019000981C240120B8
:100F400005900320049000250395022002900920BB
:100F5000C00601A9FFF79AF9204629462A46FFF75D
:100F6000D1FA2046FFF7C2FA06B0B0BD00440040F7
:100F700014100240F8B5C36F0225202B2AD101249A
:100F8000002928D0002A26D001231C038668A64207
:100F900004D10469002C01D1CC071ED17424045D56
:100FA000012C2C4617D005467435002404662B709E
:100FB00005686D682D020AD5EFF3108583F310885C
:100FC0009B06066837681F43376085F3108800F07A
:100FD000E3FA00E02C462046F8BD1C46FBE7000083
:100FE00080B500680749884200D080BD064908786E
:100FF0004A78531C4B70054B985405480122FFF763
:10100000B9FF80BD00380140200000202C010020E5
:1010100024000020F0B587B006930746836F0220B6
:10102000202B2FD1012500292DD0002A2BD00123E0
:101030001D03BC68AC4204D13C69002C01D1CC0733
:1010400024D103953E4674363478012C05461AD0D7
:10105000049101923C4650340025F56002963370AD
:101060002120B867FFF7F0F9059001986080208093
:10107000B8680399884202D13869002808D0049ED4
:10108000049506E00546284607B0F0BD1D46FAE780
:10109000002602980570608800281ED006980090EF
:1010A0008021002538462A46059B00F0C1FA002819
:1010B0001ED1002E04D0307839680885761C08E0EF
:1010C000049A10880D49084039680885921C0492DA
:1010D0002E466088401E6080DDE706980090402123
:1010E000002538462A46059B00F0A2FA002801D0C8
:1010F0000325C8E72020B867C5E7C046FF01000008
:1011000070470000084C012671032046FFF78DF957
:1011100064252846FFF7AAF831032046FFF785F932
:101120002846FFF7A3F8EEE700040048FEE7704703
:10113000704780B5FFF78CF980BD70B596B00AADE9
:10114000284608302821FEF7EAFF002412940126E1
:101150000B960A9605940494039402942846FFF78C
:101160001BFB002803D0EFF3108072B6FEE7099452
:10117000089407960720069006A82146FFF74AFA2A
:10118000002803D0EFF3108072B6FEE703940196B7
:1011900001A8FFF7BBF9002803D0EFF3108072B667
:1011A000FEE716B070BD7047B0B5416ACA0707D0F8
:1011B0000122520403685C689443826A22435A60A5
:1011C0008A0707D50122120403685C689443C26A47
:1011D00022435A604A0707D50122920403685C68DB
:1011E0009443026B22435A600A0707D50122D203B7
:1011F00003685C689443426B22435A60CA0607D571
:101200000122120303689C689443826B22439A6014
:101210008A0607D50122520303689C689443C26B77
:1012200022439A604A0610D50122130502685468C9
:101230009C43056C2C4354609D4206D103235B05FF
:1012400054689C43436C23435360090607D501212E
:10125000C904026853688B43806C18435060B0BD6A
:101260007CB50546802000242C50FFF7EDF806469B
:101270002868016809070BD5124800900120410534
:1012800000222846334600F0D3F900280ED1286802
:10129000006840070CD50B48009001208105002212
:1012A0002846334600F0C4F9002801D0032406E0A4
:1012B000284674302021A967E96704702C6620460F
:1012C0007CBDC046FFFFFF0180B5406A0146523138
:1012D00000220A8152214252FFF768FC80BDB0B55E
:1012E000EFF31082012181F3108809235B01046868
:1012F00025689D43256082F31088EFF3108281F307
:10130000108803689C688C439C6082F31088026E8E
:10131000012A0AD1EFF3108281F3108801680B686B
:101320001024A3430B6082F310882021C1670021A1
:1013300041660166B0BD70B55C21435A0268C16F59
:1013400022290ED101465831928C1A40436D1A80E1
:101350004A88521E4A809A1C42654A88002A05D053
:1013600070BD906908210143916170BDEFF3108356
:10137000012282F310880924640105682E68A643BF
:101380002E6083F31088EFF3108382F310880468D3
:10139000A5689543A56083F310882023C3670023C5
:1013A0004366046E012C14D10366EFF3108382F3BD
:1013B00010880468256810229543256083F31088FF
:1013C0000368DC69E40600D51A620988FFF7ECFBC4
:1013D00070BDFFF705FE70BD70B55C21435A026811
:1013E000C16F22290FD101465831928C1A40436DAA
:1013F0001A704A88521E4A80426D521C42654A88C1
:10140000002A05D070BD906908210143916170BD2B
:10141000EFF31083012282F3108809246401056828
:101420002E68A6432E6083F31088EFF3108382F3B7
:1014300010880468A5689543A56083F3108820236D
:10144000C36700234366046E012C14D10366EFF3D7
:10145000108382F310880468256810229543256064
:1014600083F310880368DC69E40600D51A620988F2
:10147000FFF79AFB70BDFFF7B3FD70BDB0B5044632
:10148000006801683A4A0A40A16823690B4365690C
:101490001D43E1690D4315430560032212034368B0
:1014A0009343E2681A434260A269236A13430B2202
:1014B0001202856895431D4385602E4A904209D0EB
:1014C0002D4A904208D12D4800688007000F2CA2B9
:1014D000135802E0002300E010230125EA032C4802
:1014E00091420DD1082B3DD87B441B795B009F4472
:1014F00004391B39153939391A00FFF70DF90FE096
:10150000082B2FD87B441B795B009F44042B202B96
:101510001A2B2B2B1F00FFF7FFF814E0FFF70AF937
:10152000002801D11DE01046400061684A081018EB
:10153000FEF727FE1749014014D00007400F08436B
:101540000DE0FFF7F7F8002801D10AE010466168C6
:101550004A081018FEF715FE80B2102802D3216841
:10156000C860002500206066A0662846B0BDC04661
:10157000F369FFFF00440040003801403010024092
:10158000000000000400000008000000020000004D
:1015900000127A00F0FF000070B5034658201A527E
:1015A000596500205866194658314A809A68002AC1
:1015B00008D001242403A24209D11A69002A08D1C3
:1015C000184A07E01A69002A03D07F2202E08880C7
:1015D00001E0FF228A8088622222DA67EFF310841A
:1015E000012282F310881D68AE681643AE6084F352
:1015F000108814039D68A54202D11C69002C0FD0ED
:101600000A4C08775C66EFF3108182F31088092298
:1016100052011B681C6814431C6081F3108870BD64
:10162000014CEEE7FF01000037130008D913000852
:10163000FEB516460F460468014674310191089DB7
:10164000E1693940C91B4A424A41B24233D1691C5F
:10165000F6D004460293FEF7F7FE029BC01AA8429A
:101660002BD8002D29D02046246821684907E7D5CA
:10167000E1690905E4D50121CA022262EFF3108471
:1016800081F310880D22520103681D6895431D6087
:1016900084F31088EFF3108481F310880268936854
:1016A0008B43936084F3108820218167C16701997F
:1016B0000C460C341CE00020FEBDEFF3108101202D
:1016C00080F310880D22520123681D6895431D6028
:1016D00081F31088EFF3108180F3108822689368FB
:1016E0008343936081F310882020A0677C340199A4
:1016F00000200870202020600320FEBD80B5024835
:10170000FFF756FA80BDC0462400002080B502488D
:10171000FFF74EFA80BDC046A8000020002805D47F
:101720000322034693430C4A9A1806E00F22024014
:10173000083A03239A43074BD2188007C00E890149
:10174000C9B28140FF23834010689843084310606A
:101750007047C0461CED00E000E400E0E0B507A0E3
:1017600000F086FD7D20C00000900E480EA10022F2
:10177000134600F035FD411E88418CBD436C6F73EC
:10178000652054435020636F6E6E656374696F6E9D
:101790003A2073656E642041542B434950434C4FAB
:1017A000534500003C2A0008434C4F5345204F4B03
:1017B00000000000F0B5C5B0EBA000F059FD7D20A1
:1017C0000390C50000270495022F20D8EC4800F0B4
:1017D0004FFD0095012505ACEA48EBA12A462346BA
:1017E00000F0FEFC06462902049D2046FEF797FC09
:1017F000012E0CD0E7A000F03BFDE0480090002255
:10180000EF48F049134600F0EBFC7F1CDCE7EEA04C
:1018100000F02EFD0095F848EA49012605AC324655
:10182000234600F0DDFCF5A12046FEF78FFC0028E2
:101830007ED0370205AC20463946FEF770FCF348EF
:1018400000F016FD0095F248DE4902963246234626
:1018500000F0C6FCEFA12046FEF778FC002801D17D
:1018600000F006FF05A83946FEF759FC0024019751
:10187000032C29D2E94800F0FBFC0095012605AFB6
:10188000E748D04932463B4600F0AAFC3846E549D5
:10189000FEF75CFC002804D0310205A8FEF73FFCEF
:1018A0000CE005AF3846E0A1FEF750FC05463102DA
:1018B0003846FEF734FC002D049D05D00398400106
:1018C000FEF7D4FC641CD3E70026BE4F022E36D8A8
:1018D000D74800F0CDFC0095012505ACD548394628
:1018E0002A46234600F07CFC2046D3A1FEF72EFCBE
:1018F00000281FD105AC2046D0A1FEF727FC039697
:101900003E46074629022046FEF709FC002F3746CF
:10191000039E049D13D1EF4800F0AAFCC348009039
:101920000022ED483946134600F05AFC761CCDE7FC
:1019300031240DE1290205A8FEF7F1FB049D0027E3
:10194000A04E022F23D8BE4800F092FC009505ACB3
:10195000BC483146029A234600F042FC2046BA4970
:10196000FEF7F4FB054620460199FEF7D8FB002D53
:10197000049D0CD0B54800F07BFC8048009000220C
:10198000B3483146134600F02BFC7F1CD9E7B14821
:1019900000F06EFC0095B0488A4901242F4605AD41
:1019A00022462B4600F01CFCAC492846FEF7CEFB35
:1019B00000280CD0AA4800F05BFC0097A948814998
:1019C0000022134600F00CFC002800D1B8E02502EC
:1019D00005AE30462946FEF7A2FBA34800F048FCBE
:1019E0000097A24877492246334600F0F9FBA04908
:1019F0003046FEF7ABFB00281DD09E4E3046FEF76A
:101A0000B9FB30189CA10322FEF770FB3046FEF7AD
:101A1000B1FB301899490922FEF768FB984800F09D
:101A200027FC0097674900223046134600F0D8FB98
:101A3000002800D186E005AE30462946FEF76FFB50
:101A4000904800F015FC009783485E4922463346D3
:101A500000F0C6FB8C493046FEF778FB0446304662
:101A60002946FEF75CFB002C0BD0884800F000FCF8
:101A70000097874887490022134600F0B1FB0028F1
:101A800062D0864800F0F4FB009773484D4901246A
:101A900005AD22462B4600F0A3FB81492846FEF700
:101AA00055FB00281AD0210205AD2846FEF737FB6A
:101AB0007C4800F0DDFB5D4800907B4841492246B0
:101AC0002B4600F08DFB79492846FEF73FFB0028A6
:101AD00004D0774800F0CCFB382439E0210205AD72
:101AE0002846FEF71CFB734800F0C2FB04980090E8
:101AF0005948344922462B4600F072FB6E4928466D
:101B0000FEF724FB002817D105A86C49FEF71EFB41
:101B1000002811D105A86A49FEF718FB00280BD14F
:101B200005A86849FEF712FB002805D105A86649FB
:101B3000FEF70CFB00280ED0644800F099FB07E08C
:101B4000352405E0362403E0534800F091FB3724A8
:101B5000204645B0F0BD5E4800F08AFB05A800F0C5
:101B600087FB0024F4E7C046456E61626C65204740
:101B70005052533A2053746172740000B80B000045
:101B8000A72C0008BF2A00082B4346554E3A2031A7
:101B900000000000456E61626C652070686F6E65C4
:101BA0002066756E6374696F6E616C6974793A2032
:101BB00073656E642041542B4346554E3D31000001
:101BC0009E2A00080D2E0008446574656374206920
:101BD000662053494D2063617264206973207072DE
:101BE0006573656E743A2073656E642041542B43AF
:101BF000534D494E533F0000532A00082B43534D89
:101C0000494E533A20302C31000000007A2C000855
:101C1000492A00085245414459000000522E00084C
:101C2000962A0008A12B000839392C0088130000DF
:101C3000492C00088C2A00082C3100002C350000AB
:101C4000EC2C0008812A0008AA2B0008D72B0008DA
:101C5000B32A0008C12E0008732A0008902F00083C
:101C6000C42F0008D42A0008112D0008692A000892
:101C7000B52F00080C000020544D0000083000086B
:101C8000742B00083B2F0008BB2F0008792E00089A
:101C90005F2A0008FB2F0008102E00086D2F000897
:101CA0009A2F0008992E0008A92A0008932E0008F0
:101CB0003D2E0008052F0008B72E0008D32D000880
:101CC000052E0008A52F00084A2D0008E12F000866
:101CD000232E0008B32B0008C92A0008FCB5009287
:101CE000019099421AD3C91A00200C46884213D891
:101CF000009E019F1D46002D0ED0711C7A1C6D1E8A
:101D000036783F78B7420E461746F4D00199491C01
:101D10000191401C2146E8E7A04201D90020FCBD0A
:101D20000120FCBD96B0FEF79DFBFFF706FA0024EC
:101D300012940127B905314802680A43026002681B
:101D40000A4008920899790402680A43026002680E
:101D50000A4008920899B90402680A4302600268BE
:101D60000A4008920899F90402680A430260006870
:101D700008400890089803200603214D2846314664
:101D80002246FEF75AFB119410940F970E960EA957
:101D90002846FEF77BFAB8030EAEB0838020B082EF
:101DA0007802B08117481490174812901095174880
:101DB0000F9017480E90304600F080FC304600F03F
:101DC00045FBFFF7F7FC08A812A11822FEF78EF9D1
:101DD00016A004A92CC82CC10088088002A8047190
:101DE0001648029016A417A508A8009004A802A9F6
:101DF00022462B4600F04EF9F6E7C046141002408A
:101E00000004004800080048001400480044004056
:101E1000003801404D515454000000000000000003
:101E200000000000000000000000000031382E31EA
:101E300039352E3232382E333900000031383833FC
:101E4000506F0000436C69656E745F3132000000B2
:101E5000F0B5E3B00191064643A856498022FEF74B
:101E600045F955A05B4CA0475BA0A0477D20C7006B
:101E7000009764486449012203AD02922B4600F0AA
:101E8000AFF92846A04761A12846FEF75FF9002870
:101E900017D103A86049FEF759F9002811D103A80A
:101EA0005EA1FEF753F900280BD103A85E49FEF7A7
:101EB0004DF9002805D103A85C49FEF747F9002831
:101EC0005AD05B4800F0D4F9FFF774FC029C210261
:101ED0003C4603AF3846FEF722F943AD284631466B
:101EE000FEF728F9FEF746F9222129542818002682
:101EF000C67081702C21417028460199FEF71AF9AD
:101F0000FEF738F9281850A10322FEF7EFF84FA08A
:101F100000F0AEF9009448492846029D2A463B4607
:101F200000F05EF9002804D0504800F0A1F92E46D8
:101F30001FE025464E48274FB8474E48B84703ACE8
:101F40002046B8474CA12046FEF700F9002810D1E2
:101F500003A84D49FEF7FAF800280AD14B4800F0D3
:101F600087F9009537484A4900263246334600F043
:101F700037F9304663B0F0BD03A82E49FEF7E6F806
:101F80000028029C0BD103A82B49FEF7DFF800289C
:101F900005D103A82949FEF7D9F8002897D0284889
:101FA00000F066F90097274817490022134600F011
:101FB00017F98CE7242900084F70656E20544350B0
:101FC00020636F6E6E656374696F6E3A205354417F
:101FD0005254000071220008436865636B206375EA
:101FE0007272656E742054435020737461747573FB
:101FF0003A2073656E642041542B43495053544139
:1020000054555300E02A00080D2E0008495020497D
:102010004E495449414C0000BB2F00084950204311
:102020004F4E4649470000009A2F0008902F0008A5
:10203000092C0008D32D0008052E0008A52F000844
:10204000932D0008EE2A0008220D000041747465EB
:102050006D707420746F206F70656E205443502033
:10206000636F6E6E656374696F6E0000E22D000829
:10207000582B0008F32B0008434F4E4E4543542085
:102080004641494C00000000932E0008552D0008E1
:10209000FB2D0008F0B5A3B01C4617460291019035
:1020A0002BA000F0E5F82046FEF764F8064603ADE5
:1020B0002D4980222846FEF719F86E73300A2873DE
:1020C0000F200002688130460C306870B0B20021E9
:1020D000289DCAB2904205D903ABD318A25C9A736B
:1020E000491CF6E73846FEF745F880B200214A1C45
:1020F000C9B288421146FAD82846FEF73BF80021BB
:102100004A1CC9B288421146FAD818A000F0B0F8AB
:102110000E36F1B203A800F0CDF81AA000F0A8F82E
:1021200001980299FFF794FE00280DD01BA000F043
:102130009FF821A0052100F02DF921A000F098F8CA
:10214000FFF70CFB012000E0002023B0F0BDC046EB
:102150004D5154542070726F746F636F6C3A2053FA
:102160005441525400000000A4290008434F4E4E31
:10217000454354207061636B657420636F6E7465B2
:102180006E743A005055424C495348207061636B5D
:10219000657420636F6E74656E743A0053656E6487
:1021A000696E67204D515454205055424C49534854
:1021B000205061636B65740068656C6C6F00000093
:1021C00053656E64696E67204D51545420444953E1
:1021D000434F4E4E454354205061636B657400007D
:1021E000F0B5A5B0019303920C460546FDF7C2FF7A
:1021F00082B2F548642302952946FEF70BFF0025BD
:102200002A9804902E46002D12D1049886420FD2AF
:102210002046FDF7AFFF0346012739025948224601
:10222000FFF75CFD05463846FEF720F8761CEAE726
:1022300005AC53492046324600F0A2FA20460299E6
:10224000FDF778FF00F014F80398012805D101206C
:1022500002024C490198FDF749FF0120010249485B
:10226000FDF75DFFDA4800214170E8B225B0F0BD0E
:10227000FEB5044620486F4639460CC80CC10078AC
:1022800008703846FDF776FF82B2CD4E64253046A1
:1022900039462B46194FB8472046FDF76BFF82B2EF
:1022A000304621462B46B8471549022230462B4678
:1022B000B847FEBDF0B585B0019100900E4802AC64
:1022C00021460CC80CC1007808702046FDF752FF6B
:1022D00082B2BB4F6426094D384621463346A84793
:1022E00038460099019A3346A847054902223846E4
:1022F0003346A84705B0F0BDFC2F000815100008B4
:10230000FB2A0008F0B5A1B01E4600920A4601461D
:102310001A486423FEF77EFE00252F46002D0ED1BD
:10232000B7420CD2012421020723164817A2FFF757
:10233000D5FC05462046FDF799FF7F1CEEE701AC72
:102340000F4920463A4600F01BFA2046FFF790FF5F
:102350000C4C2046FFF78CFF012006020098214616
:102360003246FDF7C3FE20463146FDF7D8FE06484B
:1023700000214170E8B221B0F0BDC0462400002029
:10238000022B00082C0100202000002053454E4461
:10239000204F4B00F0B5C7B00C46054641AE10A12A
:1023A00018223046FDF7A2FE13A13046224600F067
:1023B000E7F915A0FFF75CFF7D20C70000971DA17E
:1023C000002230461346FFF70BFF1BA0FFF750FF1C
:1023D00001AA284621463B46FFF794FF47B0F0BDCF
:1023E00041542B43495053454E443D0000000000EA
:1023F000000000000000000041542B4349505345A9
:102400004E443D25640D0000496E69746961746530
:1024100020544350207472616E736D697373696FD9
:102420006E3A2073656E642041542B4349505345E6
:102430004E443D003E00000053656E64696E6720A7
:10244000544350206C6F616400000000F0B589B007
:1024500004465B4800270C255A49076247624B2215
:102460005602C2C0076047608560C76007610C38CC
:10247000FEF7F6FC002801D0FDF7B4FE52485349A0
:10248000C2C0076047608560C760076147618761B8
:102490000C38FEF7E5FC002801D0FDF7A3FE4A4802
:1024A0004B4901252A46FEF765FD08972069A18A58
:1024B0002A46FDF7C2FF0797069711200290059064
:1024C000A08A0490206904AE3146424A9047A1890F
:1024D000A06803952A46FDF7B0FF07970697029874
:1024E0000590A0890490A06831463A4DA847079707
:1024F00006970597A08B0490A0693146A8477D20D8
:10250000C600A18BA069FDF78BFF002814D1022F14
:1025100012D8A189A0680022FDF78FFF3046C8308D
:10252000FDF7A4FEA189A0680122FDF786FF6420C3
:10253000FDF79CFE7F1CE4E727A0FFF799FEA18B27
:10254000A069FDF76DFF03990D032B4F002820D0E4
:102550000124384629462246FDF76FFF1A48274FC7
:10256000032264233946FEF755FD2548FDF77EFE1C
:10257000009624A1002538462A462B46FFF730FE58
:10258000012813D12AA0FFF773FE31A0FFF770FED8
:1025900013E01D48FFF76CFE3448FFF769FE002486
:1025A000384629462246FDF748FF06E01648FFF761
:1025B0005FFE16A0FFF75CFE2C46204609B0F0BD7A
:1025C000A800002000440040240000200038014002
:1025D000200000208D02000853797374656D206916
:1025E0006E697469616C697A6174696F6E3A2053BF
:1025F000746172746564000000040048FE2A0008DB
:10260000B80B00004F4B0000162B00085265617399
:102610006F6E3A2053494D383038206973206E6F01
:102620007420726573706F6E64696E6700000000DD
:1026300053797374656D20696E697469616C697A28
:102640006174696F6E3A20535543434553530000FC
:1026500053494D383038206D6F64756C652069734F
:1026600020726573706F6E7369766500342B000895
:10267000B0B586B00CA002AC21462CC82CC10078A5
:1026800008702046FDF776FD0D2121542018002208
:1026900042707D20C0000090074920461346FFF796
:1026A0009FFD012006B0B0BD41542B4350494E3D23
:1026B00000000000000000000D2E0008B0B5044628
:1026C0001AA0FFF7D5FD0025A18BA069FDF7A8FE94
:1026D000002814D0022D12D8A189A0680022FDF78D
:1026E000ACFE4B200001FDF7C1FDA189A0680122CD
:1026F000FDF7A3FE6420FDF7B9FD6D1CE4E7A18B97
:10270000A069FDF78DFE002804D00FA0FFF7B0FDF3
:10271000002408E012A0FFF7ABFD012421031748B5
:102720000022FDF78AFE2046B0BDC046506F776597
:1027300072206F6666204D6F64756C6520696E69E6
:102740007469617465640000506F776572206F660C
:1027500066204D6F64756C653A204641494C000017
:10276000506F776572206F6666204D6F64756C657B
:102770003A2053554343455353000000000400489A
:102780000FB410B504A9074B02AA039800F01CF877
:10279000044602A9002000F0BFF8204610BC08BC87
:1027A00004B018471929000802E008C8121F08C120
:1027B000002AFAD170477047002001E001C1121FC2
:1027C000002AFBD170470000FFB58DB004460025FC
:1027D00006E025280AD0109A0F999047641C6D1CBA
:1027E00020780028F5D1284611B0F0BD002701213E
:1027F000484A009700E00743641C23780846203BC2
:1028000098401042F7D120782E2817D10420074392
:102810006078641C2A280CD10E98641C02C80091B0
:102820000E900BE000990A22514330394018641C85
:1028300000902078014630390929F3D92078002802
:10284000D1D0642808D0692806D075281ED0109AE7
:102850000F9990476D1C5BE00A200E99019001C909
:102860000E91002802DA40422D2102E0390504D5FC
:102870002B216A461172012103E0F90704D02021BF
:10288000F7E70BAE0B910DE00021FAE70A200E9955
:10289000019001C90E91F7E70199FDF772FC303103
:1028A000761E31700028F7D103A8801B20300190DC
:1028B000780701D5009801E0012000900199884235
:1028C00001DD401A00E000200027009006E002A889
:1028D000109AC05D0F9990476D1C7F1C0B98874222
:1028E000F5DB04E0109A30200F9990476D1C009999
:1028F000481E00900029F5DC05E03078109A761C1F
:102900000F9990476D1C0199481E01900029F4DC35
:10291000641C65E7092801000A68531C0B601070ED
:102920007047000041542B43495053544152543D89
:1029300022544350222C220000000000000000001E
:102940000000000000000000000000000000000087
:102950000000000000000000000000000000000077
:102960000000000000000000000000000000000067
:102970000000000000000000000000000000000057
:102980000000000000000000000000000000000047
:102990000000000000000000000000000000000037
:1029A00000000000101000044D51545404020000B7
:1029B0000000000000000000000000000000000017
:1029C0000000000000000000000000000000000007
:1029D00000000000000000000000000000000000F7
:1029E00000000000000000000000000000000000E7
:1029F00000000000000000000000000000000000D7
:102A000000000000000000000000000000000000C6
:102A100000000000000000000000000000000000B6
:102A2000000000000000000000000000010203049C
:102A300006070809000000000102030441542B436B
:102A40004950434C4F53450D0041542B4350494E80
:102A50003F0D0041542B43534D494E533F0D004110
:102A6000542B43494943520D0041542B4353545472
:102A70003F0D0041542B4349505354415455530D7D
:102A80000041542B43474154543F0D0041542B43C4
:102A90005245473F0D0041542B4353510D004154C3
:102AA0002B4346554E3D310D0041542B434946536F
:102AB000520D0041542B43474154543D310D0041C8
:102AC000542B4346554E3F0D0041542B435245472E
:102AD0003D310D0041542B434950534855540D008E
:102AE00041542B4349505354415455530D004154C4
:102AF0002B434950434C4F53450D000D0A004154A0
:102B00000D0046696E697368656420696E202564EE
:102B1000206D733A200053797374656D20696E6976
:102B20007469616C697A6174696F6E3A20464149D3
:102B30004C454400526561736F6E3A2053494D38DD
:102B400030382063616E6E6F7420626520706F771D
:102B500065726564206F6E004F70656E205443503F
:102B600020636F6E6E656374696F6E203A20464114
:102B7000494C2000646566696E65205044502063AE
:102B80006F6E746578743A2073656E642041542BBF
:102B9000435354543D2241504E222C22222C2222B7
:102BA000002B4353513A20302C0043474154543AB0
:102BB000203000526567697374657220746F206EEF
:102BC0006574776F726B3A2073656E642041542B85
:102BD000435245473D31004174746163682050445D
:102BE000503A2073656E642041542B43474154543E
:102BF0003D310042756666657220636F6E74656E66
:102C0000742062656C6F773A005443502063616EA4
:102C10006E6F7420626567696E20626563617573AB
:102C2000652047505253206973206E6F742072657F
:102C30006164793A2063616C6C20656E61626C65D9
:102C40005F6770727328293B00436865636B204E91
:102C50006574776F726B2052656769737472617403
:102C6000696F6E205374617475733A2073656E6476
:102C70002041542B435245473F00436865636B2016
:102C800069662050494E20636F6465206973207225
:102C9000657175697265643A2073656E642041548C
:102CA0002B4350494E3F00436865636B20696620A3
:102CB00070686F6E652066756E6374696F6E616CA7
:102CC000697479206F6620746865206D6F64756C17
:102CD0006520697320656E61626C65643A20736576
:102CE0006E642041542B4346554E3F004368656354
:102CF0006B206966204750525320697320617474B9
:102D000061636865643A2041542B43474154543F02
:102D100000436865636B2069662050445020636FF0
:102D20006E7465787420697320636F727265637462
:102D30006C7920646566696E65643A2073656E64BB
:102D40002041542B435354543F0054435020434C90
:102D50004F534544004F70656E2054435020636FBD
:102D60006E6E656374696F6E2074696D656F7574DE
:102D70002E20646973636F6E6E656374696E672E6F
:102D80002073656E643A2041542B434950434C4FA5
:102D90005345004F70656E2054435020636F6E6E34
:102DA000656374696F6E2064657465637465642C13
:102DB000207465726D696E6174696E672069742E26
:102DC0002073656E643A2041542B434950434C4F65
:102DD00053450054435020434F4E4E454354494EB3
:102DE00047004F70656E2054435020636F6E6E65D0
:102DF0006374696F6E203A204F4B00434C4F53452C
:102E000044204F4B00434F4E4E454354204F4B0000
:102E10004163746976617465205044503A2046419C
:102E2000494C00496E7465726E657420436F6E6E16
:102E3000656374696F6E3A204641494C004765747A
:102E400020495020616464726573733A2046414999
:102E50004C00436865636B20475052532073696789
:102E60006E616C207571616C6974793A2073656E5E
:102E7000642041542B43535100416374697661745B
:102E800065205044503A73656E642041542B434989
:102E90004952004552524F52004765742049502014
:102EA000616464726573733A2073656E6420415483
:102EB0002B434946535200495020535441545553D3
:102EC00000436865636B2069662050445020636F3F
:102ED0006E746578742069732064656163746976C3
:102EE00061746564205B5044502044454143545D07
:102EF0003A2073656E64202041542B43495053544B
:102F0000415455530020436865636B206966204730
:102F100050525320636F6E6E656374696F6E2069E3
:102F2000732072656164793A2053656E6420415460
:102F30002B43495053544154555300436865636BC8
:102F40002069662050445020636F6E746578742049
:102F50006973206163746976653A2073656E6420D5
:102F600041542B43495053544154555300436865D1
:102F7000636B204950207374617475733A207365D4
:102F80006E642041542B43495053544154555300CF
:102F9000504450204445414354004950204750522A
:102FA0005341435400414C524541445920434F4EF4
:102FB0004E45435400434D4E455400495020535410
:102FC000415254005B5044502044454143545D20DD
:102FD00073656E64202041542B4349505348555427
:102FE00000496E7465726E657420436F6E6E656322
:102FF00074696F6E3A205265616479004465627548
:1030000067203E2000000000222C22222C22220DCC
:103010000000000038300008000000202000000000
:10302000A8270008583000082000002010060000E3
:10303000B8270008000000000100000004000000A4
:1030400000127A0041542B435354543D2200000097
:08305000000000000000000078
:04000005080000BD32
:00000001FF
