:020000040800F2
:1000000040060020D10000080D110008F110000882
:1000100000000000000000000000000000000000E0
:1000200000000000000000000000000011110008A6
:1000300000000000000000000F110008131100086C
:10004000E3000008E3000008E3000008E300000804
:10005000E3000008E3000008E3000008E3000008F4
:10006000E3000008E3000008E3000008E3000008E4
:10007000E3000008E3000008E3000008E3000008D4
:10008000E3000008E300000800000000E3000008AF
:10009000E3000008E3000008E3000008E3000008B4
:1000A000E3000008E3000008E3000008DD16000894
:1000B000E916000800000000E30000080348854638
:1000C00000F072F80048004735170008400600208D
:1000D0000448804704480047FEE7FEE7FEE7FEE7E6
:1000E000FEE7FEE787110008BD00000803460B434A
:1000F0009B0703D009E008C9121F08C0042AFAD2DE
:1001000003E00B780370401C491C521EF9D2704763
:10011000D2B201E00270401C491EFBD2704700229F
:10012000F6E710B513460A4604461946FFF7F0FFF6
:10013000204610BD30B505462A460B4610781C787F
:10014000521C5B1C002801D0A042F7D0002C03D029
:10015000002802D06D1CEFE7284630BD421C017814
:10016000401C0029FBD1801A704770B50446002955
:1001700003D000202022012310E0002801D000201D
:10018000C043C046C0460DE02546D5408D4205D34C
:100190000D469540641B1D46954040191546521E5C
:1001A000002DF1DC214670BD064C0125064E05E010
:1001B000E36807CC2B430C3C98471034B442F7D388
:1001C000FFF780FF801B0008A01B0008EFF31080E2
:1001D00072B6FEE710B52121425C01462031022AA9
:1001E00010D1026813680E24A3431360136801241E
:1001F000A3431360C26B006C2346834053604C7072
:10020000002002E004228263012000220A7010BD57
:10021000B0B52121415C022917D101462031026885
:1002200013680E24A343136013680125AB431360C6
:10023000C26B036C2C469C40546000240C704D70C3
:10024000416B002904D0884702E004218163012426
:100250002046B0BDB0B5044600F0EAF80546601C83
:1002600002D090480078041900F0E2F8401BA04248
:10027000FAD3B0BDF0B588B007465E48874201D0DA
:10028000052000E003200090002206921446059706
:100290000E683046E04000D1AAE001250295A54055
:1002A0002E4000D19EE0049403924A680323144632
:1002B0001C40601E01281AD803230192069A93401D
:1002C000B8689843CF6897400743059887600198BE
:1002D000C006C00F049A9040059F7F68AF43074354
:1002E00005984760059FD8435500019A08E01846D5
:1002F000069DA840C043032C02D1069D1C461CE06D
:10030000FB6803408F68AF401F43059BDF60059F7C
:10031000022C12D11C22039B1A400F239340049CF1
:10032000E408A4003C19276A9F430B6993403B43B0
:10033000059F23624A6803241440AC403B68034095
:1003400023433B609003800F039A049C4AD0604B88
:100350001868029D284318601868284007902346B3
:100360000C2414400F20A04003229343079A234DEE
:100370005A5982435B190920C006874208D0204899
:10038000874207D01F488742009804D1022002E02C
:10039000002000E00298A040104318601648006852
:1003A0004B68DA0301D5304300E0B043049C124AA5
:1003B000106050689A0301D5304300E0B0430E4A04
:1003C00050609068DA0201D5304300E0B0430A4A39
:1003D0009060D0689A0201D5304300E0B043039AA0
:1003E000054BD860121D0698801C0690641C4FE7D0
:1003F00008B0F0BD000C00480004014008000140B6
:10040000000400480008004800690840411E884177
:10041000704742690B4693430A401104C918816131
:100420007047002A01D0182200E02822815070472E
:10043000054800687047C0461A48007802490A68B3
:10044000101808607047C0463C02002080B5A948DB
:10045000016810220A430260032000F005F800F052
:1004600023F8002080BDC04670B504467D20C00042
:100470000C4E3178FFF779FE0146A6480068FFF779
:1004800074FE00F06BFB0125032C08D8002806D170
:100490000025E84321462A4600F028F874602846E3
:1004A00070BDC0460000002082B0094801680122EA
:1004B00011430160016811400191019911074268DF
:1004C0000A434260406808400090009802B07047BC
:1004D00018100240002805D41F2108400121814046
:1004E000014801607047C04600E100E080B501F0BE
:1004F00001F980BDF0B585B004468078C0073C4B5B
:100500004AD001200390010718680840029006D1E4
:10051000186808431860186808400490049801910E
:10052000344E3068C00511D4039807023068384350
:100530003060FFF77DFF05463068384206D1FFF78F
:1005400077FF401B6428F7D903253FE003252802E5
:10055000274B5968014012D06268024091420ED088
:100560000398000459685A6802435A605A688243E3
:100570005A600846204A10405860C80729D1586878
:100580001D4908406168014359600298002803D161
:1005900018680199884318602068C10705D0596917
:1005A00003229143A2680A435A61810605D559691D
:1005B00010229143E2680A435A610025400505D59F
:1005C000586940218843216901435961284605B093
:1005D000F0BDFFF72DFF0646474F054B58688007D3
:1005E000CDD4FFF725FF801BB842F6D9EEE7C04611
:1005F0001C10024000700040FFFCFFFFF8B500280F
:100600004CD004463B4A1368012003408B4208D279
:1006100013680126B3430B431360126832408A42C9
:1006200066D1009121688A070ED54A0705D50722B1
:100630001202484D2B6813432B60464D2A68F02365
:100640009A43A36813432B60C90729D12949086835
:1006500001263040009A904205D90868B0430860EE
:100660000868C00744D12078400707D5072000025A
:10067000384A11688143E0680843106000F04EF882
:10068000344909680906090F1C4A515CC8402149D0
:1006900008600320FFF7E8FE002629E0012627E096
:1006A00061682C4A121F022904D0012905D1126861
:1006B000920304E01268920101E012689207064674
:1006C00016D5244A10680326B04308431060FFF78C
:1006D000AFFE0746084D1F4800680C2101406068C6
:1006E00080008142B2D0FFF7A3FEC01BA842F2D91E
:1006F0003046F8BD00200240881300004E1B000861
:1007000004480068134909684905490F024A515CC9
:10071000C8407047080000205E1B000810B50D4956
:100720000A680C2313400C48082B08D193021B0FB6
:100730000AA4E45C896AD20303D4104807E00446A3
:1007400006E00F22114009A2515CFFF70EFD444361
:10075000204610BD0410024000127A000203040576
:10076000060708090A0B0C0D0E0F101001020304F6
:1007700005060708090A0B0C0D0E0F1000093D00B5
:10078000F0B587B004460120002C00D1BCE10490F4
:100790002078C007EE4E059426D071680C200140E9
:1007A00004291AD071680140082902D17068C00379
:1007B00013D4616801204704002900D178E105299C
:1007C00000D18CE1012900D18DE1010432688A4316
:1007D000326081043068884388E13068800303D543
:1007E0006068002800D1B5E0207880071AD57068CD
:1007F0000007800F07D070680C210140082971D1D3
:100800007068C0036ED430688007059C03D5E0682B
:10081000012800D09EE03068F82188432169C90092
:1008200001433160059C2078000724D420784007DC
:1008300034D42078C00600D4ABE005984069411D4F
:1008400000D19AE0012800D0EAE0706B0421014356
:100850007163706B012101437163FFF7E9FD054688
:10086000706B800700D58CE0FFF7E2FD411B032091
:100870000229F5D948E1706AE16900295AD00121BD
:1008800008437062FFF7D4FD0546706A8007CDD437
:10089000FFF7CEFD401B0228F7D934E10120039079
:1008A0000107F0690840029006D1F0690843F06141
:1008B000F0690840069006980191A64F3868C00577
:1008C00024D403980402386820433860FFF7B0FD51
:1008D00005463868204219D1FFF7AAFD401B64285D
:1008E000F7D910E13068059CE168002934D0012176
:1008F00008433060FFF79CFD0546306880078AD4C6
:10090000FFF796FD401B0228F7D9FCE005988068A8
:10091000914F002800D198E0052800D1AAE00128D5
:1009200000D1ABE0306A039988433062306A042119
:100930008843A6E0012188437062FFF779FD0546F0
:10094000706A800700D471E7FFF772FD401B022830
:10095000F6D9D8E00498D7E0012188433060FFF74A
:1009600067FD05463068800700D45BE7FFF760FD50
:10097000411B03200229F5D9C6E0706B042188438E
:100980007063706BF821884305998969C900014338
:1009900071630598046A002C1ED070680C21014018
:1009A00008291BD1012C049800D1ADE001200304DB
:1009B00071680B40F26A059D6C6AA34200D0A3E007
:1009C0000F231A40EC6AA24200D09DE09A04114025
:1009D000AA6A914200D097E0002095E0012002062B
:1009E00031680492914331604706FFF721FD0546C7
:1009F000022C0BD1049C3068384200D186E0FFF70E
:100A000017FD411B03200229F5D97DE030683842EB
:100A1000E2D0FFF70DFD411B03200229F6D973E058
:100A2000706B042101437163706B01218843706313
:100A3000FFF7FEFC0546706B8007AAD5FFF7F8FCB0
:100A4000411B03200229F6D95EE0306A03998843EE
:100A50003062306A042188433062FFF7E9FC0546C2
:100A6000306A80071AD5FFF7E3FC411B0320B94227
:100A7000F6D949E0306A042101433162306A0399B2
:100A800008433062FFF7D4FC0546306A800705D47E
:100A9000FFF7CEFC401BB842F7D934E0029800289B
:100AA000059C00D0C5E6F06901998843F061C0E675
:100AB000010432688A4332608004316881433160C6
:100AC000FFF7B6FC0546059C3068384200D18BE63E
:100AD000FFF7AEFC411B03206429F5D914E0810423
:100AE00032680A4332600104306808433060FFF71F
:100AF0009FFC05463068384200D075E6FFF798FC49
:100B0000401B6428F6D9032007B0F0BDF06A0F211E
:100B10008843059AD16A0143F1623D20000471685F
:100B20008143906A0843516A0143716030682043F1
:100B30003060FFF77DFC04463068384200D04BE758
:100B4000FFF776FC011B03200229F5D9DCE7C0463C
:100B5000001002400070004088130000401E010E8B
:100B600001D0012070470749074A506007480368D1
:100B70000B4003218907591801600020906007216C
:100B800011607047FFFFFF0010E000E020ED00E083
:100B90007047704770470000FEB505460068C2699F
:100BA00007680195583584680126F30219460F310C
:100BB0000A42029762D0A149394027463740791846
:100BC00061D0D10706D00299C90503D50662A96A8A
:100BD0003143A96202241146009421404C424C4109
:100BE00079427941214305D100990162A96A04241F
:100BF0000C43AC627C427C415107314600D5214612
:100C0000002905D104210162A96A009C2143A9623F
:100C100011070CD5791E8F410299890600D43E46F2
:100C2000012E04D108210162AC6A0C43AC621A4265
:100C300007D00299490104D50362A96A20230B4316
:100C4000AB62A96A0029019E47D0910608D5029996
:100C5000890605D5716E002902D030468847306874
:100C6000A96A28220A4080684024204080183BD18D
:100C70003046FFF78FFF0020A862FEBD910602D527
:100C80000299890653D4019F396E012904D1D106F6
:100C900002D50299C90650D40123D10201D56102BF
:100CA0001CD4100602D5029800063BD4500614D579
:100CB0000298400611D5EFF3108083F3108839684D
:100CC0000A6840239A430A6080F310880020B866BF
:100CD0002020B867384600F009FAFEBD1905016208
:100CE0003846FFF756FFFEBD304600F0E8FA3068A0
:100CF0008068400655D5EFF31080012181F31088FC
:100D000031688A68A2438A6080F31088306F0028B7
:100D100047D04B494163FFF77BFA0028DDD0306FA5
:100D2000416B08E0B96E0029D7D0384603E001983E
:100D3000416E0029D1D08847FEBD10210162806834
:100D4000400632D468882A886B88002BC5D0101AD8
:100D50000204C2D0EFF31083012282F31088092429
:100D600064013D682E68A6432E6083F31088EFF37C
:100D7000108382F310883C68A5689543A56083F3CF
:100D800010882023FB6700237B663B66EFF310830C
:100D900082F310883A6814688C43146083F31088D7
:100DA00046E03046FFF7F6FEFEBD3A6F1068436836
:100DB0009CB2002C91D0288884428ED26B8092699C
:100DC000202A33D0EFF31082012080F310881D4BCE
:100DD00020333C6826681E40266082F31088EFF3BB
:100DE000108280F310883B689C6884439C6082F387
:100DF0001088EFF3108280F310883B689C684026CF
:100E0000B4439C6082F310882022FA6700223A667D
:100E1000EFF3108280F31088386803688B43036017
:100E200082F31088386FFFF7D5F928886988401A4F
:100E300081B23846FFF7ACFEFEBDC046200100047B
:100E4000A9120008DFFEFFFFB0B500282ED004462F
:100E5000806F002805D1742000212154204600F025
:100E600029F82420A067206801680125A9430160B2
:100E7000204600F0F3FA012819D0606A002802D059
:100E8000204600F081F90920C00221684A688243A7
:100E90004A6088682A2290438860086801220243D9
:100EA0000A60204600F0CCF9054600E001252846FE
:100EB000B0BD0000B0B586B0044601A81421FFF70C
:100EC0002EF920682349884219D0494988423FD1E8
:100ED00001208103204A53680B43536053680B4041
:100EE00000930099400411680143116011680140AA
:100EF000009103204002019000981B2413E0012080
:100F0000400415498A6802438A608A680240009258
:100F1000009A0A6802430A600968014000910C20A7
:100F2000019000981C2401200590032004900025C6
:100F30000395022002900920C00601A9FFF79AF943
:100F4000204629462A46FFF7D1FA2046FFF7C2FA83
:100F500006B0B0BD0044004014100240F8B5C36FA5
:100F60000225202B2AD10124002928D0002A26D0AE
:100F700001231C038668A64204D10469002C01D118
:100F8000CC071ED17424045D012C2C4617D00546D5
:100F90007435002404662B7005686D682D020AD52F
:100FA000EFF3108583F310889B06066837681F43AC
:100FB000376085F3108800F0DFFA00E02C46204609
:100FC000F8BD1C46FBE7000080B500680849884270
:100FD00000D080BD074841780278531C0370064B4F
:100FE0009954411C05480122FFF7B8FF80BDC04657
:100FF00000380140100000203C01002014000020B7
:10100000F0B587B006930746836F0220202B2FD1BF
:10101000012500292DD0002A2BD001231D03BC68F7
:10102000AC4204D13C69002C01D1CC0724D10395FA
:101030003E4674363478012C05461AD0049101924C
:101040003C4650340025F560029633702120B86785
:10105000FFF7EEF90590019860802080B868039949
:10106000884202D13869002808D0049E049506E021
:101070000546284607B0F0BD1D46FAE7002602984F
:101080000570608800281ED00698009080210025F9
:1010900038462A46059B00F0BBFA00281ED1002ED8
:1010A00004D0307839680885761C08E0049A1088E6
:1010B0000D49084039680885921C04922E466088C4
:1010C000401E6080DDE706980090402100253846EC
:1010D0002A46059B00F09CFA002801D00325C8E7AA
:1010E0002020B867C5E7C046FF0100007047000038
:1010F000054C012569032046FFF78BF9290320469B
:10110000FFF787F9F5E7C04600040048FEE770479F
:10111000704780B5FFF790F980BD70B596B00AAD05
:10112000284608302821FEF7FAFF002412940126F1
:101130000B960A9605940494039402942846FFF7AC
:101140001FFB002803D0EFF3108072B6FEE709946E
:10115000089407960720069006A82146FFF74EFA46
:10116000002803D0EFF3108072B6FEE703940196D7
:1011700001A8FFF7BFF9002803D0EFF3108072B683
:10118000FEE716B070BD7047B0B5416ACA0707D018
:101190000122520403685C689443826A22435A60C5
:1011A0008A0707D50122120403685C689443C26A67
:1011B00022435A604A0707D50122920403685C68FB
:1011C0009443026B22435A600A0707D50122D203D7
:1011D00003685C689443426B22435A60CA0607D591
:1011E0000122120303689C689443826B22439A6035
:1011F0008A0607D50122520303689C689443C26B98
:1012000022439A604A0610D50122130502685468E9
:101210009C43056C2C4354609D4206D103235B051F
:1012200054689C43436C23435360090607D501214E
:10123000C904026853688B43806C18435060B0BD8A
:101240007CB50546802000242C50FFF7F1F80646B7
:101250002868016809070BD5124800900120410554
:1012600000222846334600F0D3F900280ED1286822
:10127000006840070CD50B48009001208105002232
:101280002846334600F0C4F9002801D0032406E0C4
:10129000284674302021A967E96704702C6620462F
:1012A0007CBDC046FFFFFF0180B5406A0146523158
:1012B00000220A8152214252FFF76CFC80BDB0B57A
:1012C000EFF31082012181F3108809235B01046888
:1012D00025689D43256082F31088EFF3108281F327
:1012E000108803689C688C439C6082F31088026EAF
:1012F000012A0AD1EFF3108281F3108801680B688C
:101300001024A3430B6082F310882021C1670021C1
:1013100041660166B0BD70B55C21435A0268C16F79
:1013200022290ED101465831928C1A40436D1A8001
:101330004A88521E4A809A1C42654A88002A05D073
:1013400070BD906908210143916170BDEFF3108376
:10135000012282F310880924640105682E68A643DF
:101360002E6083F31088EFF3108382F310880468F3
:10137000A5689543A56083F310882023C3670023E5
:101380004366046E012C14D10366EFF3108382F3DD
:1013900010880468256810229543256083F310881F
:1013A0000368DC69E40600D51A620988FFF7F0FBE0
:1013B00070BDFFF709FE70BD70B55C21435A02682D
:1013C000C16F22290FD101465831928C1A40436DCA
:1013D0001A704A88521E4A80426D521C42654A88E1
:1013E000002A05D070BD906908210143916170BD4C
:1013F000EFF31083012282F3108809246401056849
:101400002E68A6432E6083F31088EFF3108382F3D7
:1014100010880468A5689543A56083F3108820238D
:10142000C36700234366046E012C14D10366EFF3F7
:10143000108382F310880468256810229543256084
:1014400083F310880368DC69E40600D51A62098812
:10145000FFF79EFB70BDFFF7B7FD70BDB0B504464A
:10146000006801683A4A0A40A16823690B4365692C
:101470001D43E1690D4315430560032212034368D0
:101480009343E2681A434260A269236A13430B2222
:101490001202856895431D4385602E4A904209D00B
:1014A0002D4A904208D12D4800688007000F2CA2D9
:1014B000135802E0002300E010230125EA032C4822
:1014C00091420DD1082B3DD87B441B795B009F4492
:1014D00004391B39153939391A00FFF711F90FE0B2
:1014E000082B2FD87B441B795B009F44042B202BB7
:1014F0001A2B2B2B1F00FFF703F914E0FFF70EF94F
:10150000002801D11DE01046400061684A0810180B
:10151000FEF72BFE1749014014D00007400F084387
:101520000DE0FFF7FBF8002801D10AE010466168E2
:101530004A081018FEF719FE80B2102802D321685D
:10154000C860002500206066A0662846B0BDC04681
:10155000F369FFFF004400400038014030100240B2
:10156000000000000400000008000000020000006D
:1015700000127A00F0FF000070B5034658201A529E
:10158000596500205866194658314A809A68002AE1
:1015900008D001242403A24209D11A69002A08D1E3
:1015A000184A07E01A69002A03D07F2202E08880E7
:1015B00001E0FF228A8088622222DA67EFF310843A
:1015C000012282F310881D68AE681643AE6084F372
:1015D000108814039D68A54202D11C69002C0FD00D
:1015E0000A4C08775C66EFF3108182F310880922B9
:1015F00052011B681C6814431C6081F3108870BD85
:10160000014CEEE7FF01000017130008B9130008B2
:10161000FEB516460F460468014674310191089DD7
:10162000E1693940C91B4A424A41B24233D1691C7F
:10163000F6D004460293FEF7FBFE029BC01AA842B6
:101640002BD8002D29D02046246821684907E7D5EA
:10165000E1690905E4D50121CA022262EFF3108491
:1016600081F310880D22520103681D6895431D60A7
:1016700084F31088EFF3108481F310880268936874
:101680008B43936084F3108820218167C16701999F
:101690000C460C341CE00020FEBDEFF3108101204D
:1016A00080F310880D22520123681D6895431D6048
:1016B00081F31088EFF3108180F31088226893681B
:1016C0008343936081F310882020A0677C340199C4
:1016D00000200870202020600320FEBD80B58748D0
:1016E000FFF75AFA80BDC04680B56D48FFF754FA3F
:1016F00080BDC046002805D40322034693430C4A0C
:101700009A1806E00F220240083A03239A43074B37
:10171000D2188007C00E8901C9B28140FF238340DF
:1017200010689843084310607047C0461CED00E005
:1017300000E400E088B0FEF789FEFFF7EEFC00242D
:1017400005940127B905284802680A430260026827
:101750000A4007920799790402680A430260026806
:101760000A4007920799B90402680A4302600268B6
:101770000A4007920799F90402680A430260006868
:1017800008400790079803200603E54D2846314698
:101790002246FEF746FE049403940297019601A99F
:1017A0002846FEF767FDB90310488183104981611F
:1017B000802181820F49016179028181D349D54A13
:1017C00002604160856000F005F900F09DF801AC11
:1017D000204600F0C9F8204600F03AF87D20C0000D
:1017E000FEF738FDF3E7C046141002401C0100204C
:1017F0000008004800140048FEB50C46009004267E
:1018000001913F4D761E20D0019820180290009F34
:101810003846FEF7A3FC82B26423BD483946FFF781
:10182000EFFB2046FEF716FD28463649FEF782FC00
:101830000446012739022846FEF771FC0020B6490C
:101840000870002C029CDDD000E000273846FEBD69
:10185000FEB504460FA06F4639460CC80CC100788F
:1018600008703846FEF77AFC82B20D4E6425304689
:1018700039462B460B4FB8472046FEF76FFC82B225
:10188000304621462B46B84707A1022230462B4658
:10189000B847FEBD4465627567203E200000000029
:1018A00098000020011000080D0A000070B51546D0
:1018B0000C460646FEF752FC82B295486423314638
:1018C000FFF79EFB2846FEF7C5FC012005020C4EE3
:1018D000204631462A46FEF709FC0A493046FEF703
:1018E00029FC044630462946FEF719FC8A480021A7
:1018F0000170601E8441204670BDC0461400002067
:101900003C0100207A1B000870B588B00EA104A825
:10191000024638C938C2098811800FA16C46224698
:1019200068C968C209881180C8252946FFF764FF85
:101930000646401E864120462946FFF75DFF411EB0
:101940008841304008B070BD41542B43475053503C
:1019500057523D310D00000041542B434750535224
:1019600053543D300D00000010B5C4B010A040A984
:101970001CC81CC10088088011486C46C82221463A
:10198000FFF794FF0FA12046FEF7D4FB00280BD0F1
:10199000012001026C462046FEF7C1FB40A8C82288
:1019A0002146FFF783FF00E0002044B010BDC04691
:1019B00041542B43475053494E463D300D000000E3
:1019C000661B00084C6F636174696F6E203344209E
:1019D00046697800F0B587B004464B4800270C25CF
:1019E0004A49076247624B225602C2C007604760FD
:1019F0008560C76007610C38FFF726FA002801D020
:101A0000FEF7E4FB42484349C2C007604760856077
:101A1000C7600761476187610C38FFF715FA002836
:101A200001D0FEF7D3FB3C48411C394801252A462A
:101A3000FFF794FA06972069A18A2A46FEF7F1FC7F
:101A400005970497112000900390A08A02902069C6
:101A500002AE3146314A9047A189A06801952A46D5
:101A6000FEF7DFFC0597049700980390A089029089
:101A7000A0683146294DA847059704970397A08B86
:101A80000290A0693146A847284EA18BA069FEF7B5
:101A9000BBFC002814D1022F12D8A189A068002213
:101AA000FEF7BFFC3046FEF7D5FBA189A0680122F6
:101AB000FEF7B7FC7D208000FEF7CCFB7F1CE4E73F
:101AC000A18BA069FEF7A0FC02460198010314480F
:101AD000002A12D00122FEF7A4FC0D48114C03226B
:101AE00064232146FFF78CFA0F48FEF7B3FBC821A9
:101AF0002046FFF781FE044603E000242246FEF75D
:101B000090FC204607B0F0BD980000200044004043
:101B10001400002000380140100000207502000869
:101B200000040048761B0008B80B0000DC0500002C
:101B300002E008C8121F08C1002AFAD17047704796
:101B4000002001E001C1121F002AFBD170470000F4
:101B5000000000000000010203040607080900005D
:101B600000000102030441542B4347505353544196
:101B70005455533F0D0041540D004F4B00000000E1
:101B8000A01B00080000002010000000301B00080F
:101B9000B01B00081000002030060000401B0008A9
:101BA000010000000400000000127A0000000000A4
:04000005080000BD32
:00000001FF
