:020000040800F2
:10000000D0050020D10000080D110008FD100008E7
:1000100000000000000000000000000000000000E0
:1000200000000000000000000000000011110008A6
:1000300000000000000000000F110008131100086C
:10004000E3000008E3000008E3000008E300000804
:10005000E3000008E3000008E3000008E3000008F4
:10006000E3000008E3000008E3000008E3000008E4
:10007000E3000008E3000008E3000008E3000008D4
:10008000E3000008E300000800000000E3000008AF
:10009000E3000008E3000008E3000008E3000008B4
:1000A000E3000008E3000008E3000008DD16000894
:1000B000E916000800000000E30000080348854638
:1000C00000F07EF80048004739170008D0050020EE
:1000D0000448804704480047FEE7FEE7FEE7FEE7E6
:1000E000FEE7FEE787110008BD00000803460B434A
:1000F0009B0703D009E008C9121F08C0042AFAD2DE
:1001000003E00B780370401C491C521EF9D2704763
:10011000D2B201E00270401C491EFBD2704700229F
:10012000F6E710B513460A4604461946FFF7F0FFF6
:10013000204610BD421E5378521C002BFBD10B7879
:100140001370491C521C002BF9D1704730B505467D
:100150002A460B4610781C78521C5B1C002801D0E4
:10016000A042F7D0002C03D0002802D06D1CEFE78E
:10017000284630BD421C0178401C0029FBD1801A62
:10018000704770B50446002903D0002020220123C7
:1001900010E0002801D00020C043C046C0460DE05A
:1001A0002546D5408D4205D30D469540641B1D461E
:1001B000954040191546521E002DF1DC214670BDB8
:1001C000064C0125064E05E0E36807CC2B430C3CAA
:1001D00098471034B442F7D3FFF774FFEC200008BF
:1001E0000C210008EFF3108072B6FEE710B5212154
:1001F000425C01462031022A10D1026813680E24A5
:10020000A343136013680124A3431360C26B006C03
:100210002346834053604C70002002E00422826336
:10022000012000220A7010BDB0B52121415C0229D5
:1002300017D101462031026813680E24A3431360CE
:1002400013680125AB431360C26B036C2C469C40C2
:10025000546000240C704D70416B002904D0884715
:1002600002E00421816301242046B0BDB0B50446FC
:1002700000F0E2F80546601C02D08C4800780419B2
:1002800000F0DAF8401BA042FAD3B0BDF0B588B058
:1002900007465E48874201D0052000E00320009019
:1002A00000220692144605970E683046E04000D1C1
:1002B000AAE001250295A5402E4000D19EE00494BD
:1002C00003924A68032314461C40601E01281AD872
:1002D00003230192069A9340B8689843CF689740E9
:1002E0000743059887600198C006C00F049A9040A4
:1002F000059F7F68AF43074305984760059FD84334
:100300005500019A08E01846069DA840C043032CFA
:1003100002D1069D1C461CE0FB6803408F68AF407D
:100320001F43059BDF60059F022C12D11C22039BFB
:100330001A400F239340049CE408A4003C19276A48
:100340009F430B6993403B43059F23624A68032404
:100350001440AC403B68034023433B609003800F54
:10036000039A049C4AD05C4B1868029D284318608D
:1003700018682840079023460C2414400F20A04002
:1003800003229343079A234D5A5982435B1909204C
:10039000C006874208D02048874207D01F488742BE
:1003A000009804D1022002E0002000E00298A04062
:1003B00010431860164800684B68DA0301D53043D3
:1003C00000E0B043049C124A106050689A0301D5C3
:1003D000304300E0B0430E4A50609068DA0201D525
:1003E000304300E0B0430A4A9060D0689A0201D5D9
:1003F000304300E0B043039A054BD860121D0698C5
:10040000801C0690641C4FE708B0F0BD000C00484B
:1004100000040140080001400004004800080048B2
:1004200000690840411E88417047002A01D0182207
:1004300000E0282281507047054800687047C04698
:100440001A48007802490A68101808607047C046C8
:10045000CC01002080B5A948016810220A4302603F
:10046000032000F005F800F023F8002080BDC0460E
:1004700070B504467D20C0000C4E3178FFF781FE38
:100480000146A6480068FFF77CFE00F06BFB0125E3
:10049000032C08D8002806D10025E84321462A4627
:1004A00000F028F87460284670BDC04600000020A7
:1004B00082B00948016801221143016001681140BE
:1004C00001910199110742680A434260406808405F
:1004D0000090009802B0704718100240002805D420
:1004E0001F21084001218140014801607047C0463A
:1004F00000E100E080B501F0FFF880BDF0B585B007
:1005000004468078C0073C4B4AD001200390010785
:1005100018680840029006D11868084318601868E7
:100520000840049004980191344E3068C00511D4FD
:1005300003980702306838433060FFF77DFF0546B7
:100540003068384206D1FFF777FF401B6428F7D99F
:1005500003253FE003252802274B5968014012D0AC
:100560006268024091420ED00398000459685A68AC
:1005700002435A605A6882435A600846204A104033
:100580005860C80729D158681D490840616801436F
:1005900059600298002803D11868019988431860AF
:1005A0002068C10705D0596903229143A2680A4314
:1005B0005A61810605D5596910229143E2680A43C0
:1005C0005A610025400505D55869402188432169B5
:1005D00001435961284605B0F0BDFFF72DFF0646DF
:1005E000474F054B58688007CDD4FFF725FF801B88
:1005F000B842F6D9EEE7C0461C1002400070004039
:10060000FFFCFFFFF8B500284CD004463B4A1368B6
:10061000012003408B4208D213680126B3430B43E9
:100620001360126832408A4266D1009121688A07BD
:100630000ED54A0705D507221202484D2B681343F1
:100640002B60464D2A68F0239A43A36813432B601E
:10065000C90729D12949086801263040009A9042EB
:1006600005D90868B04308600868C00744D12078FD
:10067000400707D507200002384A11688143E06827
:100680000843106000F04EF8344909680906090F64
:100690001C4A515CC840214908600320FFF7E8FE6E
:1006A000002629E0012627E061682C4A121F022952
:1006B00004D0012905D11268920304E01268920166
:1006C00001E012689207064616D5244A10680326F0
:1006D000B04308431060FFF7AFFE0746084D1F48C0
:1006E00000680C210140606880008142B2D0FFF7B1
:1006F000A3FEC01BA842F2D93046F8BD002002403C
:1007000088130000F61F00080448006813490968B0
:100710004905490F024A515CC84070470800002053
:100720000620000810B50D490A680C2313400C4838
:10073000082B08D193021B0F0AA4E45C896AD20338
:1007400003D4104807E0044606E00F22114009A236
:10075000515CFFF716FD4443204610BD04100240D3
:1007600000127A0002030405060708090A0B0C0DA3
:100770000E0F10100102030405060708090A0B0CEE
:100780000D0E0F1000093D00F0B587B004460120A2
:10079000002C00D1BCE104902078C007EE4E0594F7
:1007A00026D071680C20014004291AD071680140DC
:1007B000082902D17068C00313D46168012047047E
:1007C000002900D178E1052900D18CE1012900D16F
:1007D0008DE1010432688A433260810430688843C5
:1007E00088E13068800303D56068002800D1B5E057
:1007F000207880071AD570680007800F07D07068CE
:100800000C210140082971D17068C0036ED4306892
:100810008007059C03D5E068012800D09EE0306881
:10082000F82188432169C90001433160059C207883
:10083000000724D42078400734D42078C00600D4A0
:10084000ABE005984069411D00D19AE0012800D035
:10085000EAE0706B042101437163706B0121014375
:100860007163FFF7E9FD0546706B800700D58CE0EA
:10087000FFF7E2FD411B03200229F5D948E1706A28
:10088000E16900295AD0012108437062FFF7D4FDC5
:100890000546706A8007CDD4FFF7CEFD401B0228C5
:1008A000F7D934E1012003900107F0690840029074
:1008B00006D1F0690843F061F06908400690069897
:1008C0000191A64F3868C00524D403980402386803
:1008D00020433860FFF7B0FD05463868204219D143
:1008E000FFF7AAFD401B6428F7D910E13068059C8A
:1008F000E168002934D0012108433060FFF79CFDF6
:100900000546306880078AD4FFF796FD401B022811
:10091000F7D9FCE005988068914F002800D198E055
:10092000052800D1AAE0012800D1ABE0306A039984
:1009300088433062306A04218843A6E0012188435D
:100940007062FFF779FD0546706A800700D471E791
:10095000FFF772FD401B0228F6D9D8E00498D7E0D3
:10096000012188433060FFF767FD05463068800746
:1009700000D45BE7FFF760FD411B03200229F5D996
:10098000C6E0706B042188437063706BF821884364
:1009900005998969C900014371630598046A002CAF
:1009A0001ED070680C21014008291BD1012C04982D
:1009B00000D1ADE00120030471680B40F26A059D8F
:1009C0006C6AA34200D0A3E00F231A40EC6AA24253
:1009D00000D09DE09A041140AA6A914200D097E0AD
:1009E000002095E0012002063168049291433160B5
:1009F0004706FFF721FD0546022C0BD1049C306809
:100A0000384200D186E0FFF717FD411B0320022981
:100A1000F5D97DE030683842E2D0FFF70DFD411B8B
:100A200003200229F6D973E0706B0421014371633E
:100A3000706B012188437063FFF7FEFC0546706B05
:100A40008007AAD5FFF7F8FC411B03200229F6D93D
:100A50005EE0306A039988433062306A042188433B
:100A60003062FFF7E9FC0546306A80071AD5FFF7C8
:100A7000E3FC411B0320B942F6D949E0306A042166
:100A800001433162306A039908433062FFF7D4FCB6
:100A90000546306A800705D4FFF7CEFC401BB842FC
:100AA000F7D934E002980028059C00D0C5E6F0692B
:100AB00001998843F061C0E6010432688A433260DC
:100AC0008004316881433160FFF7B6FC0546059C20
:100AD0003068384200D18BE6FFF7AEFC411B0320A3
:100AE0006429F5D914E0810432680A4332600104B4
:100AF000306808433060FFF79FFC05463068384295
:100B000000D075E6FFF798FC401B6428F6D9032057
:100B100007B0F0BDF06A0F218843059AD16A0143FE
:100B2000F1623D20000471688143906A0843516A74
:100B300001437160306820433060FFF77DFC04465C
:100B40003068384200D04BE7FFF776FC011B0320EA
:100B50000229F5D9DCE7C0460010024000700040D1
:100B600088130000401E010E01D001207047074984
:100B7000074A5060074803680B400321890759184A
:100B8000016000209060072111607047FFFFFF00A7
:100B900010E000E020ED00E0704770477047000073
:100BA000FEB505460068C269076801955835846836
:100BB0000126F30219460F310A42029762D0A14979
:100BC000394027463740791861D0D10706D00299BD
:100BD000C90503D50662A96A3143A96202241146F8
:100BE000009421404C424C4179427941214305D146
:100BF00000990162A96A04240C43AC627C427C41E6
:100C00005107314600D52146002905D10421016252
:100C1000A96A009C2143A96211070CD5791E8F4156
:100C20000299890600D43E46012E04D108210162B2
:100C3000AC6A0C43AC621A4207D00299490104D550
:100C40000362A96A20230B43AB62A96A0029019EB3
:100C500047D0910608D50299890605D5716E0029FD
:100C600002D0304688473068A96A28220A40806846
:100C70004024204080183BD13046FFF78FFF0020F2
:100C8000A862FEBD910602D50299890653D4019F40
:100C9000396E012904D1D10602D50299C90650D472
:100CA0000123D10201D561021CD4100602D502989D
:100CB00000063BD4500614D50298400611D5EFF338
:100CC000108083F3108839680A6840239A430A60C9
:100CD00080F310880020B8662020B867384600F0FE
:100CE0000BFAFEBD190501623846FFF756FFFEBD3F
:100CF000304600F0E4FA30688068400655D5EFF3DE
:100D00001080012181F3108831688A68A2438A60CB
:100D100080F31088306F002847D04B494163FFF7BC
:100D200083FA0028DDD0306F416B08E0B96E0029EE
:100D3000D7D0384603E00198416E0029D1D08847CA
:100D4000FEBD102101628068400632D468882A887E
:100D50006B88002BC5D0101A0204C2D0EFF31083A9
:100D6000012282F31088092464013D682E68A6439D
:100D70002E6083F31088EFF3108382F310883C68B1
:100D8000A5689543A56083F310882023FB670023A3
:100D90007B663B66EFF3108382F310883A68146831
:100DA0008C43146083F3108846E03046FFF7F6FE6C
:100DB000FEBD3A6F106843689CB2002C91D0288821
:100DC00084428ED26B809269202A33D0EFF3108256
:100DD000012080F310881D4B20333C6826681E409C
:100DE000266082F31088EFF3108280F310883B684E
:100DF0009C6884439C6082F31088EFF3108280F338
:100E000010883B689C684026B4439C6082F310883D
:100E10002022FA6700223A66EFF3108280F31088EE
:100E2000386803688B43036082F31088386FFFF7DC
:100E3000DDF928886988401A81B23846FFF7ACFE90
:100E4000FEBDC04620010004A9120008DFFEFFFF1E
:100E5000B0B500282ED00446806F002805D174203C
:100E600000212154204600F029F82420A0672068A2
:100E700001680125A9430160204600F0EFFA01282E
:100E800019D0606A002802D0204600F07DF90920C0
:100E9000C00221684A6882434A6088682A229043D7
:100EA00088600868012202430A60204600F0C8F901
:100EB000054600E001252846B0BD0000B0B586B06B
:100EC000044601A81421FFF72AF920682349884223
:100ED00019D04A4988423FD101208103204A5368F2
:100EE0000B43536053680B40009300994004116812
:100EF00001431160116801400091032040020190FC
:100F000000981B2413E00120400415498A6802431D
:100F10008A608A6802400092009A0A6802430A6066
:100F20000968014000910C20019000981C240120C8
:100F300005900320049000250395022002900920CB
:100F4000C00601A9FFF7A2F9204629462A46FFF765
:100F5000D1FA2046FFF7C2FA06B0B0BD0044004007
:100F600014100240F8B5C36F0225202B2AD10124AA
:100F7000002928D0002A26D001231C038668A64217
:100F800004D10469002C01D1CC071ED17424045D66
:100F9000012C2C4617D005467435002404662B70AE
:100FA00005686D682D020AD5EFF3108583F310886C
:100FB0009B06066837681F43376085F3108800F08A
:100FC000DBFA00E02C462046F8BD1C46FBE700009B
:100FD00080B500680949884200D080BD0848417842
:100FE0000278531C03707F231340064AD154411CDE
:100FF00005480122FFF7B6FF80BDC046003801401A
:10100000200000204C01002024000020F0B587B013
:1010100006930746836F0220202B2FD1012500293C
:101020002DD0002A2BD001231D03BC68AC4204D173
:101030003C69002C01D1CC0724D103953E4674367F
:101040003478012C05461AD0049101923C46503464
:101050000025F560029633702120B867FFF7ECF9A0
:101060000590019860802080B8680399884202D179
:101070003869002808D0049E049506E005462846F5
:1010800007B0F0BD1D46FAE700260298057060889B
:1010900000281ED0069800908021002538462A4658
:1010A000059B00F0B5FA00281ED1002E04D0307840
:1010B00039680885761C08E0049A10880D490840B4
:1010C00039680885921C04922E466088401E608014
:1010D000DDE7069800904021002538462A46059B0A
:1010E00000F096FA002801D00325C8E72020B86751
:1010F000C5E7C046FF010000704700000122110350
:101100000148FFF792F9FEE700040048FEE7704748
:10111000704780B5FFF794F980BD70B596B00AAD01
:10112000284608302821FEF7FAFF002412940126F1
:101130000B960A9605940494039402942846FFF7AC
:1011400023FB002803D0EFF3108072B6FEE709946A
:10115000089407960720069006A82146FFF752FA42
:10116000002803D0EFF3108072B6FEE703940196D7
:1011700001A8FFF7C3F9002803D0EFF3108072B67F
:10118000FEE716B070BD7047B0B5416ACA0707D018
:101190000122520403685C689443826A22435A60C5
:1011A0008A0707D50122120403685C689443C26A67
:1011B00022435A604A0707D50122920403685C68FB
:1011C0009443026B22435A600A0707D50122D203D7
:1011D00003685C689443426B22435A60CA0607D591
:1011E0000122120303689C689443826B22439A6035
:1011F0008A0607D50122520303689C689443C26B98
:1012000022439A604A0610D50122130502685468E9
:101210009C43056C2C4354609D4206D103235B051F
:1012200054689C43436C23435360090607D501214E
:10123000C904026853688B43806C18435060B0BD8A
:101240007CB50546802000242C50FFF7F5F80646B3
:101250002868016809070BD5124800900120410554
:1012600000222846334600F0D3F900280ED1286822
:10127000006840070CD50B48009001208105002232
:101280002846334600F0C4F9002801D0032406E0C4
:10129000284674302021A967E96704702C6620462F
:1012A0007CBDC046FFFFFF0180B5406A0146523158
:1012B00000220A8152214252FFF770FC80BDB0B576
:1012C000EFF31082012181F3108809235B01046888
:1012D00025689D43256082F31088EFF3108281F327
:1012E000108803689C688C439C6082F31088026EAF
:1012F000012A0AD1EFF3108281F3108801680B688C
:101300001024A3430B6082F310882021C1670021C1
:1013100041660166B0BD70B55C21435A0268C16F79
:1013200022290ED101465831928C1A40436D1A8001
:101330004A88521E4A809A1C42654A88002A05D073
:1013400070BD906908210143916170BDEFF3108376
:10135000012282F310880924640105682E68A643DF
:101360002E6083F31088EFF3108382F310880468F3
:10137000A5689543A56083F310882023C3670023E5
:101380004366046E012C14D10366EFF3108382F3DD
:1013900010880468256810229543256083F310881F
:1013A0000368DC69E40600D51A620988FFF7F4FBDC
:1013B00070BDFFF70DFE70BD70B55C21435A026829
:1013C000C16F22290FD101465831928C1A40436DCA
:1013D0001A704A88521E4A80426D521C42654A88E1
:1013E000002A05D070BD906908210143916170BD4C
:1013F000EFF31083012282F3108809246401056849
:101400002E68A6432E6083F31088EFF3108382F3D7
:1014100010880468A5689543A56083F3108820238D
:10142000C36700234366046E012C14D10366EFF3F7
:10143000108382F310880468256810229543256084
:1014400083F310880368DC69E40600D51A62098812
:10145000FFF7A2FB70BDFFF7BBFD70BDB0B5044642
:10146000006801683A4A0A40A16823690B4365692C
:101470001D43E1690D4315430560032212034368D0
:101480009343E2681A434260A269236A13430B2222
:101490001202856895431D4385602E4A904209D00B
:1014A0002D4A904208D12D4800688007000F2CA2D9
:1014B000135802E0002300E010230125EA032C4822
:1014C00091420DD1082B3DD87B441B795B009F4492
:1014D00004391B39153939391A00FFF715F90FE0AE
:1014E000082B2FD87B441B795B009F44042B202BB7
:1014F0001A2B2B2B1F00FFF707F914E0FFF712F947
:10150000002801D11DE01046400061684A0810180B
:10151000FEF737FE1749014014D00007400F08437B
:101520000DE0FFF7FFF8002801D10AE010466168DE
:101530004A081018FEF725FE80B2102802D3216851
:10154000C860002500206066A0662846B0BDC04681
:10155000F369FFFF004400400038014030100240B2
:10156000000000000400000008000000020000006D
:1015700000127A00F0FF000070B5034658201A529E
:10158000596500205866194658314A809A68002AE1
:1015900008D001242403A24209D11A69002A08D1E3
:1015A000184A07E01A69002A03D07F2202E08880E7
:1015B00001E0FF228A8088622222DA67EFF310843A
:1015C000012282F310881D68AE681643AE6084F372
:1015D000108814039D68A54202D11C69002C0FD00D
:1015E0000A4C08775C66EFF3108182F310880922B9
:1015F00052011B681C6814431C6081F3108870BD85
:10160000014CEEE7FF01000017130008B9130008B2
:10161000FEB516460F460468014674310191089DD7
:10162000E1693940C91B4A424A41B24233D1691C7F
:10163000F6D004460293FEF7FFFE029BC01AA842B2
:101640002BD8002D29D02046246821684907E7D5EA
:10165000E1690905E4D50121CA022262EFF3108491
:1016600081F310880D22520103681D6895431D60A7
:1016700084F31088EFF3108481F310880268936874
:101680008B43936084F3108820218167C16701999F
:101690000C460C341CE00020FEBDEFF3108101204D
:1016A00080F310880D22520123681D6895431D6048
:1016B00081F31088EFF3108180F31088226893681B
:1016C0008343936081F310882020A0677C340199C4
:1016D00000200870202020600320FEBD80B56948EE
:1016E000FFF75EFA80BDC04680B50248FFF758FAA2
:1016F00080BDC046A8000020002805D40322034670
:1017000093430C4A9A1806E00F220240083A03233A
:101710009A43074BD2188007C00E8901C9B2814095
:10172000FF23834010689843084310607047C04609
:101730001CED00E000E400E088B0FEF78BFEFFF750
:10174000ECFC002405940127B9052A4802680A43E5
:10175000026002680A4007920799790402680A4306
:10176000026002680A4007920799B90402680A43B6
:10177000026002680A4007920799F90402680A4366
:1017800002600068084007900798032006031A4D7E
:10179000284631462246FEF748FE049403940297F9
:1017A000019601A92846FEF771FDB903134881830C
:1017B000134981618021818212490161790281810D
:1017C0001149124A02604160856000F097FA00F00A
:1017D00031FA0FA412A514A601A800F05BFA0523A4
:1017E00020462946324600F061FB7D20C000FEF70E
:1017F0003DFDF1E714100240000400482C010020D8
:10180000000800480014004800440040003801402F
:10181000332E3132322E3131342E3132300000004D
:10182000313838330000000068656C6C6F000000D0
:10183000FEB50C460190042702917F1E20D002982D
:101840002618019D2846FEF795FC82B26423F548D0
:101850002946FFF7DBFB2046FEF708FDF24D284640
:10186000F249FEF773FC044680212846FEF757FC38
:101870000020EF490870002C3446DED00120FEBD68
:101880000020FEBD24000020F0B5A3B04B20C00016
:10189000029000279FA6022F16D803ADC8229C48AD
:1018A000294600F099F928463146FEF74FFC0446D8
:1018B00080212846FEF733FC002C05D1C54802994B
:1018C000FFF7B6FF7F1CE6E7954803ACC822214628
:1018D00000F082F993A12046FEF738FC002868D07A
:1018E00003AC80212046FEF71AFC9248C82221460C
:1018F00000F072F990A12046FEF728FC002804D1E0
:1019000000F0AAFA002800D1FDE003A88021FEF72C
:1019100006FC00248A4F8BA6032C25D203ADC822D7
:101920003846294600F058F928463146FEF70EFCA5
:10193000002804D003A88021FEF7F1FB0EE003ADE0
:10194000284683A1FEF702FC3E4607468021284632
:10195000FEF7E5FB002F37467AA605D07D20400133
:10196000FEF784FC641CD7E77D20C00001900026B0
:1019700079A7022E23D803ADC8227648294600F065
:101980002BF928463946FEF7E1FB002813D103ADB9
:10199000284672A1FEF7DAFB044680212846FEF7AE
:1019A000BEFB002C0BD18A480199FFF741FF761C42
:1019B000DFE73120AAE003A88021FEF7B0FB002773
:1019C00068A6022F17D803ADC8226548294600F043
:1019D00003F928463146FEF7B9FB04468021284624
:1019E000FEF79DFB002C06D00299C8316048FFF736
:1019F0001FFF7F1CE5E75F4803ACC822214600F0CB
:101A0000EBF85DA12046FEF7A1FB002805D05D485C
:101A1000C821FFF70DFF002871D003AC80212046BC
:101A2000FEF77DFB5848C822214600F0D5F857A1A3
:101A30002046FEF78BFB002816D0564C2046FEF7BA
:101A400099FB201854A10322FEF750FB2046FEF715
:101A500091FB201851A10922FEF748FBC82120461E
:101A6000FFF7E6FE00284CD003AC8025204629462F
:101A7000FEF755FB3F48C822214600F0ADF84AA1C9
:101A80002046FEF763FB064620462946FEF747FB45
:101A9000002E05D047480199FFF7CAFE002834D030
:101AA000344803ACC822214600F096F842A12046F3
:101AB000FEF74CFB002811D003AC80212046FEF736
:101AC0002EFB40482146019A00F086F83E49204608
:101AD000FEF73CFB002801D0382017E003AC802142
:101AE0002046FEF71CFB2348C822214600F074F86C
:101AF00036492046FEF72AFB411E884106E0352084
:101B000004E0362002E0322000E0372023B0F0BDB0
:101B1000842000082B4346554E3A20310000000037
:101B2000182000082B43534D494E533A20302C3196
:101B3000000000000E2000085245414459000000FA
:101B40005B2000082B4353513A20302C000000004A
:101B500039392C00512000082C3100002C350000B0
:101B60004620000843474154543A2030000000000A
:101B70007820000838200008504450204445414354
:101B800054000000992000082E200008434D4E45C7
:101B9000540000000C000020544D0000222C222292
:101BA0002C22220D00000000495020535441525471
:101BB00000000000242000084950204750525341A3
:101BC000435400006E200008DA200008E0200008DE
:101BD0008E2000086320000870B515460C460646A6
:101BE000FEF7C8FA82B2944864233146FFF70EFA32
:101BF0002846FEF73BFB0C480C49FEF7A7FA0026E7
:101C00000028354605D0084980222046FEF76EFAA6
:101C1000012505488021FEF782FA8948067028468A
:101C200070BDC046240000204C010020D7200008D1
:101C30002000002070B588B00EA104A8024638C963
:101C400038C2098811800FA16C46224668C968C253
:101C500009881180C8252946FFF7EAFD0646401E7F
:101C6000864120462946FFF7E3FD411E884130406A
:101C700008B070BD41542B434750535057523D312B
:101C80000D00000041542B434750535253543D30F4
:101C90000D00000010B5A4B00FA020A91CC81CC1E5
:101CA0000088088010486C46C8222146FFF794FF40
:101CB0000EA12046FEF74AFA00280AD06C46802181
:101CC0002046FEF72CFA20A8C8222146FFF784FF01
:101CD00000E0002024B010BD41542B43475053492D
:101CE0004E463D300D000000A52000084C6F63619A
:101CF00074696F6E2033442046697800F0B587B070
:101D000004464B4800270C254A49076247624B228C
:101D10005602C2C0076047608560C76007610C3823
:101D2000FFF796F8002801D0FEF75CFA42484349D5
:101D3000C2C0076047608560C7600761476187610F
:101D40000C38FFF785F8002801D0FEF74BFA3C4825
:101D5000411C394801252A46FFF704F906972069F6
:101D6000A18A2A46FEF761FB05970497112000908F
:101D70000390A08A0290206902AE3146314A904712
:101D8000A189A06801952A46FEF74FFB05970497A5
:101D900000980390A0890290A0683146294DA84779
:101DA000059704970397A08B0290A0693146A84736
:101DB000284EA18BA069FEF733FB002814D1022F17
:101DC00012D8A189A0680022FEF72FFB3046FEF74B
:101DD0004DFAA189A0680122FEF727FB7D20800033
:101DE000FEF744FA7F1CE4E7A18BA069FEF718FB1D
:101DF0000246019801031448002A12D00122FEF77E
:101E000014FB0D48114C032264232146FFF7FEF812
:101E10000F48FEF72BFAC8212046FFF709FD0446BC
:101E200003E000242246FEF700FB204607B0F0BD89
:101E3000A800002000440040240000200038014099
:101E4000200000208D02000800040048D320000874
:101E5000B80B0000DC050000B0B5A4B00EA020ACAB
:101E600021462CC82CC1007808702046FEF782F964
:101E70000D2121542018002141706D46C8222046B2
:101E80002946FFF7A9FE08A12846FEF75FF9411E83
:101E9000884124B0B0BDC04641542B4350494E3D0B
:101EA00000000000000000004F4B0000F0B5B1B092
:101EB0000C46054621A82CA14022FEF717F93A4806
:101EC00001AEC8223146FFF787FE38493046FEF79B
:101ED0003DF9002807D101A835A1FEF737F9002800
:101EE00001D1FFF7D1FC21AE30462946FEF722F999
:101EF000FEF740F92221315430180025C570817059
:101F00002C21417030462146FEF714F9FEF732F9D4
:101F100030182AA10322FEF7E9F801AFC8223046A3
:101F20003946FFF759FE7D20C4002046FEF79EF992
:101F300023A13846FEF70AF9002811D101A8244947
:101F4000FEF704F900280BD101A88021FEF7E7F87D
:101F50002046FEF78BF91F48C821FFF769FC0125D1
:101F6000284631B0F0BDC04641542B43495053542C
:101F70004152543D22544350222C220000000000C4
:101F80000000000000000000000000000000000051
:101F90000000000000000000000000000000000041
:101FA0000000000000000000B5200008E02000084C
:101FB00054435020434C4F5345440000220D000031
:101FC000434F4E4E454354204641494C00000000CB
:101FD000DA200008C320000802E008C8121F08C168
:101FE000002AFAD170477047002001E001C1121F9A
:101FF000002AFBD170470000000000000000010231
:10200000030406070809000000000102030441540C
:102010002B4350494E3F0D0041542B43534D494EE5
:10202000533F0D0041542B43494943520D00415445
:102030002B435354543F0D0041542B4349505354A8
:10204000415455530D0041542B43474154543F0DC7
:102050000041542B435245473F0D0041542B4353FD
:10206000510D0041542B4346554E3D310D00415416
:102070002B43494653520D0041542B43474154547E
:102080003D310D0041542B4346554E3F0D00415408
:102090002B435245473D310D0041542B434950538A
:1020A0004855540D0041542B434750535354415409
:1020B00055533F0D0041542B4349505354415455FF
:1020C000530D0041542B434950434C4F53450D0091
:1020D00000000041540D004F4B004552524F52003A
:1020E000495020535441545553000000102100081A
:1020F0000000002020000000D81F00083021000848
:1021000020000020B0050000E81F000800000000CB
:10211000010000000400000000127A0041542B432B
:102120005354543D22000000000000000000000055
:04000005080000BD32
:00000001FF
