:020000040800F2
:1000000030060020D10000080D110008DD100008A6
:1000100000000000000000000000000000000000E0
:1000200000000000000000000000000011110008A6
:1000300000000000000000000F110008131100086C
:10004000E3000008E3000008E3000008E300000804
:10005000E3000008E3000008E3000008E3000008F4
:10006000E3000008E3000008E3000008E3000008E4
:10007000E3000008E3000008E3000008E3000008D4
:10008000E3000008E300000800000000E3000008AF
:10009000E3000008E3000008E3000008E3000008B4
:1000A000E3000008E3000008E3000008DD16000894
:1000B000ED16000800000000E30000080348854634
:1000C00000F06AF800480047551F0008300600207D
:1000D0000448804704480047FEE7FEE7FEE7FEE7E6
:1000E000FEE7FEE787110008BD00000803460B434A
:1000F0009B0703D009E008C9121F08C0042AFAD2DE
:1001000003E00B780370401C491C521EF9D2704763
:10011000D2B201E00270401C491EFBD2704700229F
:10012000F6E710B513460A4604461946FFF7F0FFF6
:10013000204610BD421E5378521C002BFBD10B7879
:100140001370491C521C002BF9D17047421C0178D6
:10015000401C0029FBD1801A704770B50446002965
:1001600003D000202022012310E0002801D000202D
:10017000C043C046C0460DE02546D5408D4205D35C
:100180000D469540641B1D46954040191546521E6C
:10019000002DF1DC214670BD064C0125064E05E020
:1001A000E36807CC2B430C3C98471034B442F7D398
:1001B000FFF788FFC0360008E0360008EFF3108034
:1001C00072B6FEE710B52121425C01462031022AB9
:1001D00010D1026813680E24A3431360136801242E
:1001E000A3431360C26B006C2346834053604C7082
:1001F000002002E004228263012000220A7010BD68
:10020000B0B52121415C022917D101462031026895
:1002100013680E24A343136013680125AB431360D6
:10022000C26B036C2C469C40546000240C704D70D3
:10023000416B002904D0884702E004218163012436
:100240002046B0BDB0B5044600F0EAF80546601C93
:1002500002D090480078041900F0E2F8401BA04258
:10026000FAD3B0BDF0B588B007465E48874201D0EA
:10027000052000E003200090002206921446059716
:100280000E683046E04000D1AAE001250295A54065
:100290002E4000D19EE0049403924A680323144642
:1002A0001C40601E01281AD803230192069A93402D
:1002B000B8689843CF6897400743059887600198CE
:1002C000C006C00F049A9040059F7F68AF43074364
:1002D00005984760059FD8435500019A08E01846E5
:1002E000069DA840C043032C02D1069D1C461CE07D
:1002F000FB6803408F68AF401F43059BDF60059F8D
:10030000022C12D11C22039B1A400F239340049C01
:10031000E408A4003C19276A9F430B6993403B43C0
:10032000059F23624A6803241440AC403B680340A5
:1003300023433B609003800F039A049C4AD0604B98
:100340001868029D284318601868284007902346C3
:100350000C2414400F20A04003229343079A234DFE
:100360005A5982435B190920C006874208D02048A9
:10037000874207D01F488742009804D1022002E03C
:10038000002000E00298A040104318601648006862
:100390004B68DA0301D5304300E0B043049C124AB5
:1003A000106050689A0301D5304300E0B0430E4A14
:1003B00050609068DA0201D5304300E0B0430A4A49
:1003C0009060D0689A0201D5304300E0B043039AB0
:1003D000054BD860121D0698801C0690641C4FE7E0
:1003E00008B0F0BD000C00480004014008000140C6
:1003F000000400480008004800690840411E884188
:10040000704742690B4693430A401104C918816141
:100410007047002A01D0182200E02822815070473E
:10042000054800687047C0461A48007802490A68C3
:10043000101808607047C0462C02002080B5A948FB
:10044000016810220A430260032000F005F800F062
:1004500023F8002080BDC04670B504467D20C00052
:100460000C4E3178FFF779FE0146A6480068FFF789
:1004700074FE00F06BFB0125032C08D8002806D180
:100480000025E84321462A4600F028F874602846F3
:1004900070BDC0460000002082B0094801680122FA
:1004A00011430160016811400191019911074268EF
:1004B0000A434260406808400090009802B07047CC
:1004C00018100240002805D41F2108400121814056
:1004D000014801607047C04600E100E080B501F0CE
:1004E0000DF980BDF0B585B004468078C0073C4B5F
:1004F0004AD001200390010718680840029006D1F5
:10050000186808431860186808400490049801911E
:10051000344E3068C00511D4039807023068384360
:100520003060FFF77DFF05463068384206D1FFF79F
:1005300077FF401B6428F7D903253FE003252802F5
:10054000274B5968014012D06268024091420ED098
:100550000398000459685A6802435A605A688243F3
:100560005A600846204A10405860C80729D1586888
:100570001D4908406168014359600298002803D171
:1005800018680199884318602068C10705D0596927
:1005900003229143A2680A435A61810605D559692D
:1005A00010229143E2680A435A610025400505D5AF
:1005B000586940218843216901435961284605B0A3
:1005C000F0BDFFF72DFF0646474F054B58688007E3
:1005D000CDD4FFF725FF801BB842F6D9EEE7C04621
:1005E0001C10024000700040FFFCFFFFF8B500281F
:1005F0004CD004463B4A1368012003408B4208D28A
:1006000013680126B3430B431360126832408A42D9
:1006100066D1009121688A070ED54A0705D50722C1
:100620001202484D2B6813432B60464D2A68F02375
:100630009A43A36813432B60C90729D12949086845
:1006400001263040009A904205D90868B0430860FE
:100650000868C00744D12078400707D5072000026A
:10066000384A11688143E0680843106000F04EF892
:10067000344909680906090F1C4A515CC8402149E0
:1006800008600320FFF7E8FE002629E0012627E0A6
:1006900061682C4A121F022904D0012905D1126871
:1006A000920304E01268920101E012689207064684
:1006B00016D5244A10680326B04308431060FFF79C
:1006C000AFFE0746084D1F4800680C2101406068D6
:1006D00080008142B2D0FFF7A3FEC01BA842F2D92E
:1006E0003046F8BD0020024088130000BC2D0008F1
:1006F00004480068134909684905490F024A515CDA
:10070000C840704708000020CC2D000810B50D49E6
:100710000A680C2313400C48082B08D193021B0FC6
:100720000AA4E45C896AD20303D4104807E00446B3
:1007300006E00F22114009A2515CFFF70EFD444371
:10074000204610BD0410024000127A000203040586
:10075000060708090A0B0C0D0E0F10100102030406
:1007600005060708090A0B0C0D0E0F1000093D00C5
:10077000F0B587B004460120002C00D1BCE1049004
:100780002078C007EE4E059426D071680C200140F9
:1007900004291AD071680140082902D17068C00389
:1007A00013D4616801204704002900D178E10529AC
:1007B00000D18CE1012900D18DE1010432688A4326
:1007C000326081043068884388E13068800303D553
:1007D0006068002800D1B5E0207880071AD57068DD
:1007E0000007800F07D070680C210140082971D1E3
:1007F0007068C0036ED430688007059C03D5E0683C
:10080000012800D09EE03068F82188432169C900A2
:1008100001433160059C2078000724D420784007EC
:1008200034D42078C00600D4ABE005984069411D5F
:1008300000D19AE0012800D0EAE0706B0421014366
:100840007163706B012101437163FFF7E9FD054698
:10085000706B800700D58CE0FFF7E2FD411B0320A1
:100860000229F5D948E1706AE16900295AD00121CD
:1008700008437062FFF7D4FD0546706A8007CDD447
:10088000FFF7CEFD401B0228F7D934E10120039089
:100890000107F0690840029006D1F0690843F06151
:1008A000F0690840069006980191A64F3868C00587
:1008B00024D403980402386820433860FFF7B0FD61
:1008C00005463868204219D1FFF7AAFD401B64286D
:1008D000F7D910E13068059CE168002934D0012186
:1008E00008433060FFF79CFD0546306880078AD4D6
:1008F000FFF796FD401B0228F7D9FCE005988068B9
:10090000914F002800D198E0052800D1AAE00128E5
:1009100000D1ABE0306A039988433062306A042129
:100920008843A6E0012188437062FFF779FD054600
:10093000706A800700D471E7FFF772FD401B022840
:10094000F6D9D8E00498D7E0012188433060FFF75A
:1009500067FD05463068800700D45BE7FFF760FD60
:10096000411B03200229F5D9C6E0706B042188439E
:100970007063706BF821884305998969C900014348
:1009800071630598046A002C1ED070680C21014028
:1009900008291BD1012C049800D1ADE001200304EB
:1009A00071680B40F26A059D6C6AA34200D0A3E017
:1009B0000F231A40EC6AA24200D09DE09A04114035
:1009C000AA6A914200D097E0002095E0012002063B
:1009D00031680492914331604706FFF721FD0546D7
:1009E000022C0BD1049C3068384200D186E0FFF71E
:1009F00017FD411B03200229F5D97DE030683842FC
:100A0000E2D0FFF70DFD411B03200229F6D973E068
:100A1000706B042101437163706B01218843706323
:100A2000FFF7FEFC0546706B8007AAD5FFF7F8FCC0
:100A3000411B03200229F6D95EE0306A03998843FE
:100A40003062306A042188433062FFF7E9FC0546D2
:100A5000306A80071AD5FFF7E3FC411B0320B94237
:100A6000F6D949E0306A042101433162306A0399C2
:100A700008433062FFF7D4FC0546306A800705D48E
:100A8000FFF7CEFC401BB842F7D934E002980028AB
:100A9000059C00D0C5E6F06901998843F061C0E685
:100AA000010432688A4332608004316881433160D6
:100AB000FFF7B6FC0546059C3068384200D18BE64E
:100AC000FFF7AEFC411B03206429F5D914E0810433
:100AD00032680A4332600104306808433060FFF72F
:100AE0009FFC05463068384200D075E6FFF798FC59
:100AF000401B6428F6D9032007B0F0BDF06A0F212F
:100B00008843059AD16A0143F1623D20000471686F
:100B10008143906A0843516A014371603068204301
:100B20003060FFF77DFC04463068384200D04BE768
:100B3000FFF776FC011B03200229F5D9DCE7C0464C
:100B4000001002400070004088130000401E010E9B
:100B500001D0012070470749074A506007480368E1
:100B60000B4003218907591801600020906007217C
:100B700011607047FFFFFF0010E000E020ED00E093
:100B80007047704770470000FEB505460068C269AF
:100B900007680195583584680126F30219460F311C
:100BA0000A42029762D0A149394027463740791856
:100BB00061D0D10706D00299C90503D50662A96A9A
:100BC0003143A96202241146009421404C424C4119
:100BD00079427941214305D100990162A96A04242F
:100BE0000C43AC627C427C415107314600D5214622
:100BF000002905D104210162A96A009C2143A96250
:100C000011070CD5791E8F410299890600D43E4602
:100C1000012E04D108210162AC6A0C43AC621A4275
:100C200007D00299490104D50362A96A20230B4326
:100C3000AB62A96A0029019E47D0910608D50299A6
:100C4000890605D5716E002902D030468847306884
:100C5000A96A28220A4080684024204080183BD19D
:100C60003046FFF78FFF0020A862FEBD910602D537
:100C70000299890653D4019F396E012904D1D10606
:100C800002D50299C90650D40123D10201D56102CF
:100C90001CD4100602D5029800063BD4500614D589
:100CA0000298400611D5EFF3108083F3108839685D
:100CB0000A6840239A430A6080F310880020B866CF
:100CC0002020B867384600F007FAFEBD190501621A
:100CD0003846FFF756FFFEBD304600F0F0FA3068A8
:100CE0008068400655D5EFF31080012181F310880C
:100CF00031688A68A2438A6080F31088306F0028C8
:100D000047D04B494163FFF77BFA0028DDD0306FB5
:100D1000416B08E0B96E0029D7D0384603E001984E
:100D2000416E0029D1D08847FEBD10210162806844
:100D3000400632D468882A886B88002BC5D0101AE8
:100D40000204C2D0EFF31083012282F31088092439
:100D500064013D682E68A6432E6083F31088EFF38C
:100D6000108382F310883C68A5689543A56083F3DF
:100D700010882023FB6700237B663B66EFF310831C
:100D800082F310883A6814688C43146083F31088E7
:100D900046E03046FFF7F6FEFEBD3A6F1068436846
:100DA0009CB2002C91D0288884428ED26B809269AC
:100DB000202A33D0EFF31082012080F310881D4BDE
:100DC00020333C6826681E40266082F31088EFF3CB
:100DD000108280F310883B689C6884439C6082F397
:100DE0001088EFF3108280F310883B689C684026DF
:100DF000B4439C6082F310882022FA6700223A668E
:100E0000EFF3108280F31088386803688B43036027
:100E100082F31088386FFFF7D5F928886988401A5F
:100E200081B23846FFF7ACFEFEBDC046200100048B
:100E3000A9120008DFFEFFFFB0B500282ED004463F
:100E4000806F002805D1742000212154204600F035
:100E500029F82420A067206801680125A9430160C2
:100E6000204600F0FBFA012819D0606A002802D061
:100E7000204600F089F90920C00221684A688243AF
:100E80004A6088682A2290438860086801220243E9
:100E90000A60204600F0D4F9054600E00125284606
:100EA000B0BD0000B0B586B0044601A81421FFF71C
:100EB00036F920682349884219D0484988423FD1F1
:100EC00001208103204A53680B43536053680B4051
:100ED00000930099400411680143116011680140BA
:100EE000009103204002019000981B2413E0012090
:100EF000400415498A6802438A608A680240009269
:100F0000009A0A6802430A600968014000910C20B7
:100F1000019000981C2401200590032004900025D6
:100F20000395022002900920C00601A9FFF79AF953
:100F3000204629462A46FFF7D1FA2046FFF7C2FA93
:100F400006B0B0BD0044004014100240F8B5C36FB5
:100F50000225202B2AD10124002928D0002A26D0BE
:100F600001231C038668A64204D10469002C01D128
:100F7000CC071ED17424045D012C2C4617D00546E5
:100F80007435002404662B7005686D682D020AD53F
:100F9000EFF3108583F310889B06066837681F43BC
:100FA000376085F3108800F0E7FA00E02C46204611
:100FB000F8BD1C46FBE7000080B500680749884281
:100FC00000D080BD064908784A78531C4B70054B09
:100FD000985405480122FFF7B9FF80BD0038014051
:100FE000200000202C01002024000020F0B587B054
:100FF00006930746836F0220202B2FD1012500295D
:101000002DD0002A2BD001231D03BC68AC4204D193
:101010003C69002C01D1CC0724D103953E4674369F
:101020003478012C05461AD0049101923C46503484
:101030000025F560029633702120B867FFF7F0F9BC
:101040000590019860802080B8680399884202D199
:101050003869002808D0049E049506E00546284615
:1010600007B0F0BD1D46FAE70026029805706088BB
:1010700000281ED0069800908021002538462A4678
:10108000059B00F0C5FA00281ED1002E04D0307850
:1010900039680885761C08E0049A10880D490840D4
:1010A00039680885921C04922E466088401E608034
:1010B000DDE7069800904021002538462A46059B2A
:1010C00000F0A6FA002801D00325C8E72020B86761
:1010D000C5E7C046FF010000704700000126740309
:1010E000094D28462146FFF78CF93603284631463C
:1010F000FFF787F928462146FFF783F9284631464E
:10110000FFF77FF9F6E7C04600040048FEE77047A6
:10111000704780B5FFF788F980BD70B596B00AAD0D
:10112000284608302821FEF7FAFF002412940126F1
:101130000B960A9605940494039402942846FFF7AC
:1011400017FB002803D0EFF3108072B6FEE7099476
:10115000089407960720069006A82146FFF746FA4E
:10116000002803D0EFF3108072B6FEE703940196D7
:1011700001A8FFF7B7F9002803D0EFF3108072B68B
:10118000FEE716B070BD7047B0B5416ACA0707D018
:101190000122520403685C689443826A22435A60C5
:1011A0008A0707D50122120403685C689443C26A67
:1011B00022435A604A0707D50122920403685C68FB
:1011C0009443026B22435A600A0707D50122D203D7
:1011D00003685C689443426B22435A60CA0607D591
:1011E0000122120303689C689443826B22439A6035
:1011F0008A0607D50122520303689C689443C26B98
:1012000022439A604A0610D50122130502685468E9
:101210009C43056C2C4354609D4206D103235B051F
:1012200054689C43436C23435360090607D501214E
:10123000C904026853688B43806C18435060B0BD8A
:101240007CB50546802000242C50FFF7E9F80646BF
:101250002868016809070BD5124800900120410554
:1012600000222846334600F0D3F900280ED1286822
:10127000006840070CD50B48009001208105002232
:101280002846334600F0C4F9002801D0032406E0C4
:10129000284674302021A967E96704702C6620462F
:1012A0007CBDC046FFFFFF0180B5406A0146523158
:1012B00000220A8152214252FFF764FC80BDB0B582
:1012C000EFF31082012181F3108809235B01046888
:1012D00025689D43256082F31088EFF3108281F327
:1012E000108803689C688C439C6082F31088026EAF
:1012F000012A0AD1EFF3108281F3108801680B688C
:101300001024A3430B6082F310882021C1670021C1
:1013100041660166B0BD70B55C21435A0268C16F79
:1013200022290ED101465831928C1A40436D1A8001
:101330004A88521E4A809A1C42654A88002A05D073
:1013400070BD906908210143916170BDEFF3108376
:10135000012282F310880924640105682E68A643DF
:101360002E6083F31088EFF3108382F310880468F3
:10137000A5689543A56083F310882023C3670023E5
:101380004366046E012C14D10366EFF3108382F3DD
:1013900010880468256810229543256083F310881F
:1013A0000368DC69E40600D51A620988FFF7E8FBE8
:1013B00070BDFFF701FE70BD70B55C21435A026835
:1013C000C16F22290FD101465831928C1A40436DCA
:1013D0001A704A88521E4A80426D521C42654A88E1
:1013E000002A05D070BD906908210143916170BD4C
:1013F000EFF31083012282F3108809246401056849
:101400002E68A6432E6083F31088EFF3108382F3D7
:1014100010880468A5689543A56083F3108820238D
:10142000C36700234366046E012C14D10366EFF3F7
:10143000108382F310880468256810229543256084
:1014400083F310880368DC69E40600D51A62098812
:10145000FFF796FB70BDFFF7AFFD70BDB0B504465A
:10146000006801683A4A0A40A16823690B4365692C
:101470001D43E1690D4315430560032212034368D0
:101480009343E2681A434260A269236A13430B2222
:101490001202856895431D4385602E4A904209D00B
:1014A0002D4A904208D12D4800688007000F2CA2D9
:1014B000135802E0002300E010230125EA032C4822
:1014C00091420DD1082B3DD87B441B795B009F4492
:1014D00004391B39153939391A00FFF709F90FE0BA
:1014E000082B2FD87B441B795B009F44042B202BB7
:1014F0001A2B2B2B1F00FFF7FBF814E0FFF706F960
:10150000002801D11DE01046400061684A0810180B
:10151000FEF723FE1749014014D00007400F08438F
:101520000DE0FFF7F3F8002801D10AE010466168EA
:101530004A081018FEF711FE80B2102802D3216865
:10154000C860002500206066A0662846B0BDC04681
:10155000F369FFFF004400400038014030100240B2
:10156000000000000400000008000000020000006D
:1015700000127A00F0FF000070B5034658201A529E
:10158000596500205866194658314A809A68002AE1
:1015900008D001242403A24209D11A69002A08D1E3
:1015A000184A07E01A69002A03D07F2202E08880E7
:1015B00001E0FF228A8088622222DA67EFF310843A
:1015C000012282F310881D68AE681643AE6084F372
:1015D000108814039D68A54202D11C69002C0FD00D
:1015E0000A4C08775C66EFF3108182F310880922B9
:1015F00052011B681C6814431C6081F3108870BD85
:10160000014CEEE7FF01000017130008B9130008B2
:10161000FEB516460F460468014674310191089DD7
:10162000E1693940C91B4A424A41B24233D1691C7F
:10163000F6D004460293FEF7F3FE029BC01AA842BE
:101640002BD8002D29D02046246821684907E7D5EA
:10165000E1690905E4D50121CA022262EFF3108491
:1016600081F310880D22520103681D6895431D60A7
:1016700084F31088EFF3108481F310880268936874
:101680008B43936084F3108820218167C16701999F
:101690000C460C341CE00020FEBDEFF3108101204D
:1016A00080F310880D22520123681D6895431D6048
:1016B00081F31088EFF3108180F31088226893681B
:1016C0008343936081F310882020A0677C340199C4
:1016D00000200870202020600320FEBD80B5024855
:1016E000FFF752FA80BDC0462400002080B50248B2
:1016F000FFF74AFA80BDC046A8000020002805D4A4
:101700000322034693430C4A9A1806E00F22024034
:10171000083A03239A43074BD2188007C00E890169
:10172000C9B28140FF23834010689843084310608A
:101730007047C0461CED00E000E400E0012909D03C
:10174000032903D0022904D1044900E00249085CBE
:10175000704700207047C046D42E0008D42D0008E2
:10176000F8B50C4605460020102805D0295C225CFF
:101770004A402A54401CF7E70020134FC6B2092EF6
:1017800020D800900020102804D0295C795C2954CE
:10179000401CF8E7284601F00BF8092E02D0284635
:1017A00000F096FC2046314600F034FB0020102863
:1017B00005D0295C225C4A402A54401CF7E7009877
:1017C000401CDBE7F8BDC04693300008E0B507A039
:1017D00000F000FF7D20C00000900E480EA1002206
:1017E000134600F0AFFE411E88418CBD436C6F7301
:1017F000652054435020636F6E6E656374696F6E2D
:101800003A2073656E642041542B434950434C4F3A
:1018100053450000D42F0008434C4F5345204F4BF5
:1018200000000000F0B5C7B0DBA000F0D3FE7D20C3
:101830000290C60000270696022F20D8DF4800F04D
:10184000C9FE0096012507ACD848D9A12A462346EF
:1018500000F078FE064629022046FEF760FC012EC5
:10186000069E0CD0F8A000F0B5FEEF4800900022D4
:10187000EE48EF49134600F065FE7F1CDCE7FDA053
:1018800000F0A8FE0096EB48E949012707AD3A466B
:101890002B4600F057FE3C02E7A20C2328462146C7
:1018A00000F034FB002800D18AE007AD284621462D
:1018B000FEF735FCFC4800F08DFE0096FB48DC4945
:1018C0003A462B4600F03EFEFCA205232846214660
:1018D00000F01CFB002801D101F096F807A8059440
:1018E0002146FEF71CFC00240497032C33D20394FA
:1018F000FC4800F06FFE0096012707ADFA48F84952
:101900003A462B4600F01EFE08232846059C214639
:10191000F64A00F0FBFA002806D0390207A8FEF7C5
:10192000FEFB049F039C10E007AD032328462146DD
:10193000EFA200F0EBFA064639022846FEF7EFFB6D
:10194000002E069E049F039C05D002984001FEF7DE
:1019500079FC641CC9E70024022C38D8E64800F062
:1019600039FE0096012507AFE448DD492A463B468B
:1019700000F0E8FD02233846059F3946E0A200F05A
:10198000C5FA00281ED1394607AF02233846DDA22A
:1019900000F0BCFA064629023846FEF7C0FB002ECE
:1019A000069E049F13D1FC4800F014FED14800901D
:1019B0000022FA48CA49134600F0C4FD641CCBE774
:1019C000312580E1290207A8FEF7A9FB049F002426
:1019D000C34D022C2BD8CC4800F0FCFD009607AE7E
:1019E000CA4829463A46334600F0ACFD0823304643
:1019F000059F3946C64A00F089FA03942C460546ED
:101A00003046069E3946049FFEF789FB002D254689
:101A1000039C0CD0BF4800F0DDFDB04800900022D0
:101A2000BD482946134600F08DFD641CD1E7BB4834
:101A300000F0D0FD0096BA48A9490125344607AE0A
:101A40002A46334600F07EFDB64A09233046059EFD
:101A5000314600F05BFA00280CD0B34800F0BAFD24
:101A60000094B2489E490022134600F06BFD002806
:101A700000D117E1290207AF38460491FEF74FFB6A
:101A8000AB4800F0A7FD0094AA4895492A463B467A
:101A900000F058FDA84A05233846314600F036FAD2
:101AA00000281DD1A54F3846FEF750FB3818A4A1D9
:101AB0000322FEF71BFB3846FEF748FB3818A14906
:101AC0000922FEF713FBA04800F084FD009484492E
:101AD00000223846134600F035FD002800D1F1E021
:101AE00007AF3846049E3146FEF719FB974800F0D1
:101AF00071FD00948A487A492A463B4600F022FD4F
:101B0000934A08233846059900F000FA05463846FE
:101B10003146FEF704FB012D0CD18E4800F05AFD32
:101B200000948D488D490022134600F00BFD0028DB
:101B300000D1BDE08A4800F04DFD00947848684926
:101B4000012507AE2A46334600F0FCFC854A0A23ED
:101B50003046059C214600F0D9F9002830D02902F2
:101B600007AE3046FEF7DBFA7F4800F033FD6148F0
:101B700000907E485A492A46334600F0E3FC7C4AEE
:101B800005233046214600F0C1F9002818D07948D5
:101B900000F020FD382596E0456E61626C652047B7
:101BA0005052533A20537461727400005730000849
:101BB0002B4346554E3A2031000000003F330008C9
:101BC000290207AE3046FEF7AAFA6B4800F002FD84
:101BD00006980090524842492A46334600F0B2FC2B
:101BE000664A09233046214600F090F9002817D1B3
:101BF00007A8634A0E23214600F088F900280FD178
:101C000007A8604A0A23214600F080F9002807D17E
:101C100007A85D4A0F23214600F078F9002855D027
:101C20005A4800F0D7FC4EE0B80B000036300008F0
:101C30009A340008EB2F00082B43534D494E533A7A
:101C400020302C3100000000456E61626C65207010
:101C5000686F6E652066756E6374696F6E616C691E
:101C600074793A2073656E642041542B4346554E77
:101C70003D310000446574656374206966205349F2
:101C80004D20636172642069732070726573656EA4
:101C9000743A2073656E642041542B43534D494E72
:101CA000533F000035250EE012330008E12F0008F5
:101CB000384800F08FFC372505E0C04652454144C6
:101CC000590000003625284647B0F0BD304800F0E6
:101CD00081FC07A800F07EFC0025F4E7B80B0000AB
:101CE0009A340008DF3400082E300008393200082A
:101CF00039392C0088130000E13200082430000834
:101D00002C3100002C350000843300081930000805
:101D1000423200086F3200084B3000084E35000890
:101D20000B3000081D360008513600086C300008E2
:101D3000A933000801300008423600080C000020DA
:101D4000544D0000B43600080C320008C8350008B5
:101D50004836000806350008F72F0008A4360008AA
:101D6000FA350008273600082635000841300008FB
:101D700020350008CA3400089235000844350008B0
:101D8000603400083A360008323600088A36000807
:101D9000B03400089D3400084B3200086130000860
:101DA000F0B589B012A105A8024638C938C2098821
:101DB000118013A101AC224668C968C2098811804C
:101DC000C8260096124900273A463B4600F0BAFB67
:101DD00005460096401E854120460D493A463B4641
:101DE00000F0B0FB411E8841284009B0F0BDC0465C
:101DF00041542B434750535057523D310D00000082
:101E000041542B434750535253543D320D00000070
:101E10009A340008F0B587B004460078000662786E
:101E200012041018A27812028018E278801802902A
:101E3000207B0006627B12041018A27B120280181D
:101E4000E27B8518E07A0690A07A0590607A04908B
:101E5000207A0390E0790190A07900906779267943
:101E6000284600F035F802994840E07031063A04FF
:101E70005118009A12028918019A89184140E1719B
:101E8000020AA270020C6270000E20700398000615
:101E9000049A12041018059A12028018069A8018E3
:101EA0004840E0720A0AA2710A0C6271090E21719F
:101EB0004540E573010AA172010C6172000E2072A7
:101EC000280AA073280C6073280E207307B0F0BD99
:101ED00010B5020E094B9A5C040AE4B21C5D24049E
:101EE000A218C4B21C5D2402121905A4615C000C86
:101EF000C0B2185C48400006801810BD933000083E
:101F000001020408102040801B360000FCB500923E
:101F1000019099421AD3C91A00200C46884213D85E
:101F2000009E019F1D46002D0ED0711C7A1C6D1E57
:101F300036783F78B7420E461746F4D00199491CCF
:101F40000191401C2146E8E7A04201D90020FCBDD8
:101F50000120FCBDA0B0FEF771FAFFF7DEF8002407
:101F60001C940125A9053D4802680A4302600268E5
:101F70000A400A920A99690402680A4302600268E8
:101F80000A400A920A99A90402680A430260026898
:101F90000A400A920A99E90402680A43026000684A
:101FA00008400A900A98032006032D4F3846314610
:101FB0002246FEF72EFA1B9403941A94199518964C
:101FC00018A93846FEF74EF9A80318AEB083802052
:101FD000B08202956802B08122481E9022481C906F
:101FE0001A972248199022481890304600F032FD86
:101FF000304600F0F7FB1FA014A90A4678C878C243
:1020000020A210A80346F0CAF0C3FFF7A9FBFFF710
:10201000C7FE002804D0029841031148FEF7F1F9E9
:10202000FFF700FC0AA81BA11822FEF75FF81FA00B
:1020300006A91CC81CC10088088004A80399017166
:102040001E4804901EA41FA50AA8009006A804A973
:1020500022462B4600F0ACF9F6E7C04614100240C9
:1020600000040048000800480014004800440040F4
:10207000003801402B7E151628AED2A6ABF7158886
:1020800009CF4F3C3243F6A8885A308D313198A29F
:10209000E03707344C61742C4C6F6E000000000078
:1020A00000000000000000000000000031382E3168
:1020B00039352E3232382E3339000000313838337A
:1020C000506F0000436C69656E745F313200000030
:1020D000F0B589B00190002214A6042A1ED0002079
:1020E000019C0292042816D00490800003900025E1
:1020F0002F46042D06D0715D605DFFF71FFB474042
:102100006D1CF6E7029A0398801805A90F54241D48
:102110000498401CE6E7361D521CDEE705A9102294
:102120000198FDF7E3FF09B0F0BDC04602030101CD
:10213000010203010101020303010102F0B5E5B050
:102140000391029045A862498022FDF7CFFF61A06C
:10215000674DA84767A0A8477D20C6000096704835
:102160007049012705AC3A46234600F0EBF92046BA
:10217000A847049739026CA20A2320460C46FFF7B1
:10218000C5FE00281FD105A86A4A08232146FFF78B
:10219000BDFE002817D105A867A209232146FFF735
:1021A000B5FE00280FD105A8664A0A232146FFF78D
:1021B000ADFE002807D105A8634A09232146FFF791
:1021C000A5FE00285FD0614800F004FAFFF72AFB63
:1021D000029F354605AE30462146FDF7A0FF02942A
:1021E00045AC20463946FDF7A5FFFDF7AFFF22219C
:1021F000215420180027C77081702C21417020467F
:102200000399FDF797FFFDF7A1FF201855A10322C1
:10221000FDF76CFF54A000F0DDF900954D49204614
:10222000049C2246334600F08DF9002804D056481D
:1022300000F0D0F9274623E054482D4EB0475448CB
:10224000B04705AC2046B04752A20C232046029C62
:102250002146FFF75BFE002812D105A8514A05234D
:102260002146FFF753FE00280AD14F4800F0B2F98B
:1022700000953B484D4900273A463B4600F062F93D
:10228000384665B0F0BD05A8314A0E232146FFF758
:102290003DFE0028029F0FD105A82E4A0A232146A1
:1022A000FFF734FE002807D105A82B4A0F2321464B
:1022B000FFF72CFE00288CD0284800F08BF9009600
:1022C000274818490022134600F03CF981E7C04630
:1022D000BC2C00084F70656E2054435020636F6E15
:1022E0006E656374696F6E3A205354415254000016
:1022F000D5250008436865636B2063757272656E4F
:102300007420544350207374617475733A2073655C
:102310006E642041542B434950535441545553004B
:10232000783000089A340008495020494E495449F1
:10233000414C000048360008495020434F4E464962
:1023400047000000273600081D360008A1320008AB
:102350006034000892340008323600082034000847
:1023600086300008220D0000417474656D70742081
:10237000746F206F70656E2054435020636F6E6ED3
:10238000656374696F6E00006F340008F0310008F7
:102390008B320008434F4E4E454354204641494C32
:1023A0000000000020350008E233000888340008EF
:1023B000F0B5C5B01D461746039102903DA000F050
:1023C00009F92846FDF7C2FE064644A8E02101802F
:1023D00024AC3E4980222046FDF788FE6673300A11
:1023E00020730F200002608130460C30607001962F
:1023F000B0B200214A9CCAB2904205D924ABD3188E
:10240000AA5C9A73491CF6E73846FDF79FFE05461D
:1024100004AE301D7C21FDF782FE30203070204656
:10242000FDF794FEF570290AB1702918891C0091F6
:102430007170A9B20022D3B2994205D904AD5D19D9
:10244000FB5C2B71521CF6E7091D0022D3B29842A7
:1024500005D9CD18E35C04AE7355521CF6E71CA0F9
:1024600000F0B8F801980E30C1B224A800F0D4F8FA
:102470001DA000F0AFF802980399FFF75FFE002857
:1024800014D01F481F4CA0471FA0A0470098801CD5
:10249000C1B204A800F030F922A0A04744A802214C
:1024A00000F02AF9FFF792F9012000E0002045B082
:1024B000F0BDC0464D5154542070726F746F636FFD
:1024C0006C3A205354415254000000003C2D000847
:1024D000434F4E4E454354207061636B65742063D7
:1024E0006F6E74656E743A005055424C49534820E3
:1024F0007061636B657420636F6E74656E743A000F
:102500006E360008D525000853656E64696E672035
:102510004D515454205055424C495348205061630A
:102520006B65740053656E64696E67204D51545439
:1025300020444953434F4E4E454354205061636BF2
:1025400065740000F0B5A5B0019303920C460546F2
:10255000FDF7FCFD82B26248642302952946FEF72E
:1025600045FD00252A9804902E46002D12D104988E
:1025700086420FD22046FDF7E9FD034601273902C6
:1025800059482246FFF7C2FC05463846FDF75AFE79
:10259000761CEAE705AC53492046324600F0BCFA07
:1025A00020460299FDF7C6FD00F014F803980128B3
:1025B00005D1012002024C490198FDF797FD012049
:1025C00001024948FDF7ABFDE74800214170E8B240
:1025D00025B0F0BDFEB5044620486F4639460CC80C
:1025E0000CC1007808703846FDF7B0FD82B2DA4EB3
:1025F0006425304639462B46194FB8472046FDF72B
:10260000A5FD82B2304621462B46B8471549022225
:1026100030462B46B847FEBDF0B585B0019100901D
:102620000E4802AC21460CC80CC100780870204648
:10263000FDF78CFD82B2C84F6426094D384621460D
:102640003346A84738460099019A3346A8470549BA
:10265000022238463346A84705B0F0BDA836000828
:10266000ED0F000893310008F0B5A1B01E460092AE
:102670000A4601461A486423FEF7B8FC00252F4697
:10268000002D0ED1B7420CD2012421020723164897
:1026900017A2FFF73BFC05462046FDF7D3FD7F1C44
:1026A000EEE701AC0F4920463A4600F035FA2046E5
:1026B000FFF790FF0C4C2046FFF78CFF012006022D
:1026C000009821463246FDF711FD20463146FDF7C0
:1026D00026FD064800214170E8B221B0F0BDC04699
:1026E000240000209A3100082C0100202000002046
:1026F00053454E44204F4B00F0B5C7B00C4605463D
:1027000041AE10A118223046FDF7F0FC13A130466F
:10271000224600F001FA15A0FFF75CFF7D20C700FC
:1027200000971DA1002230461346FFF70BFF1BA0A8
:10273000FFF750FF01AA284621463B46FFF794FFCA
:1027400047B0F0BD41542B43495053454E443D00E2
:1027500000000000000000000000000041542B4376
:10276000495053454E443D25640D0000496E69743F
:102770006961746520544350207472616E736D6991
:102780007373696F6E3A2073656E642041542B43F6
:10279000495053454E443D003E00000053656E6471
:1027A000696E6720544350206C6F61640000000024
:1027B000417842794270427A437B4372427141735D
:1027C0008178827A82708279837B8371817282734D
:1027D000C17BC27AC273C279C272C278C271C1703F
:1027E00070470000F0B589B004465B4800270C250F
:1027F0005A49076247624B225602C2C007604760CF
:102800008560C76007610C38FEF716FB002801D011
:10281000FDF7D4FC52485349C2C007604760856049
:10282000C7600761476187610C38FEF705FB002828
:1028300001D0FDF7C3FC4A484B4901252A46FEF763
:1028400085FB08972069A18A2A46FDF7E2FD0797D4
:102850000697112002900590A08A0490206904AE8A
:102860003146424A9047A189A06803952A46FDF760
:10287000D0FD0797069702980590A0890490A0685C
:1028800031463A4DA847079706970597A08B0490C5
:10289000A0693146A8477D20C600A18BA069FDF73D
:1028A000ABFD002814D1022F12D8A189A068002204
:1028B000FDF7AFFD3046C830FDF7C4FCA189A06824
:1028C0000122FDF7A6FD6420FDF7BCFC7F1CE4E7B8
:1028D00027A0FFF77FFEA18BA069FDF78DFD03996F
:1028E0000D032B4F002820D00124384629462246CC
:1028F000FDF78FFD1A48274F032264233946FEF760
:1029000075FB2548FDF79EFC009624A1002538465E
:102910002A462B46FFF716FE012813D12AA0FFF7FF
:1029200059FE31A0FFF756FE13E01D48FFF752FE97
:102930003448FFF74FFE0024384629462246FDF76B
:1029400068FD06E01648FFF745FE16A0FFF742FEB9
:102950002C46204609B0F0BDA800002000440040ED
:1029600024000020003801402000002065020008FB
:1029700053797374656D20696E697469616C697AE5
:102980006174696F6E3A20537461727465640000FB
:102990000004004896310008B80B00004F4B0000BF
:1029A000AE310008526561736F6E3A2053494D385D
:1029B0003038206973206E6F7420726573706F6E8B
:1029C00064696E670000000053797374656D206957
:1029D0006E697469616C697A6174696F6E3A2053CB
:1029E000554343455353000053494D383038206D0B
:1029F0006F64756C6520697320726573706F6E7398
:102A000069766500CC310008B0B586B00CA002AC88
:102A100021462CC82CC1007808702046FDF796FB93
:102A20000D2121542018002242707D20C00000900A
:102A3000074920461346FFF785FD012006B0B0BDCB
:102A400041542B4350494E3D00000000000000005F
:102A50009A340008B0B504461AA0FFF7BBFD002564
:102A6000A18BA069FDF7C8FC002814D0022D12D854
:102A7000A189A0680022FDF7CCFC4B200001FDF7E6
:102A8000E1FBA189A0680122FDF7C3FC6420FDF7EA
:102A9000D9FB6D1CE4E7A18BA069FDF7ADFC002814
:102AA00004D00FA0FFF796FD002408E012A0FFF766
:102AB00091FD0124210317480022FDF7AAFC2046BE
:102AC000B0BDC046506F776572206F6666204D6F4F
:102AD00064756C6520696E69746961746564000071
:102AE000506F776572206F6666204D6F64756C65F8
:102AF0003A204641494C0000506F776572206F665E
:102B000066204D6F64756C653A20535543434553B9
:102B100053000000000400480FB410B504A9074B8F
:102B200002AA039800F01CF8044602A9002000F055
:102B3000BFF8204610BC08BC04B01847B12C0008F0
:102B400002E008C8121F08C1002AFAD17047704776
:102B5000002001E001C1121F002AFBD170470000D4
:102B6000FFB58DB00446002506E025280AD0109A4E
:102B70000F999047641C6D1C20780028F5D12846D9
:102B800011B0F0BD00270121484A009700E007433B
:102B9000641C23780846203B98401042F7D12078E7
:102BA0002E2817D1042007436078641C2A280CD1F2
:102BB0000E98641C02C800910E900BE000990A2246
:102BC000514330394018641C009020780146303958
:102BD0000929F3D920780028D1D0642808D06928A1
:102BE00006D075281ED0109A0F9990476D1C5BE097
:102BF0000A200E99019001C90E91002802DA404284
:102C00002D2102E0390504D52B216A4611720121DC
:102C100003E0F90704D02021F7E70BAE0B910DE09C
:102C20000021FAE70A200E99019001C90E91F7E7F9
:102C30000199FDF792FA3031761E31700028F7D1F4
:102C400003A8801B20300190780701D5009801E08F
:102C5000012000900199884201DD401A00E0002027
:102C60000027009006E002A8109AC05D0F999047D7
:102C70006D1C7F1C0B988742F5DB04E0109A302016
:102C80000F9990476D1C0099481E00900029F5DCB3
:102C900005E03078109A761C0F9990476D1C0199C9
:102CA000481E01900029F4DC641C65E70928010036
:102CB0000A68531C0B6010707047000041542B438E
:102CC000495053544152543D22544350222C220027
:102CD00000000000000000000000000000000000F4
:102CE00000000000000000000000000000000000E4
:102CF00000000000000000000000000000000000D4
:102D000000000000000000000000000000000000C3
:102D100000000000000000000000000000000000B3
:102D200000000000000000000000000000000000A3
:102D3000000000000000000000000000101000046F
:102D40004D51545404020000000000000000000037
:102D50000000000000000000000000000000000073
:102D60000000000000000000000000000000000063
:102D70000000000000000000000000000000000053
:102D80000000000000000000000000000000000043
:102D90000000000000000000000000000000000033
:102DA0000000000000000000000000000000000023
:102DB0000000000000000000000000000000000013
:102DC00000000000010203040607080900000000DB
:102DD0000102030400020406080A0C0E1012141665
:102DE000181A1C1E20222426282A2C2E3032343673
:102DF000383A3C3E40424446484A4C4E5052545663
:102E0000585A5C5E60626466686A6C6E7072747652
:102E1000787A7C7E80828486888A8C8E9092949642
:102E2000989A9C9EA0A2A4A6A8AAACAEB0B2B4B632
:102E3000B8BABCBEC0C2C4C6C8CACCCED0D2D4D622
:102E4000D8DADCDEE0E2E4E6E8EAECEEF0F2F4F612
:102E5000F8FAFCFE1B191F1D131117150B090F0D96
:102E6000030107053B393F3D333137352B292F2DE2
:102E7000232127255B595F5D535157554B494F4DD2
:102E8000434147457B797F7D737177756B696F6DC2
:102E9000636167659B999F9D939197958B898F8DB2
:102EA00083818785BBB9BFBDB3B1B7B5ABA9AFADA2
:102EB000A3A1A7A5DBD9DFDDD3D1D7D5CBC9CFCD92
:102EC000C3C1C7C5FBF9FFFDF3F1F7F5EBE9EFED82
:102ED000E3E1E7E5000306050C0F0A09181B1E1DB8
:102EE00014171211303336353C3F3A39282B2E2D2A
:102EF00024272221606366656C6F6A69787B7E7D1A
:102F000074777271505356555C5F5A59484B4E4D09
:102F100044474241C0C3C6C5CCCFCAC9D8DBDEDDF9
:102F2000D4D7D2D1F0F3F6F5FCFFFAF9E8EBEEEDE9
:102F3000E4E7E2E1A0A3A6A5ACAFAAA9B8BBBEBDD9
:102F4000B4B7B2B1909396959C9F9A99888B8E8DC9
:102F5000848782819B989D9E979491928380858699
:102F60008F8C898AABA8ADAEA7A4A1A2B3B0B5B629
:102F7000BFBCB9BAFBF8FDFEF7F4F1F2E3E0E5E619
:102F8000EFECE9EACBC8CDCEC7C4C1C2D3D0D5D609
:102F9000DFDCD9DA5B585D5E5754515243404546F9
:102FA0004F4C494A6B686D6E6764616273707576E9
:102FB0007F7C797A3B383D3E3734313223202526D9
:102FC0002F2C292A0B080D0E0704010213101516C9
:102FD0001F1C191A41542B434950434C4F53450D64
:102FE0000041542B4350494E3F0D0041542B435355
:102FF0004D494E533F0D0041542B43494943520D17
:103000000041542B435354543F0D0041542B43492A
:10301000505354415455530D0041542B4347415490
:10302000543F0D0041542B435245473F0D0041543E
:103030002B4353510D0041542B4346554E3D310D0A
:103040000041542B43494653520D0041542B4347F2
:103050004154543D310D0041542B4346554E3F0DD4
:103060000041542B435245473D310D0041542B4301
:103070004950534855540D0041542B434950535423
:10308000415455530D0041542B434950434C4F5329
:10309000450D00637C777BF26B6FC53001672BFEBB
:1030A000D7AB76CA82C97DFA5947F0ADD4A2AF9C9E
:1030B000A472C0B7FD9326363FF7CC34A5E5F17175
:1030C000D8311504C723C31896059A071280E2EB7E
:1030D00027B27509832C1A1B6E5AA0523BD6B3290E
:1030E000E32F8453D100ED20FCB15B6ACBBE394A9B
:1030F0004C58CFD0EFAAFB434D338545F9027F50A2
:103100003C9FA851A3408F929D38F5BCB6DA2110A0
:10311000FFF3D2CD0C13EC5F974417C4A77E3D6438
:103120005D197360814FDC222A908846EEB814DE68
:103130005E0BDBE0323A0A4906245CC2D3AC6291F2
:1031400095E479E7C8376D8DD54EA96C56F4EA65DC
:103150007AAE08BA78252E1CA6B4C6E8DD741F4BDB
:10316000BD8B8A703EB5664803F60E613557B98649
:10317000C11D9EE1F8981169D98E949B1E87E9CEF6
:103180005528DF8CA1890DBFE6426841992D0FB00B
:1031900054BB160D0A0041540D0046696E697368F0
:1031A000656420696E202564206D733A2000537990
:1031B0007374656D20696E697469616C697A617494
:1031C000696F6E3A204641494C454400526561732F
:1031D0006F6E3A2053494D3830382063616E6E6F00
:1031E0007420626520706F7765726564206F6E0071
:1031F0004F70656E2054435020636F6E6E6563742C
:10320000696F6E203A204641494C2000646566692A
:103210006E652050445020636F6E746578743A2058
:1032200073656E642041542B435354543D224150E6
:103230004E222C22222C2222002B4353513A2030A2
:103240002C0043474154543A20300052656769735B
:1032500074657220746F206E6574776F726B3A209C
:1032600073656E642041542B435245473D31004104
:103270007474616368205044503A2073656E642012
:1032800041542B43474154543D31004275666665B5
:103290007220636F6E74656E742062656C6F773A2E
:1032A000005443502063616E6E6F742062656769DD
:1032B0006E206265636175736520475052532069C3
:1032C00073206E6F742072656164793A2063616C5B
:1032D0006C20656E61626C655F6770727328293B54
:1032E00000436865636B204E6574776F726B205284
:1032F0006567697374726174696F6E205374617469
:1033000075733A2073656E642041542B43524547D0
:103310003F00436865636B2069662050494E206317
:103320006F64652069732072657175697265643AAE
:103330002073656E642041542B4350494E3F004337
:103340006865636B2069662070686F6E65206675BE
:103350006E6374696F6E616C697479206F66207436
:103360006865206D6F64756C6520697320656E619A
:10337000626C65643A2073656E642041542B434649
:10338000554E3F00436865636B2069662047505285
:10339000532069732061747461636865643A2041E5
:1033A000542B43474154543F00436865636B206985
:1033B000662050445020636F6E7465787420697382
:1033C00020636F72726563746C7920646566696EE0
:1033D00065643A2073656E642041542B4353545402
:1033E0003F004F70656E2054435020636F6E6E65D2
:1033F0006374696F6E2074696D656F75742E2064D7
:103400006973636F6E6E656374696E672E20736592
:103410006E643A2041542B434950434C4F5345006E
:103420004F70656E2054435020636F6E6E656374F9
:10343000696F6E2064657465637465642C207465BF
:10344000726D696E6174696E672069742E20736590
:103450006E643A2041542B434950434C4F5345002E
:1034600054435020434F4E4E454354494E47004F1E
:1034700070656E2054435020636F6E6E656374698F
:103480006F6E203A204F4B00434C4F534544204F22
:103490004B00434F4E4E454354204F4B0041637405
:1034A0006976617465205044503A204641494C0089
:1034B000496E7465726E657420436F6E6E656374D9
:1034C000696F6E3A204641494C0047657420495067
:1034D00020616464726573733A204641494C00432D
:1034E0006865636B2047505253207369676E616C47
:1034F000207571616C6974793A2073656E6420413E
:10350000542B4353510041637469766174652050B4
:1035100044503A73656E642041542B43494952002C
:103520004552524F520047657420495020616464EF
:10353000726573733A2073656E642041542B43495E
:103540004653520049502053544154555300436848
:1035500065636B2069662050445020636F6E74650C
:103560007874206973206465616374697661746539
:1035700064205B5044502044454143545D3A2073DD
:10358000656E64202041542B434950535441545597
:10359000530020436865636B20696620475052538F
:1035A00020636F6E6E656374696F6E20697320723D
:1035B000656164793A2053656E642041542B434918
:1035C0005053544154555300436865636B206966FA
:1035D0002050445020636F6E7465787420697320A6
:1035E0006163746976653A2073656E642041542B7B
:1035F00043495053544154555300436865636B200D
:103600004950207374617475733A2073656E642039
:1036100041542B4349505354415455530050445046
:1036200020444541435400495020475052534143A0
:103630005400414C524541445920434F4E4E45435E
:103640005400434D4E455400495020535441525468
:10365000005B5044502044454143545D2073656EE7
:1036600064202041542B434950534855540053651E
:103670006E64696E67204D51545420434F4E4E4541
:103680004354205061636B657400496E7465726EBB
:10369000657420436F6E6E656374696F6E3A205275
:1036A00065616479000000004465627567203E2012
:1036B00000000000222C22222C22220D00000000FB
:1036C000E03600080000002020000000402B000829
:1036D000003700082000002010060000502B0008D2
:1036E000010000000400000000127A0041542B4346
:1036F0005354543D22000000000000000000000070
:04000005080000BD32
:00000001FF
