:020000040800F2
:100000000020002031140008BD130008BF130008B1
:1000100000000000000000000000000000000000E0
:10002000000000000000000000000000C1130008F4
:100030000000000000000000C3130008C513000802
:10004000811400088114000881140008811400083C
:10005000811400088114000881140008811400082C
:10006000811400088114000881140008811400081C
:10007000811400088114000881140008811400080C
:100080008114000881140008000000008114000899
:1000900081140008811400088114000881140008EC
:1000A000811400088114000881140008CD13000891
:1000B000DD130008000000008114000800000000AB
:1000C00010B5064C2378002B07D1054B002B02D02E
:1000D000044800E000BF0123237010BD840000200D
:1000E0000000000008320008044B10B5002B03D0BC
:1000F0000349044800E000BF10BDC04600000000F6
:1001000088000020083200080023C25C0133002A66
:10011000FBD1581E7047000002B4714649084900DF
:10012000095C49008E4402BC7047C04603B4714666
:10013000490840004900095E49008E4403BC7047ED
:10014000002243088B4274D303098B425FD3030A16
:100150008B4244D3030B8B4228D3030C8B420DD329
:10016000FF22090212BA030C8B4202D312120902B7
:1001700065D0030B8B4219D300E0090AC30B8B42F5
:1001800001D3CB03C01A5241830B8B4201D38B03A3
:10019000C01A5241430B8B4201D34B03C01A524148
:1001A000030B8B4201D30B03C01A5241C30A8B428B
:1001B00001D3CB02C01A5241830A8B4201D38B0276
:1001C000C01A5241430A8B4201D34B02C01A52411A
:1001D000030A8B4201D30B02C01A5241CDD2C3098C
:1001E0008B4201D3CB01C01A524183098B4201D308
:1001F0008B01C01A524143098B4201D34B01C01AF3
:10020000524103098B4201D30B01C01A5241C3086A
:100210008B4201D3CB00C01A524183088B4201D3D9
:100220008B00C01A524143088B4201D34B00C01AC5
:100230005241411A00D20146524110467047FFE731
:1002400001B5002000F006F802BDC0460029F7D035
:1002500076E770477047C04670B58AB00E221149E4
:1002600002A802F051FB0E220F4906A802F04CFB37
:10027000C82600230D4D1A002900009602A800F0A0
:100280009BFE002304001A002900009606A800F037
:1002900093FE00239C4202D003005A1E9341D8B221
:1002A0000AB070BDDD330008EB3300087739000871
:1002B00070B5C6B00E221049050002A802F024FB5A
:1002C000C82600230D491A000D48009600F074FE60
:1002D000041E0DD001220B49009606AB02A800F0C7
:1002E0006BFE3321040017222800694402F00CFB46
:1002F000200046B070BDC04609340008F93300083C
:10030000173400087739000810B5012496B0282268
:1003100000210CA802F001FB1022002101A802F02C
:10032000FCFA0021142205A802F0F7FA0AA80A94A0
:100330000B9401F069FA011E01D072B6FEE70723A3
:100340000390049001A80193029401F08FFC00280F
:1003500001D072B6FEE7079005A8059401F01AFDDA
:10036000002801D072B6FEE716B010BD70B59AB085
:1003700001F0ACF8FFF7C8FF1422002112A802F028
:10038000CCFA80204A4BC0035969C024014359610B
:100390005A69484D024080200292029A59698002AF
:1003A000014359615A69A401024080200392039AD3
:1003B0005969C0020143596180215A690903024009
:1003C0000492049A5A6928000A435A615B69002220
:1003D0000B4005932100059B01F008FA01231294BC
:1003E0000024280012A913931494159401F042F9E3
:1003F000314B54211293314B6A4613938023521888
:100400009B00149513802E4B6A4616938023083167
:10041000521813802B4B6A46189380230831DB0156
:100420005218138012A800F065FD0CAD12A800F060
:1004300013FEFFF711FF00F075F80E222249280085
:1004400002F062FA3E200A222100684402F065FAB6
:100450000E221E4908A802F057FA802605221C49E0
:1004600006A802F051FAB6012800FFF721FF002884
:1004700011D031000F4801F0BFF9164B164A009514
:1004800006A908A800F018FC00280ED08021094811
:10049000490101F0B1F90A2C02D912A800F06CFD53
:1004A000FA20C00001F034F8DEE70134E4B2F2E7EC
:1004B00000100240000400480038014000440040A1
:1004C0000014004800080048203200082C340008BE
:1004D0003A340008273400082A34000872B6FEE7D0
:1004E0007FB509220C4902A802F00EFA112004225D
:1004F0000021684402F011FA084902A802F036FA15
:10050000FA239B000093002305491A0002A800F07B
:1005100053FD012007B000BD383200080037000845
:1005200077390008F0B5DE488027C3B000F072FCD0
:1005300003257F00DB4800F06DFCFA239B000122BD
:10054000D9490093D94802AB00F036FD3A000600C5
:10055000002102A802F0E1F9D54C012E0ED0D548B9
:1005600000F058FCD44B013D0093002321001A00F9
:10057000D248EDB200F020FD002DDBD1FA26D048A4
:10058000B60000F047FC0122210002ABCD480096E6
:1005900000F012FD80210C23CB4A490002A800F094
:1005A000F1FC3125002800D11CE1802200215200FD
:1005B00002A802F0B2F9C54800F02CFC012221008B
:1005C00002ABC348009600F0F7FC80210523C14A26
:1005D000490002A800F0D6FC002800D1FBE08022F0
:1005E00000218027520002A802F097F903257F001E
:1005F000B94800F00FFCFA239B0001222100009370
:10060000B64802AB00F0D8FC08233900B44A02A86F
:1006100000F0B8FC0026B04207D103233900B14AEC
:1006200002A800F0AFFC464246413A00002102A871
:1006300002F073F9002E07D1FA20013D0001EDB25E
:1006400000F066FF002DD3D1802703267F00A64847
:1006500000F0E0FBFA239B00012221000093A34855
:1006600002AB00F0A9FC02233900A14A02A800F065
:1006700089FC0125002808D1022339009D4A02A8DF
:1006800000F080FC431E984105003A00002102A8BA
:1006900002F043F9002D0ED1974800F0BBFB974BB9
:1006A000013E00932A002B0021009548F6B200F08D
:1006B00083FC002ECBD1802703257F00914800F0DA
:1006C000A9FBFA239B000122210000938E4802AB74
:1006D00000F072FC39008D4A082302A800F052FC99
:1006E0003A000600002102A802F017F9002E0ED0F1
:1006F000874800F08FFB704B013D009300232100E1
:100700001A008448EDB200F057FC002DD6D1FA252E
:100710008148AD0000F07EFB0122210002AB7F4842
:10072000009500F049FC802109237D4A490002A878
:1007300000F028FC002858D18022FA26002152001F
:1007400002A802F0EAF8B600764800F063FB012246
:10075000210002AB7448009600F02EFC8021052396
:10076000724A490002A800F00DFC00284BD18022FB
:10077000FA270021520002A802F0CFF86C4800F0DE
:1007800049FB664DBF000122210002AB2800009703
:1007900000F012FC8021674A4900082302A800F0FB
:1007A000F1FB802206000021520002A802F0B5F8F9
:1007B000012E3FD1604800F02DFB00235F491A0055
:1007C0005F48009700F0F8FB002833D15D4800F047
:1007D00021FB372506E05948FFF782FE3225002825
:1007E00000D0FCE6280043B0F0BD574800F012FBF3
:1007F000002300951A002100544800F0DDFB352548
:10080000002899D1EEE7524D5249280002F0AEF887
:100810005149280002F0AAF8504800F0FBFA0023E2
:1008200028001A002100009600F0C6FB362500289B
:100830009DD1D7E74A4800F0EDFAFA239B00012248
:1008400021000093280002AB00F0B6FB80210A23B0
:10085000444A490002A800F095FB002800D18BE033
:1008600080220021520002A802F057F83E4800F012
:10087000D1FA224B0122210000933C4802AB00F048
:100880009BFB802105233A4A490002A800F07AFB2D
:10089000002871D0374800F0BDFA3825A2E7C046DD
:1008A0003F3400085234000897340008AB3B00087E
:1008B00077390008A0340008B80B00007C3B000822
:1008C000CB340008313B0008FA3400080735000833
:1008D000273B0008343500083A350008743B00080F
:1008E000623500086B3500086F3500086A3B000868
:1008F00004350008A0350008A3350008881300005F
:10090000B53B0008C73500085F3B0008EC35000820
:10091000F53500089F3B000811360008513B0008E0
:10092000553600085F360008473B00089836000837
:10093000BB360008ED3600082F370008E83B0008FA
:100940003D3B0008493700089E360008C03B0008C0
:1009500000000020F6360008F936000802370008CB
:100960005C3700087F3700088A370008873B00089B
:10097000A8370008AE37000880220021520002A8E4
:1009800001F0CBFF1D4800F045FAFA239B0001223D
:1009900021000093280002AB00F00EFB8021092308
:1009A000174A490002A800F0EDFA002804D01548C3
:1009B00000F030FA012515E780210E23124A490084
:1009C00002A800F0DFFA0028F1D180210A230F4AA3
:1009D000490002A800F0D6FA0028E8D180210F23B0
:1009E0000B4A490002A800F0CDFA051EDFD10948E4
:1009F00000F010FA02A800F00DFAF3E6C337000881
:100A0000F9370008033800081E3800083538000898
:100A10002D3800083D38000830B5E3B01422050039
:100A20000C0002A8634901F06FFF6C22002107A8A7
:100A300001F073FF604800F0EDF9604800F0EAF95A
:100A4000FA239B0001225E4900935E4822AB00F02E
:100A5000B3FA22A800F0DEF980210A235A4A49009D
:100A600022A800F08FFA00282FD0584800F0D2F9C1
:100A7000FFF758FD80220021520022A801F04DFF0F
:100A80002900FA2502A801F071FF514902A801F0DE
:100A90006DFF210002A801F069FF4E4902A801F094
:100AA00065FFAD004C4800F0B5F901224B490095B7
:100AB00022AB02A800F080FA041E53D0484800F090
:100AC000A9F90124200063B030BD80210823454AE4
:100AD000490022A800F056FA0028C6D18021092337
:100AE000414A490022A800F04DFA0028BDD18021DA
:100AF0000A233E4A490022A800F044FA0028B4D153
:100B0000802109233A4A490022A800F03BFA002834
:100B1000ABD180210E23374A490022A800F032FAD7
:100B200000280CD0344800F075F9FA239B0000939C
:100B3000002323491A00314800F03EFA9AE7802149
:100B40000A23264A490022A800F01CFA0028E9D10D
:100B500080210F232A4A490022A800F013FA002816
:100B6000E0D187E7274800F055F9274800F052F90F
:100B700022A800F04FF980210C23244A490022A822
:100B800000F000FA00289DD180210523204A490069
:100B900022A800F0F7F9002800D093E71D4800F0E4
:100BA00039F9230022001C490095144800F004FA8A
:100BB00088E7C046453200085738000872380008F8
:100BC00077390008913B00089E380008A9380008D2
:100BD0003E390008FF360008423900083339000862
:100BE00061390008ED360008E93800087F37000851
:100BF000553600081E380008F3380008D93B0008B5
:100C00002D3800087A39000896390008AC390008F8
:100C1000A8370008B9390008F739000807B50848AF
:100C200000F0F8F8FA239B000093002305491A000E
:100C3000054800F0C1F9431E9841C0B20EBDC04640
:100C4000013A0008283A0008CC3B000870B50C2691
:100C50000C001449C8B0050032000D3102A801F0A3
:100C600053FE3200002105A801F057FE22000E4974
:100C700002A801F05BFEFA260C4800F0CBF8002336
:100C8000B6001A000A49009602A800F095F9094832
:100C900000F0C0F833002100280008AA00F0BAFADA
:100CA00048B070BDB8320008313A0008403A000838
:100CB0006C3A00086E3A0008F0B51D00C7B002900B
:100CC0004C480391019200F0A5F82800FFF71CFAA8
:100CD00006ACC7B20B22484986B2200001F014FED0
:100CE000132004ABC0187522002101F016FE3B0052
:100CF0000C3363700F23E372330A2373002367738B
:100D0000B34261D30198FFF7FFF9050086B24C9812
:100D1000FFF7FAF9EBB226AC1818C3B2052237492F
:100D20002000009301F0F0FD8D2004AB7B22C01861
:100D3000002101F0F2FD009B220002336370330AB0
:100D4000A370EBB2E3700023B34243D30026ADB2ED
:100D50004C98FFF7D9F9864243D33E00E0230E3684
:100D6000274805ADF6B22B8000F054F8310006A8F4
:100D700000F07AF8234800F04DF8009F2000043777
:100D8000FFB2390000F070F803990298FFF744FEB3
:100D9000002817D01C4800F03DF8310006A8FFF7E6
:100DA00055FF1A4800F036F839002000FFF74EFFD3
:100DB000174800F02FF802212800FFF747FFFFF740
:100DC0002DFF012047B0F0BDE95CE21801339173BB
:100DD000DBB295E70198D118C05C01330871DBB232
:100DE000B2E74C9A26AB925D9B195B1901361A71DA
:100DF000F6B2ADE77F3A0008DD3200085D33000847
:100E0000943A0008B23A0008D03A0008EC3A0008D8
:100E1000083B000830B585B0040009220F4901A83D
:100E200001F072FD01A8FFF76FF90D4D82B201A923
:100E30006423280001F0E0FB2000FFF765F92100A2
:100E400082B26423280001F0D7FB64230222280029
:100E5000044901F0D1FB05B030BDC046E93B0008B4
:100E600024010020E63B00087FB506000C000922A3
:100E70000D4901A801F048FD01A8FFF745F90B4D08
:100E800082B201A92800642301F0B6FB31002800DA
:100E9000A2B2642301F0B0FB2800642302220449BB
:100EA00001F0AAFB7FBDC046E93B000824010020F9
:100EB000E63B00080A4B026810B59A420ED1094A77
:100EC00009491378D8B20133DBB213700B78074AA3
:100ED000DBB213540122064801F0B6FC10BDC04637
:100EE00000380140A9010020A8010020AA0100202B
:100EF000A000002070B5040096261B48FFF78AFF6B
:100F00000425F600A18BA06900F06AFC002803D03C
:100F1000013DEDB2002D10D1A18BA06900F060FC65
:100F2000041E1BD11148FFF775FF802110482200D5
:100F3000490100F05BFC012070BDA1890022A0687E
:100F400000F054FC300000F0E3FAA0680122A1890F
:100F500000F04CFC642000F0DBFAD3E70548FFF713
:100F600059FF0020E8E7C046F23B00080D3C0008AE
:100F700000040048273C000810B5FFF7BBFF00F055
:100F80000FFB10BDF0B506000020994205D3050007
:100F90000400C91AA34201D80120F0BD3019475DF1
:100FA000105D01348742F5D001358D4201D9002012
:100FB000F3E70024EEE70000F0B5A3B005000F0052
:100FC00000920193FFF7A0F8642382B229001E4823
:100FD00001F012FB0026289BB34201D1002410E04F
:100FE0003800FFF791F8802103003A0017484900C4
:100FF000FFF7C8FF04000120013600F089FA002C39
:10100000E9D03200124902A801F090FC290002A8A0
:1010100001F0ACFC02A8FFF7FDFE009B0B4D012B7D
:1010200005D1802229000198520001F06DFC802238
:1010300000212800520001F070FC00222000054B26
:101040001A7023B0F0BDC046A0000020AA01002005
:101050003E3C0008A9010020F0B55F4B04005F484A
:1010600096260C220360002389B036024660836016
:10107000C360036142618361C3610362436201F043
:101080005FFB002801D0FFF729FA554D554B0C2284
:101090002B60002328006E60AB60EB602B616A61FF
:1010A000AB61EB612B626B6201F04AFB002801D05F
:1010B000FFF714FA0026112701224B49280001F0FE
:1010C000C3FB1422002103A801F027FC0122A18AFE
:1010D000206900F08BFBA38A206903A9039304977E
:1010E0000596069600F0C6FA0122A189A06800F0D4
:1010F0007DFBA389A06803A9039304970596069630
:1011000000F0B8FAA38B9627A06903A90496059668
:101110000696039300F0AEFA0436FF00A18BA06997
:1011200000F05EFB021E03D1013EF6B2002E2BD171
:101130002E48FFF76FFEA18BA06900F051FB041E43
:1011400032D0802101222A48490100F04FFB294C6E
:10115000642321000322280001F04EFA264800F003
:10116000D7F9FA239B000093002320001A0023499B
:10117000FFF722FF0400012825D12148FFF74AFE8E
:101180002048FFF747FE1BE0A189A06800F02EFB76
:10119000380000F0BDF9A0680122A18900F026FB0B
:1011A000642000F0B5F9B9E71748FFF733FE174898
:1011B000FFF730FE802122000D48490100F016FBA8
:1011C000200009B0F0BD1048FFF724FE1048FFF7DB
:1011D00021FE0024F4E7C046004400402401002022
:1011E000A000002000380140A8010020523C000867
:1011F00000040048713C0008B80B00007739000873
:10120000B73C0008D63C0008753C0008933C000839
:10121000F23C0008F0B5A5B0009201930A006423E7
:101220000100224801F0E8F90722214902A801F053
:101230006BFB00250127019B1E4EAB4201D1002410
:1012400011E000220023B11802A8CC5CC05C8442EB
:1012500026D10133072BF7D13C003800013500F0CF
:1012600057F9002CE7D02A00134904A801F05EFBCF
:1012700004A8FFF7CFFD3000FFF7CCFD802231003E
:101280000098520001F040FB802200213000520003
:1012900001F043FB00222000084B1A7025B0F0BD7E
:1012A0000132FA2ACED10024D7E7C046A0000020A0
:1012B000133D0008AA0100203E3C0008A9010020BF
:1012C00001200A4B82B099690143996180219A6992
:1012D000490502400092009ADA690A43DA61DB6943
:1012E0000B400193019B02B07047C04600100240C2
:1012F00010B504008AB01422002105A801F00DFBEE
:1013000023682B4A93422AD180202A4BC001996935
:101310000143996180219A69890202400192019AF0
:101320005A6990200A435A615B69C0050B400293D9
:10133000029BC023DB00059302230693013308932D
:1013400005A9023B099300F095F900221B2011002A
:1013500000F0F0F81B2000F017F90AB010BD164A93
:101360009342FAD18022134B9202D9699020114303
:10137000D961D969C0051140039103995969114395
:1013800059615B6905A91A400492049B0C230593DB
:101390000A3B069301330893023B099300F06AF974
:1013A00000221C20110000F0C5F81C20D3E7C04625
:1013B000003801400010024000440040FEE7FEE714
:1013C0007047704710B500F091F810BD10B5024895
:1013D00000F0AAFD10BDC046A000002010B50248D4
:1013E00000F0A2FD10BDC046240100200B4A0C49AC
:1013F0000300891A0B4A10B51068002801D10A4869
:1014000010601068C3188B4206D901F053FA0C2300
:1014100003600120404210BD1360FCE7000400009F
:1014200000200020AC020020C8020020704700000D
:101430000D4885460D480E490E4A002302E0D45857
:10144000C4500433C4188C42F9D30B4A0B4C00230C
:1014500001E013600432A242FBD3FFF7E7FF01F083
:101460002FFAFEF783FFFEE7002000200000002097
:1014700084000020943D000884000020C402002065
:10148000FEE7000070B50500FA200D4B80001978CA
:10149000FEF756FE0B4B01001868FEF751FE00F0F8
:1014A0008DF804000120002C09D1032D07D8023843
:1014B0002200290000F03EF82000034B1D6070BDA3
:1014C00018000020140000201C0000201023064AF1
:1014D00010B5116803200B431360FFF7D3FFFFF72C
:1014E000EFFE002010BDC04600200240034A044B1E
:1014F00011681B785B1813607047C046B00200206B
:1015000018000020014B18687047C046B002002048
:1015100070B50400FFF7F6FF0500631C02D0044B12
:101520001B78E418FFF7EEFF401BA042FAD370BD12
:101530001800002030B5FF2503242A000440E400F1
:10154000A24089012940D243A140C3B200280ADB4E
:10155000C0240B4B80088000C018A40003591A4017
:101560001143015130BD0F200340083B05489B0843
:101570009B001B18D86902401143D961F2E7C046AD
:1015800000E100E000ED00E0002805DB1F2318402B
:101590001E3B8340014A13607047C04600E100E0F3
:1015A000BFF34F8F034B044ADA60BFF34F8FC0463F
:1015B000FDE7C04600ED00E00400FA058022431E6E
:1015C0005204012093420DD2C021074A07485360BC
:1015D000036A09061B021B0A0B4303620020072350
:1015E000906013607047C04610E000E000ED00E03E
:1015F00030B5851CEB7F441C022B05D0042383638C
:1016000000230120E37730BD0E2103681A688A4366
:101610001A600122196891431960016CC36B1000B4
:10162000884058600020EA77E077ECE770B5841CCA
:10163000E37F022B04D004238363033B180070BDB7
:101640000E210368056C1A688A431A600122196822
:10165000914319601100A940C36B5960E2770024DF
:101660008318DC77426B1300A242E7D09047230037
:10167000E4E700000023F0B587B00A681400DC40FE
:1016800001D107B0F0BD012514009D402C4001940C
:101690002A4200D195E04A685E00944603226446DF
:1016A00022400324B440E4430294541E012C2AD85F
:1016B0008768029C2740CC68B4403C4384604468FF
:1016C0000127AC432500644624093C409C402C4340
:1016D0004460C568029C25408C68B4402C43C460BB
:1016E000022A12D1DC080725A4000419276A0394F2
:1016F0000F241D40AD00AC40A7430C69AC4027430C
:10170000039C276201E0032AE3D10468029DB240F2
:1017100025402C0014430460C0246246A4022242E7
:101720004FD00125284A90279469FF052C439461E6
:1017300092699C082A400592059A244AA400A4189C
:101740000F2202351D40AD00AA40A6689643002234
:10175000B8420CD01E4F0132B84208D01D4F0132A2
:10176000B84204D01C4F0132B84200D00232AA4025
:1017700067463243A260194A019C1668019DE44302
:101780003543FF0301D43500254067461560566890
:10179000019D3543BF0301D43500254067465560A0
:1017A0009668019D3543FF0201D435002540674608
:1017B0009560D568019E2E43BF0201D425402E00BE
:1017C000D660013359E7C0460010024000000140D6
:1017D0000004004800080048000C004800040140D4
:1017E00000690840431E9841C0B27047002A01D0EA
:1017F000816170478162FCE7426913000B401B0462
:101800009143194381617047F0B5040085B0002809
:1018100045D00368DB072FD423689B0700D581E000
:1018200023681B0700D5BCE023685B0700D5DFE019
:101830002368DB061AD562690423B54D012A00D05E
:101840004AE1696B02270B436B636B6B1A436A6354
:10185000FFF758FE06006B6B3B4200D135E1F821E3
:101860006A6BA3698A43DB0013436B63236A002B13
:1018700000D059E100202AE00C21A54D6A680A40F9
:10188000042A06D06B680B40082B0AD16B68DB0377
:1018900007D52B689B03BFD56368002BBCD1012003
:1018A00015E06368012B14D180232A685B0213437F
:1018B0002B60FFF727FE80270600BF022B683B4204
:1018C000AAD1FFF71FFE801B6428F7D9032005B0BB
:1018D000F0BD002B16D12B688E4A802713402B6059
:1018E0002B688D4ABF0213402B60FFF70BFE0600EA
:1018F0002B683B4200D18FE7FFF704FE801B642872
:10190000F6D9E3E7052B05D180232A68DB021343D0
:101910002B60C9E72B687F4A13402B602B687E4AF7
:101920001340C5E70C227A4D6B68134206D06B68F2
:101930001340082B10D16B68DB030DD42B689B0779
:1019400002D5E368012BAAD1F8212A6823698A43CA
:10195000DB0013432B6063E7E2680123002A0FD00A
:101960002A68022713432B60FFF7CCFD06002B6883
:101970003B42E9D1FFF7C6FD801B0228F7D9A5E756
:101980002A6802279A432A60FFF7BCFD06002B68ED
:101990003B4200D144E7FFF7B5FD801B0228F6D992
:1019A00094E7E26901235A4D002A10D06A6A02279F
:1019B00013436B62FFF7A6FD06006B6A3B4200D043
:1019C00032E7FFF79FFD801B0228F6D97EE76A6A9F
:1019D00002279A436A62FFF795FD06006B6A3B4255
:1019E00000D121E7FFF78EFD801B0228F6D96DE7B5
:1019F00080220021464D5205EB690091134208D127
:101A0000EB691343EB61EB6913400393039B0123E1
:101A100000938027414E7F0033683B4206D0A36885
:101A2000012B13D12A6A13432B6230E033683B4306
:101A30003360FFF767FD019033683B42EFD1FFF75A
:101A400061FD019BC01A6428F6D93FE70122002BF3
:101A500014D12B6A022793432B622B6A03329343E0
:101A60002B62FFF74FFD06002B6A3B4216D0FFF7B3
:101A700049FD2B4B801B9842F6D927E7052B16D141
:101A8000296A013B0B432B622B6A1A432A62FFF738
:101A900039FD022706002B6A3B420FD0009B012B29
:101AA00000D0C5E6EB691F4A1340EB61C0E62B6A24
:101AB000934304222B622B6A9343B5E7FFF722FD81
:101AC000174B801B9842E6D900E7FFF71BFD801BF0
:101AD000022800D8BFE6F9E6053203D16A6B9A43C3
:101AE0006A63BCE66A6B0227134301226B636B6B6C
:101AF00093436B63FFF706FD06006B6B3B4200D11F
:101B0000B4E6FFF7FFFC801B0228F6D9DEE6C046EC
:101B100000100240FFFFFEFFFFFFFBFF00700040D0
:101B200088130000FFFFFFEF0C21344D6A680A4064
:101B3000082A47D0324A022B32D12B688027134023
:101B40002B60FFF7DFFC0600BF042B683B4221D16E
:101B50000F22EB6A80269343E26AB6041343EB62DA
:101B6000616AA36A6A680B4326490A4013436B60A3
:101B700080232A685B0413432B60FFF7C3FC040037
:101B80002B68334200D075E6FFF7BCFC001B02282F
:101B9000F6D99BE6FFF7B6FC801B0228D5D995E65F
:101BA0002B68802613402B60FFF7ACFC0400B604C2
:101BB0002B68334200D15DE6FFF7A4FC001B02282E
:101BC000F6D983E61800012B00D180E680216B68EE
:101BD000606A4902EA6A1940814200D05FE60F213B
:101BE0000A40E16A8A4200D059E6F022920313408B
:101BF000A26A934200D13DE651E6C0460010024081
:101C0000FFFFFFFEFFFFC2FF70B588B01022124930
:101C1000684604AD00F078FE102228000F4900F05D
:101C200073FE0C220E4E73681A40082A11D10F2041
:101C30006A46990C0140545CF26A0240A95CDB03DD
:101C400005D50848FEF77CFA604308B070BD064829
:101C5000FAE70448F9E7C046333D0008443D000870
:101C60000010024000127A0000093D00F7B50400A0
:101C70000E00002801D10120FEBD0122374D2B6846
:101C800013408B421CD321688B0722D4CB072FD45F
:101C900001232A681A40B24251D82368304D5B07AD
:101CA00054D4FFF7B1FF6B682E4A1B061B0FD35CA1
:101CB000D8402D4B18600320FFF7E4FB0020DBE742
:101CC0002B6893430B432B602B6813408B42D2D17C
:101CD000D9E7234A4B0704D5E0235068DB000343D0
:101CE0005360F02053688343A06803435360CDE7FB
:101CF0001B4F62683B68012A19D19B03BBD50321A6
:101D00007B688B4313437B60FFF7FCFB01900C2344
:101D10007A681A4063689B009A42B9D0FFF7F2FBD9
:101D2000019BC01A114B9842F1D90320A4E7022A63
:101D300002D19B01E3D49EE79B07E0D49BE72A688E
:101D40009A432A602A681A42A7D094E76B68084A27
:101D50001340E26813436B60A3E7C04600200240D3
:101D6000001002401B3D00081400002088130000F2
:101D7000FFF8FFFF044B054A5B685B055B0FD35C14
:101D8000034A1068D8407047001002402B3D0008FD
:101D900014000020F0B50368050085B0DB032AD5E8
:101DA000802200213C4C5205E3690091134208D186
:101DB000E3691343E361E36913400393039B012346
:101DC00000938027354E7F0033683B4231D0226A32
:101DD000C02311009B00324E19401A423BD1236AA6
:101DE0001E406B681E43009B2662012B03D1E369F2
:101DF0002C4A1340E3612A68D30706D503202649FD
:101E00000B6B8343A86803430B63930606D510202E
:101E100021490B6B8343E86803430B6300205305A0
:101E200017D540211C4A136B8B4329690B4313635D
:101E30000FE033683B433360FFF764FB0190336886
:101E40003B42C4D1FFF75EFB019BC01A6428F6D960
:101E5000032005B0F0BD6A6813408B42BFD08023D9
:101E6000226A206A11005B0203432362236A0E4840
:101E70003140034023622162D307B0D5FFF742FB14
:101E800007000222236A1342A9D1FFF73BFB074B4D
:101E9000C01B9842F5D9DBE70010024000700040FB
:101EA000FFFCFFFFFFFFFFEFFFFFFEFF88130000B7
:101EB00030B5EFF31084012282F310880168124DCF
:101EC0000B682B400B6084F31088EFF3108482F3CF
:101ED000108801688B6893438B6084F31088036ECD
:101EE00093420AD1EFF3108183F310881024026823
:101EF0001368A343136081F310882023C367002372
:101F00000366436630BDC046DFFEFFFF7047704783
:101F1000406A0023020010B55A321380083A138039
:101F2000FFF7F5FF10BD70470268F8B5D3690400EC
:101F3000A4481168966803420BD12020034200D1C7
:101F40007FE0014200D17CE0636E2000002B6ED167
:101F50006EE0012037009C4D07400D403D4300D10D
:101F60006FE0251D034205D0CE0503D51062EE6F4C
:101F70003043E8670220034206D0002F04D01062ED
:101F8000EE6F00183043E8670420034206D0002FAC
:101F900004D01062EE6F02383043E8670820034235
:101FA00007D020260E403E4303D01062EE6F304330
:101FB000E86780200001034206D04E0104D510627C
:101FC0002022E86F0243EA67EA6F002A30D020221D
:101FD000134206D0114204D0636E002B01D02000C2
:101FE00098472268EB6F4027966828223E401340AE
:101FF00020001E4321D0FFF75BFF23689B683B4214
:1020000017D0EFF31081012383F3108822689368BF
:10201000BB43936081F31088206F002809D06B4B7D
:102020004363FFF703FB002802D0206F436B984700
:10203000F8BD2000FFF76BFFFAE7FFF768FFEE67D8
:10204000F6E7206E012800D08FE010252B4200D14A
:102050008BE0294200D188E01562936840211A0084
:102060000A400B424CD0226F13685B689BB2002B76
:10207000DED02600583637889F42D9D927005A37F4
:102080003B809369202B31D0EFF3108780F31088C9
:1020900022684F4D13682B40136087F31088EFF3CD
:1020A000108780F31088226893688343936087F3D6
:1020B0001088EFF3108780F31088226893688B43B1
:1020C000936087F310882023E36700232366EFF3F0
:1020D000108180F31088226812351368FF35AB43F6
:1020E000136081F31088206FFFF782FA23005A33C0
:1020F0001B883188C91A89B22000FFF714FF97E7BF
:1021000026005A36338831889BB2002900D18FE7E8
:10211000210058310988C91A89B2002900D187E7FE
:10212000EFF3108780F3108826682A4D33682B4020
:10213000336087F31088EFF3108780F310882668E8
:10214000B3688343B36087F3108820236266E36734
:102150002266EFF3108680F310881020226813683F
:102160008343136086F31088C6E780204003034250
:1021700006D0750204D51062200000F09AFB57E7E4
:102180008022134203D0114201D0A36EDDE640222B
:10219000134200D14CE7114200D149E7EFF3108020
:1021A000012383F3108821680B6893430B6080F34D
:1021B00010882023A36700232000A366FFF7A6FE54
:1021C00036E7C0460F08000020010004111F000878
:1021D000FFFEFFFFDFFEFFFFC26F70B50368222A1C
:1021E00049D102005C329B8C12881340426D1370FF
:1021F0000200436D5A32013343651388013B9BB2A1
:102200001380138899B2002B31D1EFF3108501228E
:1022100082F3108804681A4E23683340236085F3E4
:102220001088EFF3108582F310880468A368934345
:10223000A36085F310882023C367036E4166934231
:1022400016D10166EFF3108483F310881023016820
:102250000A689A430A6084F310880268D1691942B7
:1022600000D01362030058331988FFF75CFE70BD7D
:10227000FEF720FEFBE7082299690A439A61F6E718
:10228000DFFEFFFFC26F70B50368222A48D102004B
:102290005C32998C1288436D0A401A800200023326
:1022A00043655A321388013B9BB21380138899B25D
:1022B000002B31D1EFF31085012282F310880468DE
:1022C0001A4E23683340236085F31088EFF310859E
:1022D00082F310880468A3689343A36085F3108891
:1022E0002023C367036E4166934216D10166EFF364
:1022F000108483F31088102301680A689A430A60E7
:1023000084F310880268D169194200D01362030077
:1023100058331988FFF707FE70BDFEF7CBFDFBE7CA
:10232000082299690A439A61F6E7C046DFFEFFFF7B
:1023300070B504002569A26801682A436569C3690C
:102340002A4308683E4D1A43284002430A604A68FF
:102350003C48256A0240E06802434A60A2698868F6
:102360002A43394D284002438A60384A914215D1A8
:102370000321374A126B0A408021013A0902022ADE
:1023800053D83448805C8B4214D008284BD8FDF7D2
:10239000C3FE0C4A484A454A4A4A34002E4A9142F2
:1023A00041D180221202934241D0FFF7E3FC002882
:1023B00041D024E0082836D8FDF7AEFE393508357F
:1023C000053535350900FFF71FFC32E0234B580077
:1023D000636861685B08C018FDF7B2FE204982B2ED
:1023E000103A03048A421ED80F221B03904380B286
:1023F00022685B0F1843D0601DE0802000026368F4
:1024000061685B081818FDF79BFE80B20200144B50
:10241000103A9A4207D82368D8600CE0FFF7F4FB23
:10242000C5E70E48EBE7012006E08B42BDD1FFF780
:10243000A1FC031ECBD1002000236366A36670BD00
:10244000F369FFFFFFCFFFFFFFF4FFFF00380140FC
:1024500000100240553D00080044004000127A0080
:10246000EFFF0000436A30B5DA0706D50168284C53
:102470004A682240846A22434A609A0706D5016866
:10248000244C4A682240C46A22434A605A0706D54F
:102490000168214C4A682240046B22434A601A07B3
:1024A00006D501681D4C4A682240446B22434A60AD
:1024B000DA0606D501681A4C8A682240846B2243EA
:1024C0008A609A0606D50168164C8A682240C46B59
:1024D00022438A605A0610D50168134D4A68046C7D
:1024E0002A4022434A6080225203944205D14A681E
:1024F0000E4C2240446C22434A601B0606D50268FB
:102500000B4953680B40816C0B43536030BDC04690
:10251000FFFFFDFFFFFFFEFFFFFFFBFFFF7FFFFF52
:10252000FFEFFFFFFFDFFFFFFFFFEFFFFFFF9FFF5B
:10253000FFFFF7FFF7B5802704000D001600019399
:102540003F012268D3692B405B1B59424B41B34288
:1025500001D0002028E0089B0133F3D0FEF7D2FF22
:10256000019BC01A089B984201D8002B1DD1EFF3A4
:102570001080012282F3108821681E4D0B682B40C9
:102580000B6080F31088EFF3108082F310882168CD
:102590008B6893438B6080F310882023A367E367E5
:1025A0000023032074342370FEBD042123681A68BD
:1025B0000A42C6D0DA693A42C3D01F62EFF31080F4
:1025C000012282F3108821680A4D0B682B400B60B2
:1025D00080F31088EFF3108082F3108821688B68F5
:1025E00093438B6080F310882023221DA367E36749
:1025F000D367D5E75FFEFFFFF0B587B00593836F24
:1026000004000D0016000220202B51D101380029B2
:102610004ED0002A4CD08023A2685B019A4204D19C
:102620002369002B01D1014242D12300743303936B
:102630001B780220012B3BD00123039A1370002248
:10264000231DDA672123A367FEF75CFF23005033C5
:102650001E8002331E8004938023A2680700002698
:102660005B019A4204D12369B34201D12E001D00BF
:102670000023039A1370230052331B889AB2002B55
:102680000BD1059B4021009320003B00FFF752FF38
:1026900000280CD12023A3670AE0059B00220093A9
:1026A00080213B002000FFF745FF002802D00320D7
:1026B00007B0F0BD2268002D0BD133880236DB0550
:1026C000DB0D1385049B049A1B88013B9BB213808E
:1026D000D1E72B7801351385F4E7000073B50026A8
:1026E0000400031DDE67FEF70DFF236805001B686D
:1026F0001B0716D423681B685B070AD580210F4B84
:102700000022009320002B00C903FFF713FF0028CD
:1027100012D120230020A367E36720667434207061
:102720000BE08021054B3200009389030300200059
:10273000FFF700FF0028DDD0032076BDFFFFFF017B
:1027400010B5041E01D1012010BD836F002B04D1F0
:10275000020074321370FEF7CBFD2423012122689E
:10276000A367136820008B431360FFF7E1FD012886
:10277000E9D0636A002B02D02000FFF773FE2368C4
:1027800007495A6820000A402A215A609A688A43F9
:102790009A60012219680A431A60FFF79FFFD3E786
:1027A000FFB7FFFF10B541650100030058310A80F3
:1027B0004A80002180241A004166806864015C32EE
:1027C000A04233D1196900292ED11C491180002162
:1027D0001A1DD1672222DA67EFF31080213A82F3C3
:1027E000108819688C6822438A6080F310888021E1
:1027F0009868134A4901884203D11969002900D118
:10280000104A5A661A00002074321070EFF31081DB
:10281000012282F310881A68902314685B00234316
:10282000136081F3108810BDFF21CFE70028CDD1C0
:1028300019690029F8D07F21C8E7C046FF010000D0
:10284000D92100088522000870B5C46F0223202C0E
:102850002DD1013B00292AD0002A28D0802384686A
:102860005B019C4206D10369002B03D101242300A4
:1028700021421CD10400743425780223012D16D086
:10288000013B2370002404660468646824020BD5AD
:10289000EFF3108583F3108880230468DB04266837
:1028A0003343236085F31088FFF77CFF0300180093
:1028B00070BD7047014B18687047C046200000206B
:1028C00070B500260C4D0D4C641BA410A64209D116
:1028D000002600F099FC0A4D0A4C641BA410A64285
:1028E00005D170BDB300EB5898470136EEE7B30051
:1028F000EB5898470136F2E78C3D00088C3D000804
:102900008C3D0008903D0008002310B59A4200D18C
:1029100010BDCC5CC4540133F8E703008218934225
:1029200000D1704719700133F9E700000EB400B50B
:102930000B499CB01DAB0290069007910491094889
:10294000094904CB0591006802A9019300F07EF8C3
:102950000023029A13701CB008BC03B01847C0468D
:10296000FFFFFF7F200000200802FFFF020010B5DC
:10297000137814000132002BFAD1CA5CE2540133FF
:10298000002AFAD110BD0000F0B58E6885B00700AE
:102990000C00039201939E423CD890238A89DB006D
:1029A0001A4234D00969236860695B1A02930323D1
:1029B0004343DD0FED18019B029801331B186D1086
:1029C000AB4200D91D00530532D52900380000F074
:1029D00049FB061E09D10C233B6040230120A2893C
:1029E00040421343A38105B0F0BD029A2169FFF76D
:1029F0008BFFA389144A1A4080231343A381029BAF
:102A00002661F61826606561019EED1AA560019B9E
:102A10009E4200D9019E32000399206800F0A3FA7B
:102A2000A36800209B1BA36023689E192660DAE739
:102A30002A00380000F08CFB061EE0D13800216926
:102A400000F0A4FAC7E7C0467FFBFFFFF0B5A1B0D6
:102A500003901D008B890F0016001B0611D50B6912
:102A6000002B0ED1402100F0FDFA386038610028BB
:102A700005D10C23039A0138136021B0F0BD402327
:102A80007B61002308AC6361203363761033A37647
:102A9000079535002B78002B01D0252B47D1AB1B98
:102AA0000593B5420CD0320039000398FFF76CFF54
:102AB000431C00D1AEE06269059B944663446361A8
:102AC0002B78002B00D1A5E0012200235242626046
:102AD00004A9543252186E1C2360E360A360137083
:102AE000A36505223178544800F032FA751C00289D
:102AF0001FD12268D30604D5532304A95B182021D3
:102B00001970130704D5532304A95B182B211970DE
:102B100033782A2B16D0350000210A20E3682A7862
:102B20006E1C303A092A4ED9002911D117E001351F
:102B3000B0E7414B2268C01A0123834013432E00A3
:102B40002360CEE7079B191D1B680791002B01DB53
:102B50000B9304E05B42E3600223134323602B7872
:102B60002E2B0AD16B782A2B35D1079B02351A1DE3
:102B70001B680792002B2BDB0993304E0322300099
:102B8000297800F0E5F9002806D04023801B834017
:102B900022680135134323602978062228486E1CD9
:102BA000217600F0D5F900283CD0264B002B25D10A
:102BB0000722079B07339343083307936369049AFB
:102BC0009B18636165E74343350001219B18A6E725
:102BD00001235B42D0E700230A201A00013563601D
:102BE00029786E1C3039092903D9002BC5D00992E8
:102BF000C3E74243350001235218F1E707AB0093C6
:102C00003A002100104B039800E000BF0490049BA1
:102C10000133D3D1BB890D985B0600D42DE7012089
:102C200040422AE707AB00933A002100064B039885
:102C300000F07CF8EAE7C046583D00085E3D000819
:102C4000623D00080000000089290008F7B5150062
:102C500001938A680B690C000090934200DA13001C
:102C600022002B6043321278002A01D001332B60FE
:102C700023689B0602D52B6802332B60226806234B
:102C800017001F401A4227D0230043331B785A1ED7
:102C900093412268920630D4220001990098089E40
:102CA0004332B047431C25D0062320682A68E168D8
:102CB00000250340042B03D18D1AEB43DB171D4085
:102CC000A3682269934201DD9B1AED180027BD42DB
:102CD00020D1002010E00137E3682A689B1ABB422C
:102CE000D2DD2200012301990098089E1932B047D5
:102CF000431CF0D101204042FEBD3020E118433199
:102D0000087021005A1C45310978A2184332023359
:102D10001170C1E72200012301990098089E1A3220
:102D2000B047431CE6D00137D1E70000F0B58BB0C7
:102D300006920A0043320793059004920A7E0C0023
:102D4000109B782A07D8622A09D8002A00D1C1E04E
:102D5000582A00D18CE026004236327022E0100062
:102D600063381528F7D8FDF7E1F916001F00F6FFC4
:102D7000F6FFF6FFF6FF1F00F6FFF6FFF6FFF6FF81
:102D8000A80036009A00F6FFF6FFB900F6FF3600FD
:102D9000F6FFF6FF9E0026001A684236111D1960E4
:102DA000136833700123A7E0086819680A1D050637
:102DB0000BD50D681A60002D03DA2D23049A6D429D
:102DC0001370614B0A2703931BE00D681A604106DC
:102DD000F1D52DB2EFE70D681968081D18602E06B1
:102DE00001D50D6803E06D06FBD50D68ADB2564BFD
:102DF000082703936F2A00D00237230000224333B1
:102E00001A706368A360002B03DB042221689143DE
:102E10002160002D02D1049E002B0CD0049E2800BE
:102E20003900FDF713FA039B013E5B5C33702B0006
:102E300005009F42F3D9082F09D12368DB0706D587
:102E400063682269934202DC3023013E3370049BA5
:102E50009B1B2361079B210000930598069B09AAF1
:102E6000FFF7F4FE431C4CD1012040420BB0F0BDF3
:102E700045310A70344A03921A68216820CA1A60E0
:102E8000080616D5CB0702D5202319432160102749
:102E9000002DB2D1202322689A432260ADE7202280
:102EA00009680A4322602200782145321170274ABE
:102EB000E1E74806E6D5ADB2E4E71A680D68101DF3
:102EC0004969186013682E0601D5196002E06D0685
:102ED000FBD519800023049E2361BBE71A68111DEE
:102EE0001960166800213000626800F031F800288F
:102EF00001D0801B6060636823610023049A137013
:102F0000A8E72369320006990598079DA847431C46
:102F1000AAD023689B0715D4099BE0689842A5DADC
:102F20001800A3E72200012306990598079E19328D
:102F3000B047431C98D00135E368099A9B1AAB420D
:102F4000F0DCE9E70025F7E7693D00087A3D000875
:102F5000C9B28218904201D10020704703788B4299
:102F6000FBD00130F6E710B5884202D98B189842A1
:102F700003D3002307E08B5C8354013AFBD210BDDE
:102F8000CC5CC45401339A42FAD1F8E770B505001D
:102F9000002910D00C1F2368002B00DAE418280049
:102FA00000F018F91D4A1368002B05D16360146006
:102FB000280000F017F970BDA34208D921686018F5
:102FC0008342F3D118685B6841182160EEE71A006C
:102FD0005B68002B01D0A342F9D911685018A042B8
:102FE0000BD120680918501811608342E0D118688D
:102FF0005B68411811605360DAE7A04202D90C23E4
:103000002B60D5E721686018834203D118685B689C
:103010004118216063605460CAE7C046B4020020D2
:1030200070B50F4E0D0031680400002902D100F088
:10303000BFF830602900200000F0BAF8431C0AD025
:103040000323C51C9D43A84207D0291A200000F085
:10305000AFF8431C01D101256D42280070BDC04668
:10306000B8020020F7B50322CB1C934308330600B7
:103070001F000C2B32D20C27B94231D8300000F09F
:10308000A9F8324D2B681C00002C2ED139003000DD
:10309000FFF7C6FF0400431C1ED12C682500002D3D
:1030A0004AD123682900E3183000019300F080F82A
:1030B000019B834243D123680337FF1A03239F43B5
:1030C00008370C2F00D20C2739003000FFF7A8FF7B
:1030D000431C34D02368DF19276013E0002BCBDAC0
:1030E0000C23002533602800FEBD2268D11B20D4AC
:1030F0000B2917D9E2192760A34211D12A6063680E
:10310000116053603000250000F06CF807220B3589
:10311000231D9543EA1A9D42E5D05B1BA350E2E7CD
:103120005A60ECE76268A34201D12A60EAE75A607C
:10313000E8E723006468A7E72C006D68AFE70C237D
:103140003000336000F04EF8CDE7C046B4020020F6
:10315000F7B507000E001400002905D11100FFF794
:1031600081FF05002800FEBD002A03D1FFF70EFFF6
:103170002500F7E700F03EF80190844203D83500BF
:103180004308A342EED321003800FFF76BFF051E72
:10319000E8D0019B22009C4200D91A00310028008F
:1031A000FFF7B2FB31003800FFF7F0FEDAE700006E
:1031B000002370B5064D040008002B60FEF716F9D9
:1031C000431C03D12B68002B00D0236070BDC04688
:1031D000BC02002010B5024800F014F810BDC04633
:1031E000C002002010B5024800F00DF810BDC04626
:1031F000C00200200B1F1B68181F002B01DA0B58A0
:10320000C018704770477047F8B5C046F8BC08BC96
:103210009E467047F8B5C046F8BC08BC9E4670474D
:10322000506F736974696F6E5F6461746100000050
:10323000000000000000000041542B4350494E3D67
:10324000000000000041542B434950535441525454
:103250003D22544350222C220000000000000000B8
:10326000000000000000000000000000000000005E
:10327000000000000000000000000000000000004E
:10328000000000000000000000000000000000003E
:10329000000000000000000000000000000000002E
:1032A000000000000000000000000000000000001E
:1032B000000000000000000000000000000000000E
:1032C000000000000041542B43495053454E443DFB
:1032D00000000000000000000000000000101000CE
:1032E000044D51545404020000000000000000008E
:1032F00000000000000000000000000000000000CE
:1033000000000000000000000000000000000000BD
:1033100000000000000000000000000000000000AD
:10332000000000000000000000000000000000009D
:10333000000000000000000000000000000000008D
:10334000000000000000000000000000000000007D
:1033500000000000000000000000000000301D0020
:103360000400000000000000000000000000000059
:10337000000000000000000000000000000000004D
:10338000000000000000000000000000000000003D
:10339000000000000000000000000000000000002D
:1033A000000000000000000000000000000000001D
:1033B000000000000000000000000000000000000D
:1033C00000000000000000000000000000000000FD
:1033D0000000000000000000000000000041542B2D
:1033E000434750535057523D310D0041542B4347F2
:1033F00050535253543D320D004C6F636174696FEA
:103400006E203344204669780041542B4347505383
:10341000494E463D300D0041542B434750535354C1
:10342000415455533F0D00423100500031382E3188
:1034300039352E3232382E333900313838330045A1
:103440006E61626C6520475052533A20537461722A
:103450007400436865636B2069662070686F6E65F1
:103460002066756E6374696F6E616C697479206F24
:103470006620746865206D6F64756C6520697320C3
:10348000656E61626C65643A2073656E64204154B8
:103490002B4346554E3F002B4346554E3A203100B4
:1034A000456E61626C652070686F6E652066756E32
:1034B0006374696F6E616C6974793A2073656E64C8
:1034C0002041542B4346554E3D310044657465639D
:1034D000742069662053494D2063617264206973CA
:1034E0002070726573656E743A2073656E64204156
:1034F000542B43534D494E533F002B43534D494E9C
:10350000533A20302C3100436865636B2069662094
:1035100050494E20636F6465206973207265717530
:10352000697265643A2073656E642041542B435080
:10353000494E3F00524541445900436865636B2042
:1035400047505253207369676E616C2071757161C9
:103550006C6974793A2073656E642041542B43532F
:1035600051002B4353513A20302C0039392C004361
:103570006865636B204E6574776F726B2052656768
:10358000697374726174696F6E20537461747573BA
:103590003A2073656E642041542B435245473F00E7
:1035A0002C3500526567697374657220746F206EE4
:1035B0006574776F726B3A2073656E642041542B8B
:1035C000435245473D3100436865636B206966207F
:1035D0004750525320697320617474616368656455
:1035E0003A2041542B43474154543F0043474154F0
:1035F000543A203000417474616368205044503A5A
:103600002073656E642041542B43474154543D312F
:1036100000436865636B2069662050445020636FE7
:103620006E7465787420697320646561637469766B
:1036300061746564205B5044502044454143545DAF
:103640003A2073656E64202041542B4349505354F3
:103650004154555300504450204445414354004385
:103660006865636B2069662050445020636F6E74F8
:1036700065787420697320636F72726563746C7906
:1036800020646566696E65643A2073656E642041E6
:10369000542B435354543F00434D4E4554005B500C
:1036A00044502044454143545D2073656E6420209E
:1036B00041542B4349505348555400436865636B4C
:1036C0002069662050445020636F6E7465787420C2
:1036D0006973206163746976653A2073656E64204E
:1036E00041542B43495053544154555300495020A1
:1036F000535441525400544D00222C22222C222299
:103700000D00646566696E652050445020636F6EDD
:10371000746578743A2073656E642041542B43536A
:1037200054543D2241504E222C22222C2222004170
:1037300063746976617465205044503A73656E64B1
:103740002041542B434949520041637469766174A6
:1037500065205044503A204641494C004368656317
:103760006B204950207374617475733A2073656ED1
:10377000642041542B4349505354415455530049FC
:1037800050204750525341435400476574204950DC
:1037900020616464726573733A2073656E642041BE
:1037A000542B4349465352004552524F52004765ED
:1037B0007420495020616464726573733A204641F5
:1037C000494C0020436865636B206966204750526E
:1037D0005320636F6E6E656374696F6E206973202A
:1037E00072656164793A2053656E642041542B43BD
:1037F0004950535441545553004950205354415457
:10380000555300496E7465726E657420436F6E6E19
:10381000656374696F6E3A20526561647900544340
:103820005020434F4E4E454354494E4700414C5261
:103830004541445920434F4E4E45435400496E7410
:1038400065726E657420436F6E6E656374696F6E2A
:103850003A204641494C004F70656E205443502039
:10386000636F6E6E656374696F6E3A205354415294
:103870005400436865636B2063757272656E7420D3
:10388000544350207374617475733A2073656E6489
:103890002041542B434950535441545553004950EF
:1038A00020494E495449414C005443502063616EB5
:1038B0006E6F7420626567696E20626563617573FF
:1038C000652047505253206973206E6F74207265D3
:1038D0006164793A2063616C6C20656E61626C652D
:1038E0005F6770727328293B00495020434F4E4652
:1038F0004947004F70656E2054435020636F6E6ED1
:10390000656374696F6E2064657465637465642CA7
:10391000207465726D696E6174696E672069742EBA
:103920002073656E643A2041542B434950434C4FF9
:10393000534500434F4E4E454354204F4B00222CDD
:103940002200417474656D707420746F206F70650F
:103950006E2054435020636F6E6E656374696F6EA2
:10396000004F70656E2054435020636F6E6E656328
:1039700074696F6E203A204F4B004F70656E205473
:10398000435020636F6E6E656374696F6E203A20DA
:103990004641494C200042756666657220636F6E31
:1039A00074656E742062656C6F773A00434F4E4EBB
:1039B000454354204641494C004F70656E205443A6
:1039C0005020636F6E6E656374696F6E2074696DED
:1039D000656F75742E20646973636F6E6E656374B2
:1039E000696E672E2073656E643A2041542B4349FB
:1039F00050434C4F534500434C4F534544204F4B8D
:103A000000436C6F73652054435020636F6E6E6586
:103A10006374696F6E3A2073656E642041542B4362
:103A20004950434C4F534500434C4F5345204F4B57
:103A30000041542B43495053454E443D25640D00ED
:103A4000496E6974696174652054435020747261D1
:103A50006E736D697373696F6E3A2073656E64205F
:103A600041542B43495053454E443D003E0053655D
:103A70006E64696E6720544350206C6F6164004D22
:103A80005154542070726F746F636F6C3A205354AA
:103A9000415254002A2A2A434F4E4E454354207027
:103AA00061636B657420636F6E74656E743A2A2A65
:103AB0002A002A2A2A5055424C49534820706163F3
:103AC0006B657420636F6E74656E743A2A2A2A00DF
:103AD00053656E64696E67204D51545420434F4EB8
:103AE0004E454354205061636B65740053656E64AA
:103AF000696E67204D515454205055424C495348EB
:103B0000205061636B65740053656E64696E672055
:103B10004D51545420444953434F4E4E4543542035
:103B20005061636B65740041542B4350494E3F0D07
:103B30000041542B43534D494E533F0D0041542BEC
:103B400043494943520D0041542B435354543F0DB4
:103B50000041542B4349505354415455530D004197
:103B6000542B43474154543F0D0041542B4352457D
:103B7000473F0D0041542B4353510D0041542B43FB
:103B800046554E3D310D0041542B43494653520D8D
:103B90000041542B4349505354415455530D004157
:103BA000542B43474154543D310D0041542B43465F
:103BB000554E3F0D0041542B435245473D310D00BA
:103BC00041542B434950534855540D0041542B4305
:103BD0004950434C4F53450D0041542B43495043EA
:103BE0004C4F53450D000D0A004465627567203E39
:103BF0002000506F776572206F6666204D6F647588
:103C00006C6520696E6974696174656400506F77D2
:103C10006572206F6666204D6F64756C653A20533F
:103C200055434345535300506F776572206F666666
:103C3000204D6F64756C653A204641494C004669D9
:103C40006E697368656420696E202564206D733A1F
:103C5000200053797374656D20696E697469616CB5
:103C6000697A6174696F6E3A205374617274656425
:103C70000041540D0053797374656D20696E697449
:103C800069616C697A6174696F6E3A204641494C8A
:103C9000454400526561736F6E3A2053494D383088
:103CA000382063616E6E6F7420626520706F776577
:103CB000726564206F6E0053797374656D20696E50
:103CC000697469616C697A6174696F6E3A205355E1
:103CD00043434553530053494D383038206D6F648A
:103CE000756C6520697320726573706F6E73697689
:103CF0006500526561736F6E3A2053494D38303814
:103D0000206973206E6F7420726573706F6E6469C2
:103D10006E670053454E44204F4B000000000000EA
:103D2000000000010203040607080900000000016A
:103D300002030402030405060708090A0B0C0D0E12
:103D40000F1010000102030405060708090A0B0CF6
:103D50000D0E0F1000040802232D302B2000686C7C
:103D60004C0065666745464700303132333435369E
:103D700037383941424344454600303132333435D7
:0C3D800036373839616263646566000004
:043D8C00E900000842
:043D9000C100000866
:103D940041542B435354543D2200000000000000C2
:103DA4000000000000127A0001000000040000007E
:103DB40024000020000000000000000000000000BB
:103DC40000000000000000000000000000000000EF
:103DD40000000000000000000000000000000000DF
:103DE40000000000000000000000000000000000CF
:103DF40000000000000000000000000000000000BF
:103E040000000000000000000000000000000000AE
:043E140000000000AA
:0400000508001431AA
:00000001FF
